{
    "contractName": "Registry",
    "abi": [
        {
            "constant": true,
            "inputs": [
                {
                    "name": "",
                    "type": "uint256"
                }
            ],
            "name": "keys",
            "outputs": [
                {
                    "name": "",
                    "type": "string"
                }
            ],
            "payable": false,
            "stateMutability": "view",
            "type": "function"
        },
        {
            "constant": true,
            "inputs": [
                {
                    "name": "",
                    "type": "bytes32"
                }
            ],
            "name": "storedAddresses",
            "outputs": [
                {
                    "name": "saved",
                    "type": "bool"
                },
                {
                    "name": "storedAddress",
                    "type": "address"
                }
            ],
            "payable": false,
            "stateMutability": "view",
            "type": "function"
        },
        {
            "constant": true,
            "inputs": [],
            "name": "owner",
            "outputs": [
                {
                    "name": "",
                    "type": "address"
                }
            ],
            "payable": false,
            "stateMutability": "view",
            "type": "function"
        },
        {
            "constant": false,
            "inputs": [
                {
                    "name": "_newOwner",
                    "type": "address"
                }
            ],
            "name": "transferOwnership",
            "outputs": [],
            "payable": false,
            "stateMutability": "nonpayable",
            "type": "function"
        },
        {
            "anonymous": false,
            "inputs": [
                {
                    "indexed": false,
                    "name": "_nameKey",
                    "type": "string"
                },
                {
                    "indexed": true,
                    "name": "_newAddress",
                    "type": "address"
                }
            ],
            "name": "NewAddress",
            "type": "event"
        },
        {
            "anonymous": false,
            "inputs": [
                {
                    "indexed": false,
                    "name": "_nameKey",
                    "type": "string"
                },
                {
                    "indexed": true,
                    "name": "_oldAddress",
                    "type": "address"
                },
                {
                    "indexed": true,
                    "name": "_newAddress",
                    "type": "address"
                }
            ],
            "name": "ChangedAddress",
            "type": "event"
        },
        {
            "anonymous": false,
            "inputs": [
                {
                    "indexed": true,
                    "name": "_previousOwner",
                    "type": "address"
                },
                {
                    "indexed": true,
                    "name": "_newOwner",
                    "type": "address"
                }
            ],
            "name": "OwnershipTransferred",
            "type": "event"
        },
        {
            "constant": true,
            "inputs": [
                {
                    "name": "_index",
                    "type": "uint256"
                }
            ],
            "name": "getEntry",
            "outputs": [
                {
                    "name": "key",
                    "type": "string"
                },
                {
                    "name": "value",
                    "type": "address"
                }
            ],
            "payable": false,
            "stateMutability": "view",
            "type": "function"
        },
        {
            "constant": true,
            "inputs": [
                {
                    "name": "_nameKey",
                    "type": "string"
                }
            ],
            "name": "getAddress",
            "outputs": [
                {
                    "name": "",
                    "type": "address"
                }
            ],
            "payable": false,
            "stateMutability": "view",
            "type": "function"
        },
        {
            "constant": false,
            "inputs": [
                {
                    "name": "_nameKey",
                    "type": "string"
                },
                {
                    "name": "_newAddress",
                    "type": "address"
                }
            ],
            "name": "newAddress",
            "outputs": [],
            "payable": false,
            "stateMutability": "nonpayable",
            "type": "function"
        },
        {
            "constant": false,
            "inputs": [
                {
                    "name": "_nameKey",
                    "type": "string"
                },
                {
                    "name": "_newAddress",
                    "type": "address"
                }
            ],
            "name": "changeAddress",
            "outputs": [],
            "payable": false,
            "stateMutability": "nonpayable",
            "type": "function"
        }
    ],
    "bytecode": "0x60806040819052600080546001600160a01b031916339081178255917f8be0079c531659141344cd1fd0a4f28419497f9722a3daafe3b4186f6b6457e0908290a3610ba88061004f6000396000f3fe608060405234801561001057600080fd5b50600436106100885760003560e01c8063bae78d7b1161005b578063bae78d7b146101fe578063bf40fac1146102ac578063f2fde38b1461031c578063f46a5c9e1461034257610088565b80630cb6aaf11461008d5780636c47e36f1461011f5780638da5cb5b1461015f578063a7dbb40214610183575b600080fd5b6100aa600480360360208110156100a357600080fd5b50356103bb565b6040805160208082528351818301528351919283929083019185019080838360005b838110156100e45781810151838201526020016100cc565b50505050905090810190601f1680156101115780820380516001836020036101000a031916815260200191505b509250505060405180910390f35b61013c6004803603602081101561013557600080fd5b5035610461565b6040805192151583526001600160a01b0390911660208301528051918290030190f35b610167610486565b604080516001600160a01b039092168252519081900360200190f35b6101fc6004803603604081101561019957600080fd5b8101906020810181356401000000008111156101b457600080fd5b8201836020820111156101c657600080fd5b803590602001918460018302840111640100000000831117156101e857600080fd5b9193509150356001600160a01b0316610496565b005b61021b6004803603602081101561021457600080fd5b503561060c565b6040518080602001836001600160a01b03166001600160a01b03168152602001828103825284818151815260200191508051906020019080838360005b83811015610270578181015183820152602001610258565b50505050905090810190601f16801561029d5780820380516001836020036101000a031916815260200191505b50935050505060405180910390f35b610167600480360360208110156102c257600080fd5b8101906020810181356401000000008111156102dd57600080fd5b8201836020820111156102ef57600080fd5b8035906020019184600183028401116401000000008311171561031157600080fd5b5090925090506106ea565b6101fc6004803603602081101561033257600080fd5b50356001600160a01b03166107a7565b6101fc6004803603604081101561035857600080fd5b81019060208101813564010000000081111561037357600080fd5b82018360208201111561038557600080fd5b803590602001918460018302840111640100000000831117156103a757600080fd5b9193509150356001600160a01b03166108c2565b600281815481106103c857fe5b600091825260209182902001805460408051601f60026000196101006001871615020190941693909304928301859004850281018501909152818152935090918301828280156104595780601f1061042e57610100808354040283529160200191610459565b820191906000526020600020905b81548152906001019060200180831161043c57829003601f168201915b505050505081565b60016020526000908152604090205460ff81169061010090046001600160a01b031682565b6000546001600160a01b03165b90565b6000546001600160a01b031633146104f85760408051600160e51b62461bcd02815260206004820152601e60248201527f546865206f776e65722073686f756c64206265207468652073656e6465720000604482015290519081900360640190fd5b6000838360405180838380828437604080519190930181900390206000818152600160205292909220549195505060ff16925061056c91505057604051600160e51b62461bcd02815260040180806020018281038252602a815260200180610b53602a913960400191505060405180910390fd5b6000818152600160209081526040918290208054610100600160a81b0319166101006001600160a01b03878116828102939093179384905585518581529485018990529194920416917f629c91fc9de3db5e699d8bad8523995c8e14e7f52fb91b49725e6625f2ea45f4918891889181908101848480828437600083820152604051601f909101601f19169092018290039550909350505050a350505050565b606060006002838154811061061d57fe5b600091825260209182902001805460408051601f60026000196101006001871615020190941693909304928301859004850281018501909152818152928301828280156106ab5780601f10610680576101008083540402835291602001916106ab565b820191906000526020600020905b81548152906001019060200180831161068e57829003601f168201915b50505050509150600160008380519060200120815260200190815260200160002060000160019054906101000a90046001600160a01b03169050915091565b60008083836040518083838082843760408051939091018390039092206000818152600160205292909220549195505061010090046001600160a01b0316151592506107839150505760408051600160e51b62461bcd02815260206004820152601360248201527f496e76616c69642061646472657373206b657900000000000000000000000000604482015290519081900360640190fd5b60009081526001602052604090205461010090046001600160a01b03169392505050565b6000546001600160a01b031633146108095760408051600160e51b62461bcd02815260206004820152601e60248201527f546865206f776e65722073686f756c64206265207468652073656e6465720000604482015290519081900360640190fd5b6001600160a01b0381166108675760408051600160e51b62461bcd02815260206004820152601860248201527f307830204973206e6f7420612076616c6964206f776e65720000000000000000604482015290519081900360640190fd5b600080546040516001600160a01b03808516939216917f8be0079c531659141344cd1fd0a4f28419497f9722a3daafe3b4186f6b6457e091a3600080546001600160a01b0319166001600160a01b0392909216919091179055565b6000546001600160a01b031633146109245760408051600160e51b62461bcd02815260206004820152601e60248201527f546865206f776e65722073686f756c64206265207468652073656e6465720000604482015290519081900360640190fd5b6000838360405180838380828437604080519190930181900390206000818152600160205292909220549195505060ff1615925061099991505057604051600160e51b62461bcd028152600401808060200182810382526022815260200180610b316022913960400191505060405180910390fd5b60028054600181018083556000929092526109d7907f405787fa12a823e0f2b7631cc41b3ba8828b3321ca811111fa75cd3aa3bb5ace018686610a98565b505060408051808201825260018082526001600160a01b03858116602080850182815260008881529482529386902094518554945160ff1990951690151517610100600160a81b031916610100949093169390930291909117909255825181815290810186905290917f2669073a0d2a19c2e922e6605056b37e94b8a0356b4323990ac027556dac1d4491879187919081908101848480828437600083820152604051601f909101601f19169092018290039550909350505050a250505050565b828054600181600116156101000203166002900490600052602060002090601f016020900481019282601f10610ad95782800160ff19823516178555610b06565b82800160010185558215610b06579182015b82811115610b06578235825591602001919060010190610aeb565b50610b12929150610b16565b5090565b61049391905b80821115610b125760008155600101610b1c56fe546865206b657920657869737420696e20616464726573736573206d617070696e67546865206b657920616c726561647920657869737420696e20616464726573736573206d617070696e67a165627a7a723058208fc7bd1af66e04bf72c6e6d6e40e10802e2891fdd6d86052039dec9943789df30029",
    "source": "\npragma solidity ^0.5.7;\n\nimport \"../../commons/Ownable.sol\";\n\ncontract Registry is Ownable {\n\n    struct Entry  {\n        bool saved;\n        address storedAddress;\n    }\n    \n    mapping (bytes32 => Entry) public storedAddresses;\n    string[] public keys;\n\n    event NewAddress(string _nameKey, address indexed _newAddress);\n    event ChangedAddress(string _nameKey, address indexed _oldAddress, address indexed _newAddress);\n\n    /**\n     * @notice Gets the entry\n     * @param _index is the position in keys array\n     * @return key, address\n     */\n    function getEntry(uint _index) external view returns(string memory key, address value) {\n        key = keys[_index];\n        value = storedAddresses[keccak256(bytes(key))].storedAddress;\n    }\n\n    /**\n     * @notice Gets the contract address\n     * @param _nameKey is the key for the contract address mapping\n     * @return address\n     */\n    function getAddress(string calldata _nameKey) external view returns(address) {\n        bytes32 key = keccak256(bytes(_nameKey));\n        require(storedAddresses[key].storedAddress != address(0), \"Invalid address key\");\n        return storedAddresses[key].storedAddress;\n    }\n    \n    /**\n     * @notice New contract address\n     * @param _nameKey is the key for the contract address mapping\n     * @param _newAddress is the new contract address\n     */\n    function newAddress(string calldata _nameKey, address _newAddress) external onlyOwner {\n        bytes32 key = keccak256(bytes(_nameKey));\n        require(!storedAddresses[key].saved, \"The key exist in addresses mapping\");\n        keys.push(_nameKey);\n        storedAddresses[key] = Entry(true, _newAddress);\n        emit NewAddress(_nameKey, _newAddress);\n    }\n\n    /**\n     * @notice Changes the contract address\n     * @param _nameKey is the key for the contract address mapping\n     * @param _newAddress is the new contract address\n     */\n    function changeAddress(string calldata _nameKey, address _newAddress) external onlyOwner {\n        bytes32 key = keccak256(bytes(_nameKey));\n        require(storedAddresses[key].saved, \"The key already exist in addresses mapping\");\n        storedAddresses[key].storedAddress = _newAddress;\n        emit ChangedAddress(_nameKey, storedAddresses[key].storedAddress, _newAddress);\n    }\n\n}",
    "sourcePath": "/Users/jpgonzalezra/Documents/Code/ripio/rcn-network/contracts/core/diaspore/Registry.sol",
    "compiler": {
        "name": "solc",
        "version": "0.5.7+commit.6da8b019.Emscripten.clang"
    },
    "schemaVersion": "3.0.1",
    "updatedAt": "2019-05-15T18:54:11.064Z",
    "devdoc": {
        "methods": {
            "changeAddress(string,address)": {
                "params": {
                    "_nameKey": "is the key for the contract address mapping",
                    "_newAddress": "is the new contract address"
                }
            },
            "getAddress(string)": {
                "params": {
                    "_nameKey": "is the key for the contract address mapping"
                },
                "return": "address"
            },
            "getEntry(uint256)": {
                "params": {
                    "_index": "is the position in keys array"
                },
                "return": "key, address"
            },
            "newAddress(string,address)": {
                "params": {
                    "_nameKey": "is the key for the contract address mapping",
                    "_newAddress": "is the new contract address"
                }
            },
            "transferOwnership(address)": {
                "details": "Transfers the ownership of the contract.",
                "params": {
                    "_newOwner": "Address of the new owner"
                }
            }
        }
    },
    "userdoc": {
        "methods": {
            "changeAddress(string,address)": {
                "notice": "Changes the contract address"
            },
            "getAddress(string)": {
                "notice": "Gets the contract address"
            },
            "getEntry(uint256)": {
                "notice": "Gets the entry"
            },
            "newAddress(string,address)": {
                "notice": "New contract address"
            }
        }
    }
}