{
  "contractName": "DebtEngine",
  "abi": [
    {
      "constant": true,
      "inputs": [
        {
          "name": "interfaceId",
          "type": "bytes4"
        }
      ],
      "name": "supportsInterface",
      "outputs": [
        {
          "name": "",
          "type": "bool"
        }
      ],
      "payable": false,
      "stateMutability": "view",
      "type": "function"
    },
    {
      "constant": true,
      "inputs": [],
      "name": "name",
      "outputs": [
        {
          "name": "",
          "type": "string"
        }
      ],
      "payable": false,
      "stateMutability": "view",
      "type": "function"
    },
    {
      "constant": true,
      "inputs": [
        {
          "name": "_assetId",
          "type": "uint256"
        }
      ],
      "name": "getApproved",
      "outputs": [
        {
          "name": "",
          "type": "address"
        }
      ],
      "payable": false,
      "stateMutability": "view",
      "type": "function"
    },
    {
      "constant": false,
      "inputs": [
        {
          "name": "_operator",
          "type": "address"
        },
        {
          "name": "_assetId",
          "type": "uint256"
        }
      ],
      "name": "approve",
      "outputs": [],
      "payable": false,
      "stateMutability": "nonpayable",
      "type": "function"
    },
    {
      "constant": true,
      "inputs": [],
      "name": "totalSupply",
      "outputs": [
        {
          "name": "",
          "type": "uint256"
        }
      ],
      "payable": false,
      "stateMutability": "view",
      "type": "function"
    },
    {
      "constant": false,
      "inputs": [
        {
          "name": "_from",
          "type": "address"
        },
        {
          "name": "_to",
          "type": "address"
        },
        {
          "name": "_assetId",
          "type": "uint256"
        }
      ],
      "name": "transferFrom",
      "outputs": [],
      "payable": false,
      "stateMutability": "nonpayable",
      "type": "function"
    },
    {
      "constant": true,
      "inputs": [
        {
          "name": "_operator",
          "type": "address"
        },
        {
          "name": "_assetId",
          "type": "uint256"
        }
      ],
      "name": "isAuthorized",
      "outputs": [
        {
          "name": "",
          "type": "bool"
        }
      ],
      "payable": false,
      "stateMutability": "view",
      "type": "function"
    },
    {
      "constant": true,
      "inputs": [
        {
          "name": "_owner",
          "type": "address"
        }
      ],
      "name": "assetsOf",
      "outputs": [
        {
          "name": "",
          "type": "uint256[]"
        }
      ],
      "payable": false,
      "stateMutability": "view",
      "type": "function"
    },
    {
      "constant": true,
      "inputs": [
        {
          "name": "_owner",
          "type": "address"
        },
        {
          "name": "_index",
          "type": "uint256"
        }
      ],
      "name": "tokenOfOwnerByIndex",
      "outputs": [
        {
          "name": "",
          "type": "uint256"
        }
      ],
      "payable": false,
      "stateMutability": "view",
      "type": "function"
    },
    {
      "constant": false,
      "inputs": [
        {
          "name": "_from",
          "type": "address"
        },
        {
          "name": "_to",
          "type": "address"
        },
        {
          "name": "_assetId",
          "type": "uint256"
        }
      ],
      "name": "safeTransferFrom",
      "outputs": [],
      "payable": false,
      "stateMutability": "nonpayable",
      "type": "function"
    },
    {
      "constant": true,
      "inputs": [
        {
          "name": "_index",
          "type": "uint256"
        }
      ],
      "name": "tokenByIndex",
      "outputs": [
        {
          "name": "",
          "type": "uint256"
        }
      ],
      "payable": false,
      "stateMutability": "view",
      "type": "function"
    },
    {
      "constant": true,
      "inputs": [
        {
          "name": "_assetId",
          "type": "uint256"
        }
      ],
      "name": "ownerOf",
      "outputs": [
        {
          "name": "",
          "type": "address"
        }
      ],
      "payable": false,
      "stateMutability": "view",
      "type": "function"
    },
    {
      "constant": true,
      "inputs": [],
      "name": "allTokens",
      "outputs": [
        {
          "name": "",
          "type": "uint256[]"
        }
      ],
      "payable": false,
      "stateMutability": "view",
      "type": "function"
    },
    {
      "constant": true,
      "inputs": [
        {
          "name": "_owner",
          "type": "address"
        }
      ],
      "name": "balanceOf",
      "outputs": [
        {
          "name": "",
          "type": "uint256"
        }
      ],
      "payable": false,
      "stateMutability": "view",
      "type": "function"
    },
    {
      "constant": true,
      "inputs": [
        {
          "name": "",
          "type": "address"
        }
      ],
      "name": "nonces",
      "outputs": [
        {
          "name": "",
          "type": "uint256"
        }
      ],
      "payable": false,
      "stateMutability": "view",
      "type": "function"
    },
    {
      "constant": true,
      "inputs": [],
      "name": "owner",
      "outputs": [
        {
          "name": "",
          "type": "address"
        }
      ],
      "payable": false,
      "stateMutability": "view",
      "type": "function"
    },
    {
      "constant": true,
      "inputs": [],
      "name": "symbol",
      "outputs": [
        {
          "name": "",
          "type": "string"
        }
      ],
      "payable": false,
      "stateMutability": "view",
      "type": "function"
    },
    {
      "constant": false,
      "inputs": [
        {
          "name": "_operator",
          "type": "address"
        },
        {
          "name": "_authorized",
          "type": "bool"
        }
      ],
      "name": "setApprovalForAll",
      "outputs": [],
      "payable": false,
      "stateMutability": "nonpayable",
      "type": "function"
    },
    {
      "constant": true,
      "inputs": [
        {
          "name": "",
          "type": "bytes32"
        }
      ],
      "name": "debts",
      "outputs": [
        {
          "name": "error",
          "type": "bool"
        },
        {
          "name": "balance",
          "type": "uint128"
        },
        {
          "name": "model",
          "type": "address"
        },
        {
          "name": "creator",
          "type": "address"
        },
        {
          "name": "oracle",
          "type": "address"
        }
      ],
      "payable": false,
      "stateMutability": "view",
      "type": "function"
    },
    {
      "constant": false,
      "inputs": [
        {
          "name": "_from",
          "type": "address"
        },
        {
          "name": "_to",
          "type": "address"
        },
        {
          "name": "_assetId",
          "type": "uint256"
        },
        {
          "name": "_userData",
          "type": "bytes"
        }
      ],
      "name": "safeTransferFrom",
      "outputs": [],
      "payable": false,
      "stateMutability": "nonpayable",
      "type": "function"
    },
    {
      "constant": true,
      "inputs": [
        {
          "name": "_tokenId",
          "type": "uint256"
        }
      ],
      "name": "tokenURI",
      "outputs": [
        {
          "name": "",
          "type": "string"
        }
      ],
      "payable": false,
      "stateMutability": "view",
      "type": "function"
    },
    {
      "constant": true,
      "inputs": [
        {
          "name": "_operator",
          "type": "address"
        },
        {
          "name": "_assetHolder",
          "type": "address"
        }
      ],
      "name": "isApprovedForAll",
      "outputs": [
        {
          "name": "",
          "type": "bool"
        }
      ],
      "payable": false,
      "stateMutability": "view",
      "type": "function"
    },
    {
      "constant": false,
      "inputs": [
        {
          "name": "_newOwner",
          "type": "address"
        }
      ],
      "name": "transferOwnership",
      "outputs": [],
      "payable": false,
      "stateMutability": "nonpayable",
      "type": "function"
    },
    {
      "constant": true,
      "inputs": [],
      "name": "token",
      "outputs": [
        {
          "name": "",
          "type": "address"
        }
      ],
      "payable": false,
      "stateMutability": "view",
      "type": "function"
    },
    {
      "inputs": [
        {
          "name": "_token",
          "type": "address"
        }
      ],
      "payable": false,
      "stateMutability": "nonpayable",
      "type": "constructor"
    },
    {
      "anonymous": false,
      "inputs": [
        {
          "indexed": true,
          "name": "_id",
          "type": "bytes32"
        },
        {
          "indexed": false,
          "name": "_nonce",
          "type": "uint256"
        },
        {
          "indexed": false,
          "name": "_data",
          "type": "bytes"
        }
      ],
      "name": "Created",
      "type": "event"
    },
    {
      "anonymous": false,
      "inputs": [
        {
          "indexed": true,
          "name": "_id",
          "type": "bytes32"
        },
        {
          "indexed": false,
          "name": "_salt",
          "type": "uint256"
        },
        {
          "indexed": false,
          "name": "_data",
          "type": "bytes"
        }
      ],
      "name": "Created2",
      "type": "event"
    },
    {
      "anonymous": false,
      "inputs": [
        {
          "indexed": true,
          "name": "_id",
          "type": "bytes32"
        },
        {
          "indexed": false,
          "name": "_salt",
          "type": "uint256"
        },
        {
          "indexed": false,
          "name": "_data",
          "type": "bytes"
        }
      ],
      "name": "Created3",
      "type": "event"
    },
    {
      "anonymous": false,
      "inputs": [
        {
          "indexed": true,
          "name": "_id",
          "type": "bytes32"
        },
        {
          "indexed": false,
          "name": "_sender",
          "type": "address"
        },
        {
          "indexed": false,
          "name": "_origin",
          "type": "address"
        },
        {
          "indexed": false,
          "name": "_requested",
          "type": "uint256"
        },
        {
          "indexed": false,
          "name": "_requestedTokens",
          "type": "uint256"
        },
        {
          "indexed": false,
          "name": "_paid",
          "type": "uint256"
        },
        {
          "indexed": false,
          "name": "_tokens",
          "type": "uint256"
        }
      ],
      "name": "Paid",
      "type": "event"
    },
    {
      "anonymous": false,
      "inputs": [
        {
          "indexed": false,
          "name": "_oracle",
          "type": "address"
        },
        {
          "indexed": false,
          "name": "_count",
          "type": "uint256"
        },
        {
          "indexed": false,
          "name": "_tokens",
          "type": "uint256"
        },
        {
          "indexed": false,
          "name": "_equivalent",
          "type": "uint256"
        }
      ],
      "name": "ReadedOracleBatch",
      "type": "event"
    },
    {
      "anonymous": false,
      "inputs": [
        {
          "indexed": true,
          "name": "_id",
          "type": "bytes32"
        },
        {
          "indexed": false,
          "name": "_tokens",
          "type": "uint256"
        },
        {
          "indexed": false,
          "name": "_equivalent",
          "type": "uint256"
        }
      ],
      "name": "ReadedOracle",
      "type": "event"
    },
    {
      "anonymous": false,
      "inputs": [
        {
          "indexed": true,
          "name": "_id",
          "type": "bytes32"
        },
        {
          "indexed": false,
          "name": "_targetOracle",
          "type": "address"
        }
      ],
      "name": "PayBatchError",
      "type": "event"
    },
    {
      "anonymous": false,
      "inputs": [
        {
          "indexed": true,
          "name": "_id",
          "type": "bytes32"
        },
        {
          "indexed": false,
          "name": "_sender",
          "type": "address"
        },
        {
          "indexed": false,
          "name": "_to",
          "type": "address"
        },
        {
          "indexed": false,
          "name": "_amount",
          "type": "uint256"
        }
      ],
      "name": "Withdrawn",
      "type": "event"
    },
    {
      "anonymous": false,
      "inputs": [
        {
          "indexed": true,
          "name": "_id",
          "type": "bytes32"
        },
        {
          "indexed": false,
          "name": "_sender",
          "type": "address"
        },
        {
          "indexed": false,
          "name": "_value",
          "type": "uint256"
        },
        {
          "indexed": false,
          "name": "_gasLeft",
          "type": "uint256"
        },
        {
          "indexed": false,
          "name": "_gasLimit",
          "type": "uint256"
        },
        {
          "indexed": false,
          "name": "_callData",
          "type": "bytes"
        }
      ],
      "name": "Error",
      "type": "event"
    },
    {
      "anonymous": false,
      "inputs": [
        {
          "indexed": true,
          "name": "_id",
          "type": "bytes32"
        },
        {
          "indexed": false,
          "name": "_sender",
          "type": "address"
        },
        {
          "indexed": false,
          "name": "_value",
          "type": "uint256"
        },
        {
          "indexed": false,
          "name": "_gasLeft",
          "type": "uint256"
        },
        {
          "indexed": false,
          "name": "_gasLimit",
          "type": "uint256"
        },
        {
          "indexed": false,
          "name": "_result",
          "type": "bytes32"
        },
        {
          "indexed": false,
          "name": "_callData",
          "type": "bytes"
        }
      ],
      "name": "ErrorRecover",
      "type": "event"
    },
    {
      "anonymous": false,
      "inputs": [
        {
          "indexed": true,
          "name": "_previousOwner",
          "type": "address"
        },
        {
          "indexed": true,
          "name": "_newOwner",
          "type": "address"
        }
      ],
      "name": "OwnershipTransferred",
      "type": "event"
    },
    {
      "anonymous": false,
      "inputs": [
        {
          "indexed": true,
          "name": "_from",
          "type": "address"
        },
        {
          "indexed": true,
          "name": "_to",
          "type": "address"
        },
        {
          "indexed": false,
          "name": "_tokenId",
          "type": "uint256"
        }
      ],
      "name": "Transfer",
      "type": "event"
    },
    {
      "anonymous": false,
      "inputs": [
        {
          "indexed": true,
          "name": "_owner",
          "type": "address"
        },
        {
          "indexed": true,
          "name": "_approved",
          "type": "address"
        },
        {
          "indexed": false,
          "name": "_tokenId",
          "type": "uint256"
        }
      ],
      "name": "Approval",
      "type": "event"
    },
    {
      "anonymous": false,
      "inputs": [
        {
          "indexed": true,
          "name": "_owner",
          "type": "address"
        },
        {
          "indexed": true,
          "name": "_operator",
          "type": "address"
        },
        {
          "indexed": false,
          "name": "_approved",
          "type": "bool"
        }
      ],
      "name": "ApprovalForAll",
      "type": "event"
    },
    {
      "anonymous": false,
      "inputs": [
        {
          "indexed": false,
          "name": "_uriProvider",
          "type": "address"
        }
      ],
      "name": "SetURIProvider",
      "type": "event"
    },
    {
      "constant": false,
      "inputs": [
        {
          "name": "_provider",
          "type": "address"
        }
      ],
      "name": "setURIProvider",
      "outputs": [],
      "payable": false,
      "stateMutability": "nonpayable",
      "type": "function"
    },
    {
      "constant": false,
      "inputs": [
        {
          "name": "_model",
          "type": "address"
        },
        {
          "name": "_owner",
          "type": "address"
        },
        {
          "name": "_oracle",
          "type": "address"
        },
        {
          "name": "_data",
          "type": "bytes"
        }
      ],
      "name": "create",
      "outputs": [
        {
          "name": "id",
          "type": "bytes32"
        }
      ],
      "payable": false,
      "stateMutability": "nonpayable",
      "type": "function"
    },
    {
      "constant": false,
      "inputs": [
        {
          "name": "_model",
          "type": "address"
        },
        {
          "name": "_owner",
          "type": "address"
        },
        {
          "name": "_oracle",
          "type": "address"
        },
        {
          "name": "_salt",
          "type": "uint256"
        },
        {
          "name": "_data",
          "type": "bytes"
        }
      ],
      "name": "create2",
      "outputs": [
        {
          "name": "id",
          "type": "bytes32"
        }
      ],
      "payable": false,
      "stateMutability": "nonpayable",
      "type": "function"
    },
    {
      "constant": false,
      "inputs": [
        {
          "name": "_model",
          "type": "address"
        },
        {
          "name": "_owner",
          "type": "address"
        },
        {
          "name": "_oracle",
          "type": "address"
        },
        {
          "name": "_salt",
          "type": "uint256"
        },
        {
          "name": "_data",
          "type": "bytes"
        }
      ],
      "name": "create3",
      "outputs": [
        {
          "name": "id",
          "type": "bytes32"
        }
      ],
      "payable": false,
      "stateMutability": "nonpayable",
      "type": "function"
    },
    {
      "constant": true,
      "inputs": [
        {
          "name": "_creator",
          "type": "address"
        },
        {
          "name": "_nonce",
          "type": "uint256"
        }
      ],
      "name": "buildId",
      "outputs": [
        {
          "name": "",
          "type": "bytes32"
        }
      ],
      "payable": false,
      "stateMutability": "view",
      "type": "function"
    },
    {
      "constant": true,
      "inputs": [
        {
          "name": "_creator",
          "type": "address"
        },
        {
          "name": "_model",
          "type": "address"
        },
        {
          "name": "_oracle",
          "type": "address"
        },
        {
          "name": "_salt",
          "type": "uint256"
        },
        {
          "name": "_data",
          "type": "bytes"
        }
      ],
      "name": "buildId2",
      "outputs": [
        {
          "name": "",
          "type": "bytes32"
        }
      ],
      "payable": false,
      "stateMutability": "view",
      "type": "function"
    },
    {
      "constant": true,
      "inputs": [
        {
          "name": "_creator",
          "type": "address"
        },
        {
          "name": "_salt",
          "type": "uint256"
        }
      ],
      "name": "buildId3",
      "outputs": [
        {
          "name": "",
          "type": "bytes32"
        }
      ],
      "payable": false,
      "stateMutability": "view",
      "type": "function"
    },
    {
      "constant": false,
      "inputs": [
        {
          "name": "_id",
          "type": "bytes32"
        },
        {
          "name": "_amount",
          "type": "uint256"
        },
        {
          "name": "_origin",
          "type": "address"
        },
        {
          "name": "_oracleData",
          "type": "bytes"
        }
      ],
      "name": "pay",
      "outputs": [
        {
          "name": "paid",
          "type": "uint256"
        },
        {
          "name": "paidToken",
          "type": "uint256"
        }
      ],
      "payable": false,
      "stateMutability": "nonpayable",
      "type": "function"
    },
    {
      "constant": false,
      "inputs": [
        {
          "name": "id",
          "type": "bytes32"
        },
        {
          "name": "amount",
          "type": "uint256"
        },
        {
          "name": "origin",
          "type": "address"
        },
        {
          "name": "oracleData",
          "type": "bytes"
        }
      ],
      "name": "payToken",
      "outputs": [
        {
          "name": "paid",
          "type": "uint256"
        },
        {
          "name": "paidToken",
          "type": "uint256"
        }
      ],
      "payable": false,
      "stateMutability": "nonpayable",
      "type": "function"
    },
    {
      "constant": false,
      "inputs": [
        {
          "name": "_ids",
          "type": "bytes32[]"
        },
        {
          "name": "_amounts",
          "type": "uint256[]"
        },
        {
          "name": "_origin",
          "type": "address"
        },
        {
          "name": "_oracle",
          "type": "address"
        },
        {
          "name": "_oracleData",
          "type": "bytes"
        }
      ],
      "name": "payBatch",
      "outputs": [
        {
          "name": "paid",
          "type": "uint256[]"
        },
        {
          "name": "paidTokens",
          "type": "uint256[]"
        }
      ],
      "payable": false,
      "stateMutability": "nonpayable",
      "type": "function"
    },
    {
      "constant": false,
      "inputs": [
        {
          "name": "_ids",
          "type": "bytes32[]"
        },
        {
          "name": "_tokenAmounts",
          "type": "uint256[]"
        },
        {
          "name": "_origin",
          "type": "address"
        },
        {
          "name": "_oracle",
          "type": "address"
        },
        {
          "name": "_oracleData",
          "type": "bytes"
        }
      ],
      "name": "payTokenBatch",
      "outputs": [
        {
          "name": "paid",
          "type": "uint256[]"
        },
        {
          "name": "paidTokens",
          "type": "uint256[]"
        }
      ],
      "payable": false,
      "stateMutability": "nonpayable",
      "type": "function"
    },
    {
      "constant": false,
      "inputs": [
        {
          "name": "_id",
          "type": "bytes32"
        }
      ],
      "name": "run",
      "outputs": [
        {
          "name": "",
          "type": "bool"
        }
      ],
      "payable": false,
      "stateMutability": "nonpayable",
      "type": "function"
    },
    {
      "constant": false,
      "inputs": [
        {
          "name": "_id",
          "type": "bytes32"
        },
        {
          "name": "_to",
          "type": "address"
        }
      ],
      "name": "withdraw",
      "outputs": [
        {
          "name": "amount",
          "type": "uint256"
        }
      ],
      "payable": false,
      "stateMutability": "nonpayable",
      "type": "function"
    },
    {
      "constant": false,
      "inputs": [
        {
          "name": "_id",
          "type": "bytes32"
        },
        {
          "name": "_to",
          "type": "address"
        },
        {
          "name": "_amount",
          "type": "uint256"
        }
      ],
      "name": "withdrawPartial",
      "outputs": [
        {
          "name": "success",
          "type": "bool"
        }
      ],
      "payable": false,
      "stateMutability": "nonpayable",
      "type": "function"
    },
    {
      "constant": false,
      "inputs": [
        {
          "name": "_ids",
          "type": "bytes32[]"
        },
        {
          "name": "_to",
          "type": "address"
        }
      ],
      "name": "withdrawBatch",
      "outputs": [
        {
          "name": "total",
          "type": "uint256"
        }
      ],
      "payable": false,
      "stateMutability": "nonpayable",
      "type": "function"
    },
    {
      "constant": true,
      "inputs": [
        {
          "name": "_id",
          "type": "bytes32"
        }
      ],
      "name": "getStatus",
      "outputs": [
        {
          "name": "",
          "type": "uint256"
        }
      ],
      "payable": false,
      "stateMutability": "view",
      "type": "function"
    }
  ],
  "bytecode": "0x60806040523480156200001157600080fd5b5060405160208062004dd5833981018060405260208110156200003357600080fd5b5051604080518082018252600f81527f52434e2044656274205265636f726400000000000000000000000000000000006020828101919091528251808401909352600383527f524452000000000000000000000000000000000000000000000000000000000083820152909190620000d1907f01ffc9a700000000000000000000000000000000000000000000000000000000906200022f811b901c565b8151620000e690600690602085019062000304565b508051620000fc90600790602084019062000304565b50620001156380ac58cd60e01b6200022f60201b60201c565b6200012d635b5e139f60e01b6200022f60201b60201c565b6200014563780e9d6360e01b6200022f60201b60201c565b5050600a80546001600160a01b031916339081179091556040516000907f8be0079c531659141344cd1fd0a4f28419497f9722a3daafe3b4186f6b6457e0908290a3600b80546001600160a01b0319166001600160a01b038316908117909155620001bc90620002fe602090811b6200487e17901c565b6200022857604080517f08c379a000000000000000000000000000000000000000000000000000000000815260206004820152601a60248201527f546f6b656e2073686f756c64206265206120636f6e7472616374000000000000604482015290519081900360640190fd5b50620003a9565b7fffffffff000000000000000000000000000000000000000000000000000000008082161415620002c157604080517f08c379a000000000000000000000000000000000000000000000000000000000815260206004820152601960248201527f43616e2774207265676973746572203078666666666666666600000000000000604482015290519081900360640190fd5b7fffffffff00000000000000000000000000000000000000000000000000000000166000908152602081905260409020805460ff19166001179055565b3b151590565b828054600181600116156101000203166002900490600052602060002090601f016020900481019282601f106200034757805160ff191683800117855562000377565b8280016001018555821562000377579182015b82811115620003775782518255916020019190600101906200035a565b506200038592915062000389565b5090565b620003a691905b8082111562000385576000815560010162000390565b90565b614a1c80620003b96000396000f3fe608060405234801561001057600080fd5b50600436106102485760003560e01c806370a082311161013b578063c87b56dd116100b8578063f12e5eaa1161007c578063f12e5eaa14610d76578063f163763014610da8578063f2fde38b14610e1f578063f57ae7b914610e45578063fc0c546a14610edb57610248565b8063c87b56dd14610bc1578063d2d791c014610bde578063db2c551814610d05578063e985e9c514610d2b578063ef6ac0f014610d5957610248565b8063a22cb465116100ff578063a22cb465146109e5578063a9caa41114610a13578063adc51d4214610a71578063b88d4fde14610b07578063bb1dfeca14610b9557610248565b806370a08231146108ff5780637c1716af146109255780637ecebe00146109af5780638da5cb5b146109d557806395d89b41146109dd57610248565b80632ed04265116101c95780634f6ccce71161018d5780634f6ccce7146108115780635de28ae01461082e5780636352211e1461084b578063649b2b95146108685780636ff97f1d146108f757610248565b80632ed042651461052d5780632f745c59146105c357806342842e0e146105ef57806347ff6d7b146106255780634d9c1bf31461065157610248565b806318160ddd1161021057806318160ddd1461040f5780631b258d501461042957806323b872dd146104555780632972b0f01461048b5780632c62fa10146104b757610248565b806301ffc9a71461024d57806306fdde0314610288578063081812fc14610305578063095ea7b31461033e578063114f95111461036c575b600080fd5b6102746004803603602081101561026357600080fd5b50356001600160e01b031916610ee3565b604080519115158252519081900360200190f35b610290610f06565b6040805160208082528351818301528351919283929083019185019080838360005b838110156102ca5781810151838201526020016102b2565b50505050905090810190601f1680156102f75780820380516001836020036101000a031916815260200191505b509250505060405180910390f35b6103226004803603602081101561031b57600080fd5b5035610f9d565b604080516001600160a01b039092168252519081900360200190f35b61036a6004803603604081101561035457600080fd5b506001600160a01b038135169060200135610fae565b005b6103f66004803603608081101561038257600080fd5b8135916020810135916001600160a01b036040830135169190810190608081016060820135600160201b8111156103b857600080fd5b8201836020820111156103ca57600080fd5b803590602001918460018302840111600160201b831117156103eb57600080fd5b5090925090506110b6565b6040805192835260208301919091528051918290030190f35b610417611403565b60408051918252519081900360200190f35b6104176004803603604081101561043f57600080fd5b50803590602001356001600160a01b0316611409565b61036a6004803603606081101561046b57600080fd5b506001600160a01b03813581169160208101359091169060400135611616565b610274600480360360408110156104a157600080fd5b506001600160a01b038135169060200135611633565b6104dd600480360360208110156104cd57600080fd5b50356001600160a01b0316611646565b60408051602080825283518183015283519192839290830191858101910280838360005b83811015610519578181015183820152602001610501565b505050509050019250505060405180910390f35b610417600480360360a081101561054357600080fd5b6001600160a01b03823581169260208101358216926040820135909216916060820135919081019060a081016080820135600160201b81111561058557600080fd5b82018360208201111561059757600080fd5b803590602001918460018302840111600160201b831117156105b857600080fd5b5090925090506116b2565b610417600480360360408110156105d957600080fd5b506001600160a01b0381351690602001356119f0565b61036a6004803603606081101561060557600080fd5b506001600160a01b03813581169160208101359091169060400135611ae6565b6104176004803603604081101561063b57600080fd5b506001600160a01b038135169060200135611b03565b610778600480360360a081101561066757600080fd5b810190602081018135600160201b81111561068157600080fd5b82018360208201111561069357600080fd5b803590602001918460208302840111600160201b831117156106b457600080fd5b919390929091602081019035600160201b8111156106d157600080fd5b8201836020820111156106e357600080fd5b803590602001918460208302840111600160201b8311171561070457600080fd5b919390926001600160a01b0383358116936020810135909116929190606081019060400135600160201b81111561073a57600080fd5b82018360208201111561074c57600080fd5b803590602001918460018302840111600160201b8311171561076d57600080fd5b509092509050611b54565b604051808060200180602001838103835285818151815260200191508051906020019060200280838360005b838110156107bc5781810151838201526020016107a4565b50505050905001838103825284818151815260200191508051906020019060200280838360005b838110156107fb5781810151838201526020016107e3565b5050505090500194505050505060405180910390f35b6104176004803603602081101561082757600080fd5b5035611ece565b6104176004803603602081101561084457600080fd5b5035611f49565b6103226004803603602081101561086157600080fd5b5035611fe2565b6104176004803603608081101561087e57600080fd5b6001600160a01b0382358116926020810135821692604082013590921691810190608081016060820135600160201b8111156108b957600080fd5b8201836020820111156108cb57600080fd5b803590602001918460018302840111600160201b831117156108ec57600080fd5b509092509050611fed565b6104dd612278565b6104176004803603602081101561091557600080fd5b50356001600160a01b03166122cf565b6103f66004803603608081101561093b57600080fd5b8135916020810135916001600160a01b036040830135169190810190608081016060820135600160201b81111561097157600080fd5b82018360208201111561098357600080fd5b803590602001918460018302840111600160201b831117156109a457600080fd5b5090925090506122da565b610417600480360360208110156109c557600080fd5b50356001600160a01b03166126b9565b6103226126cb565b6102906126da565b61036a600480360360408110156109fb57600080fd5b506001600160a01b038135169060200135151561273b565b610a3060048036036020811015610a2957600080fd5b50356127db565b6040805195151586526001600160801b0390941660208601526001600160a01b03928316858501529082166060850152166080830152519081900360a00190f35b610417600480360360a0811015610a8757600080fd5b6001600160a01b03823581169260208101358216926040820135909216916060820135919081019060a081016080820135600160201b811115610ac957600080fd5b820183602082011115610adb57600080fd5b803590602001918460018302840111600160201b83111715610afc57600080fd5b509092509050612824565b61036a60048036036080811015610b1d57600080fd5b6001600160a01b03823581169260208101359091169160408201359190810190608081016060820135600160201b811115610b5757600080fd5b820183602082011115610b6957600080fd5b803590602001918460018302840111600160201b83111715610b8a57600080fd5b509092509050612aa0565b61041760048036036040811015610bab57600080fd5b506001600160a01b038135169060200135612aec565b61029060048036036020811015610bd757600080fd5b5035612b40565b610778600480360360a0811015610bf457600080fd5b810190602081018135600160201b811115610c0e57600080fd5b820183602082011115610c2057600080fd5b803590602001918460208302840111600160201b83111715610c4157600080fd5b919390929091602081019035600160201b811115610c5e57600080fd5b820183602082011115610c7057600080fd5b803590602001918460208302840111600160201b83111715610c9157600080fd5b919390926001600160a01b0383358116936020810135909116929190606081019060400135600160201b811115610cc757600080fd5b820183602082011115610cd957600080fd5b803590602001918460018302840111600160201b83111715610cfa57600080fd5b509092509050612ca9565b61036a60048036036020811015610d1b57600080fd5b50356001600160a01b0316612f7a565b61027460048036036040811015610d4157600080fd5b506001600160a01b0381358116916020013516612fe5565b61027460048036036020811015610d6f57600080fd5b5035612ff1565b61027460048036036060811015610d8c57600080fd5b508035906001600160a01b03602082013516906040013561322b565b61041760048036036040811015610dbe57600080fd5b810190602081018135600160201b811115610dd857600080fd5b820183602082011115610dea57600080fd5b803590602001918460208302840111600160201b83111715610e0b57600080fd5b9193509150356001600160a01b03166134be565b61036a60048036036020811015610e3557600080fd5b50356001600160a01b03166136b6565b610417600480360360a0811015610e5b57600080fd5b6001600160a01b03823581169260208101358216926040820135909216916060820135919081019060a081016080820135600160201b811115610e9d57600080fd5b820183602082011115610eaf57600080fd5b803590602001918460018302840111600160201b83111715610ed057600080fd5b5090925090506137d2565b610322613867565b6001600160e01b0319811660009081526020819052604090205460ff165b919050565b60068054604080516020601f6002600019610100600188161502019095169490940493840181900481028201810190925282815260609390929091830182828015610f925780601f10610f6757610100808354040283529160200191610f92565b820191906000526020600020905b815481529060010190602001808311610f7557829003601f168201915b505050505090505b90565b6000610fa882613876565b92915050565b6000610fb982613891565b9050336001600160a01b0382161480610fd75750610fd733826138ac565b61102b5760408051600160e51b62461bcd02815260206004820152601860248201527f6d73672e73656e6465722063616e277420617070726f76650000000000000000604482015290519081900360640190fd5b826001600160a01b031661103e83613876565b6001600160a01b0316146110b15760008281526005602090815260409182902080546001600160a01b0319166001600160a01b03878116918217909255835186815293519093918516927f8c5be1e5ebec7d5bd14f71427d1e84f3dd0314c0f7b2291e5b200ac8c7c3b925928290030190a35b505050565b6000858152600c6020526040812060018101548291906110e19089906001600160a01b0316896138db565b92508683111561112557604051600160e51b62461bcd0281526004018080602001828103825260218152602001806149836021913960400191505060405180910390fd5b60038101546001600160a01b0316801561123657600080826001600160a01b031663b077c09b89896040518363ffffffff1660e01b815260040180806020018281038252848482818152602001925080828437600081840152601f19601f82011690508083019250505093505050506040805180830381600087803b1580156111ad57600080fd5b505af11580156111c1573d6000803e3d6000fd5b505050506040513d60408110156111d757600080fd5b5080516020918201516040805183815293840182905280519295509093508d927f686ef5859f39efd8bf5a57659ca5b60fe18f984d435a0b7418f18bcbe2d349d6929081900390910190a261122d868383613b24565b9450505061123a565b8392505b600b5460408051600160e01b6323b872dd0281523360048201523060248201526044810186905290516001600160a01b03909216916323b872dd916064808201926020929091908290030181600087803b15801561129757600080fd5b505af11580156112ab573d6000803e3d6000fd5b505050506040513d60208110156112c157600080fd5b50516113175760408051600160e51b62461bcd02815260206004820152601c60248201527f4572726f722070756c6c696e67207061796d656e7420746f6b656e7300000000604482015290519081900360640190fd5b815460009061133590859061010090046001600160801b0316613bc9565b9050600160801b81106113885760408051600160e51b62461bcd0281526020600482015260106024820152600160801b6f75696e74313238204f766572666c6f7702604482015290519081900360640190fd5b82546001600160801b03821661010002610100600160881b0319909116178355604080513381526001600160a01b038a1660208201528082018b9052600060608201526080810187905260a0810186905290518b916000805160206149d1833981519152919081900360c00190a25050509550959350505050565b60095490565b60006001600160a01b0382166114645760408051600160e51b62461bcd02815260206004820152601560248201526001605c1b7405f746f2073686f756c64206e6f74206265203078302604482015290519081900360640190fd5b61146e3384613c26565b6114c25760408051600160e51b62461bcd02815260206004820152601560248201527f53656e646572206e6f7420617574686f72697a65640000000000000000000000604482015290519081900360640190fd5b506000828152600c602090815260408083208054610100600160881b031981168255600b548351600160e01b63a9059cbb0281526001600160a01b0388811660048301526101009093046001600160801b031660248201819052945194969395929091169363a9059cbb93604480840194938390030190829087803b15801561154a57600080fd5b505af115801561155e573d6000803e3d6000fd5b505050506040513d602081101561157457600080fd5b50516115c45760408051600160e51b62461bcd0281526020600482015260146024820152600160601b734572726f722073656e64696e6720746f6b656e7302604482015290519081900360640190fd5b604080513381526001600160a01b0385166020820152808201849052905185917fa6786aab7dbbc48b4b0387488b407bd81448030ab207b50bea7dbb5fbc1cd9eb919081900360600190a25092915050565b6110b1838383604051806020016040528060008152506000613ce4565b600061163f8383613c26565b9392505050565b6001600160a01b0381166000908152600260209081526040918290208054835181840281018401909452808452606093928301828280156116a657602002820191906000526020600020905b815481526020019060010190808311611692575b50505050509050919050565b604051600160f91b6020820190815230606081811b60218501523380821b60358601526001600160a01b03808c16831b6049870152891690911b605d850152607184018790526000936002938b918a918a918a918a9160910183838082843780830192505050985050505050505050506040516020818303038152906040528051906020012090506040518060a0016040528060001515815260200160006001600160801b03168152602001886001600160a01b03168152602001336001600160a01b03168152602001866001600160a01b0316815250600c600083815260200190815260200160002060008201518160000160006101000a81548160ff02191690831515021790555060208201518160000160016101000a8154816001600160801b0302191690836001600160801b0316021790555060408201518160010160006101000a8154816001600160a01b0302191690836001600160a01b0316021790555060608201518160020160006101000a8154816001600160a01b0302191690836001600160a01b0316021790555060808201518160030160006101000a8154816001600160a01b0302191690836001600160a01b031602179055509050506118808160001c8761411e565b60408051600160e41b6305b37e150281526004810183815260248201928352604482018590526001600160a01b038a1692635b37e15092859288928892606401848480828437600081840152601f19601f820116905080830192505050945050505050602060405180830381600087803b1580156118fd57600080fd5b505af1158015611911573d6000803e3d6000fd5b505050506040513d602081101561192757600080fd5b505161197d5760408051600160e51b62461bcd02815260206004820152601c60248201527f4572726f72206372656174696e67206465627420696e206d6f64656c00000000604482015290519081900360640190fd5b807f4ee48d90c05f58fc51a05728e403947a51e36cc7a1bf4d82260473b43353840885858560405180848152602001806020018281038252848482818152602001925080828437600083820152604051601f909101601f1916909201829003965090945050505050a29695505050505050565b60006001600160a01b038316611a505760408051600160e51b62461bcd02815260206004820152601860248201527f307830204973206e6f7420612076616c6964206f776e65720000000000000000604482015290519081900360640190fd5b611a59836141da565b8210611aaf5760408051600160e51b62461bcd02815260206004820152601360248201527f496e646578206f7574206f6620626f756e647300000000000000000000000000604482015290519081900360640190fd5b6001600160a01b0383166000908152600260205260409020805483908110611ad357fe5b9060005260206000200154905092915050565b6110b1838383604051806020016040528060008152506001613ce4565b60408051600160f81b60208083019190915230606090811b60218401526001600160a01b039590951690941b6035820152604980820193909352815180820390930183526069019052805191012090565b60608088878114611b9957604051600160e51b62461bcd02815260040180806020018281038252602d8152602001806149a4602d913960400191505060405180910390fd5b6000806001600160a01b03881615611ca857604051600160e01b63b077c09b028152602060048201908152602482018890526001600160a01b038a169163b077c09b918a918a91908190604401848480828437600081840152601f19601f82011690508083019250505093505050506040805180830381600087803b158015611c2157600080fd5b505af1158015611c35573d6000803e3d6000fd5b505050506040513d6040811015611c4b57600080fd5b508051602091820151604080516001600160a01b038d168152938401879052838101839052606084018290525191945092507f79601cc1ca8f1ff7c3e7f7b522c2f1377cdb4c318a131afaf426cb2c976ef4be9181900360800190a15b82604051908082528060200260200182016040528015611cd2578160200160208202803883390190505b50945082604051908082528060200260200182016040528015611cff578160200160208202803883390190505b50935060005b83811015611ebd5760008c8c83818110611d1b57fe5b905060200201359050611d6e8f8f84818110611d3357fe5b905060200201358b60006001600160a01b03168d6001600160a01b03161415611d5c5783611d67565b611d678488886141f5565b878761426d565b888481518110611d7a57fe5b60200260200101888581518110611d8d57fe5b602002602001018281525082815250505080868381518110611dab57fe5b60200260200101511115611e095760408051600160e51b62461bcd02815260206004820152601b60248201527f506169642063616e277420657863656564207265717565737465640000000000604482015290519081900360640190fd5b8e8e83818110611e1557fe5b905060200201356000805160206149d1833981519152338d6000858c8881518110611e3c57fe5b60200260200101518c8981518110611e5057fe5b602002602001015160405180876001600160a01b03166001600160a01b03168152602001866001600160a01b03166001600160a01b03168152602001858152602001848152602001838152602001828152602001965050505050505060405180910390a250600101611d05565b505050509850989650505050505050565b6009546000908210611f2a5760408051600160e51b62461bcd02815260206004820152601360248201527f496e646578206f7574206f6620626f756e647300000000000000000000000000604482015290519081900360640190fd5b60098281548110611f3757fe5b90600052602060002001549050919050565b6000818152600c60205260408120805460ff1615611f6b576004915050610f01565b60018101546040805160248082018790528251808303909101815260449091019091526020810180516001600160e01b0316600160e51b6302ef1457021790526000918291611fc3916001600160a01b0316906144db565b9150915081600114611fd6576004611fd8565b805b9350505050610f01565b6000610fa882613891565b336000818152600d60209081526040808320805460018082019092558251600160f81b8186015230606090811b602183015287901b60358201526049808201839052845180830390910181526069820180865281519187019190912061010983018652878252608983018881526001600160a01b038f811660a9860190815260c986019b8c528e821660e9909601958652838b52600c909952969098209151825498516001600160801b031661010002610100600160881b031991151560ff19909a169990991716979097178155945192850180549385166001600160a01b0319948516179055955160028501805491851691841691909117905594516003909301805493909216921691909117905590612108828761411e565b60408051600160e41b6305b37e150281526004810184815260248201928352604482018690526001600160a01b038a1692635b37e15092869289928992606401848480828437600081840152601f19601f820116905080830192505050945050505050602060405180830381600087803b15801561218557600080fd5b505af1158015612199573d6000803e3d6000fd5b505050506040513d60208110156121af57600080fd5b50516122055760408051600160e51b62461bcd02815260206004820152601c60248201527f4572726f72206372656174696e67206465627420696e206d6f64656c00000000604482015290519081900360640190fd5b817fc9310bea14cefb8c6d9a8fce4ead7f6825a31223af9d0bde2a30b2d0c71ccbf382868660405180848152602001806020018281038252848482818152602001925080828437600083820152604051601f909101601f1916909201829003965090945050505050a25095945050505050565b60606009805480602002602001604051908101604052809291908181526020018280548015610f9257602002820191906000526020600020905b8154815260200190600101908083116122b2575050505050905090565b6000610fa8826141da565b6000858152600c6020526040812060038101548291906001600160a01b031682808083156123fd57604051600160e01b63b077c09b028152602060048201908152602482018a90526001600160a01b0386169163b077c09b918c918c91908190604401848480828437600081840152601f19601f82011690508083019250505093505050506040805180830381600087803b15801561237857600080fd5b505af115801561238c573d6000803e3d6000fd5b505050506040513d60408110156123a257600080fd5b5080516020918201516040805183815293840182905280519196509194508e927f686ef5859f39efd8bf5a57659ca5b60fe18f984d435a0b7418f18bcbe2d349d692908290030190a26123f68b83856141f5565b9050612400565b50895b600185015461241a908d906001600160a01b0316836138db565b9650808711156124745760408051600160e51b62461bcd02815260206004820152601b60248201527f506169642063616e27742065786365656420617661696c61626c650000000000604482015290519081900360640190fd5b6001600160a01b038416156124ed5761248e878385613b24565b95508a8611156124e85760408051600160e51b62461bcd02815260206004820152601b60248201527f506169642063616e277420657863656564207265717565737465640000000000604482015290519081900360640190fd5b6124f1565b8695505b600b5460408051600160e01b6323b872dd0281523360048201523060248201526044810189905290516001600160a01b03909216916323b872dd916064808201926020929091908290030181600087803b15801561254e57600080fd5b505af1158015612562573d6000803e3d6000fd5b505050506040513d602081101561257857600080fd5b50516125ce5760408051600160e51b62461bcd02815260206004820152601460248201527f4572726f722070756c6c696e6720746f6b656e73000000000000000000000000604482015290519081900360640190fd5b84546125e990879061010090046001600160801b0316613bc9565b9050600160801b811061263c5760408051600160e51b62461bcd0281526020600482015260106024820152600160801b6f75696e74313238204f766572666c6f7702604482015290519081900360640190fd5b84546001600160801b03821661010002610100600160881b0319909116178555604080513381526001600160a01b038c166020820152600081830152606081018d90526080810189905260a0810188905290518d916000805160206149d1833981519152919081900360c00190a250505050509550959350505050565b600d6020526000908152604090205481565b600a546001600160a01b031690565b60078054604080516020601f6002600019610100600188161502019095169490940493840181900481028201810190925282815260609390929091830182828015610f925780601f10610f6757610100808354040283529160200191610f92565b3360009081526004602090815260408083206001600160a01b038616845290915290205460ff161515811515146127d7573360008181526004602090815260408083206001600160a01b03871680855290835292819020805460ff1916861515908117909155815190815290519293927f17307eab39ab6107e8899845ad3d59bd9653f200f220920489ca2b5937696c31929181900390910190a35b5050565b600c60205260009081526040902080546001820154600283015460039093015460ff8316936101009093046001600160801b0316926001600160a01b0392831692908116911685565b60408051600160f81b60030260208083019190915230606090811b6021840152339081901b603584015260498084018890528451808503909101815260698401808652815191840191909120610109850186526000808352608986018181526001600160a01b038e811660a9890190815260c989019687528d821660e9909901988952848452600c909752979091209251835491516001600160801b031661010002610100600160881b031991151560ff19909316929092171617825592516001820180549187166001600160a01b031992831617905591516002820180549187169184169190911790559251600393909301805493909416921691909117909155612930818761411e565b60408051600160e41b6305b37e150281526004810183815260248201928352604482018590526001600160a01b038a1692635b37e15092859288928892606401848480828437600081840152601f19601f820116905080830192505050945050505050602060405180830381600087803b1580156129ad57600080fd5b505af11580156129c1573d6000803e3d6000fd5b505050506040513d60208110156129d757600080fd5b5051612a2d5760408051600160e51b62461bcd02815260206004820152601c60248201527f4572726f72206372656174696e67206465627420696e206d6f64656c00000000604482015290519081900360640190fd5b807fc46d3d245e649272659dd5731879c1b019caccb00acb3a94488a28c82ef924a685858560405180848152602001806020018281038252848482818152602001925080828437600083820152604051601f909101601f1916909201829003965090945050505050a29695505050505050565b612ae585858585858080601f01602080910402602001604051908101604052809392919081815260200183838082843760009201919091525060019250613ce4915050565b5050505050565b60408051600160f81b60030260208083019190915230606090811b60218401526001600160a01b039590951690941b6035820152604980820193909352815180820390930183526069019052805191012090565b6000818152600160205260409020546060906001600160a01b0316612baf5760408051600160e51b62461bcd02815260206004820152601460248201527f417373657420646f6573206e6f74206578697374000000000000000000000000604482015290519081900360640190fd5b6008546001600160a01b03168015612c9257806001600160a01b031663c87b56dd846040518263ffffffff1660e01b81526004018082815260200191505060006040518083038186803b158015612c0557600080fd5b505afa158015612c19573d6000803e3d6000fd5b505050506040513d6000823e601f3d908101601f191682016040526020811015612c4257600080fd5b810190808051600160201b811115612c5957600080fd5b82016020810184811115612c6c57600080fd5b8151600160201b811182820187101715612c8557600080fd5b505092919050505061163f565b604051806020016040528060008152509392505050565b60608088878114612cee57604051600160e51b62461bcd02815260040180806020018281038252602d8152602001806149a4602d913960400191505060405180910390fd5b6000806001600160a01b03881615612dfd57604051600160e01b63b077c09b028152602060048201908152602482018890526001600160a01b038a169163b077c09b918a918a91908190604401848480828437600081840152601f19601f82011690508083019250505093505050506040805180830381600087803b158015612d7657600080fd5b505af1158015612d8a573d6000803e3d6000fd5b505050506040513d6040811015612da057600080fd5b508051602091820151604080516001600160a01b038d168152938401879052838101839052606084018290525191945092507f79601cc1ca8f1ff7c3e7f7b522c2f1377cdb4c318a131afaf426cb2c976ef4be9181900360800190a15b82604051908082528060200260200182016040528015612e27578160200160208202803883390190505b50945082604051908082528060200260200182016040528015612e54578160200160208202803883390190505b50935060005b83811015611ebd5760008c8c83818110612e7057fe5b905060200201359050612e988f8f84818110612e8857fe5b905060200201358b83878761426d565b888481518110612ea457fe5b60200260200101888581518110612eb757fe5b6020908102919091010191909152528e8e83818110612ed257fe5b905060200201356000805160206149d1833981519152338d8460008c8881518110612ef957fe5b60200260200101518c8981518110612f0d57fe5b602002602001015160405180876001600160a01b03166001600160a01b03168152602001866001600160a01b03166001600160a01b03168152602001858152602001848152602001838152602001828152602001965050505050505060405180910390a250600101612e5a565b600a546001600160a01b03163314612fdc5760408051600160e51b62461bcd02815260206004820152601e60248201527f546865206f776e65722073686f756c64206265207468652073656e6465720000604482015290519081900360640190fd5b6127d781614513565b600061163f83836138ac565b6000818152600c6020526040812060018101546001600160a01b03166130615760408051600160e51b62461bcd02815260206004820152601360248201527f4465627420646f6573206e6f7420657869737400000000000000000000000000604482015290519081900360640190fd5b60018101546040805160248082018790528251808303909101815260449091019091526020810180516001600160e01b0316600160e41b630ef6ac0f0217905260009182916130b9916001600160a01b031690614578565b91509150816001141561318357825460ff161561317657847fa43b78c6d135806f3e817a90a7b690c0d2d94b7d2e356049fa5ba357c0fab9c33360005a458660003660405180886001600160a01b03166001600160a01b03168152602001878152602001868152602001858152602001848152602001806020018281038252848482818152602001925080828437600083820152604051601f909101601f19169092018290039a509098505050505050505050a2825460ff191683555b6001149250610f01915050565b847fe000ee8a04c9b1ff738cb5c90d6a362bf5be3c83b1eb221377df6324747d4c073360005a4560003660405180876001600160a01b03166001600160a01b03168152602001868152602001858152602001848152602001806020018281038252848482818152602001925080828437600083820152604051601f909101601f1916909201829003995090975050505050505050a2825460ff19166001178355505050919050565b60006001600160a01b0383166132865760408051600160e51b62461bcd02815260206004820152601560248201526001605c1b7405f746f2073686f756c64206e6f74206265203078302604482015290519081900360640190fd5b6132903385613c26565b6132e45760408051600160e51b62461bcd02815260206004820152601560248201527f53656e646572206e6f7420617574686f72697a65640000000000000000000000604482015290519081900360640190fd5b6000848152600c60205260409020805461010090046001600160801b03168311156133595760408051600160e51b62461bcd02815260206004820152601b60248201527f446562742062616c616e6365206973206e6f7420656e6f756768740000000000604482015290519081900360640190fd5b80546133739061010090046001600160801b0316846145b2565b81546001600160801b039190911661010002610100600160881b0319909116178155600b5460408051600160e01b63a9059cbb0281526001600160a01b038781166004830152602482018790529151919092169163a9059cbb9160448083019260209291908290030181600087803b1580156133ee57600080fd5b505af1158015613402573d6000803e3d6000fd5b505050506040513d602081101561341857600080fd5b50516134685760408051600160e51b62461bcd0281526020600482015260146024820152600160601b734572726f722073656e64696e6720746f6b656e7302604482015290519081900360640190fd5b604080513381526001600160a01b0386166020820152808201859052905186917fa6786aab7dbbc48b4b0387488b407bd81448030ab207b50bea7dbb5fbc1cd9eb919081900360600190a2506001949350505050565b60006001600160a01b0382166135195760408051600160e51b62461bcd02815260206004820152601560248201526001605c1b7405f746f2073686f756c64206e6f74206265203078302604482015290519081900360640190fd5b600080805b858110156135d95786868281811061353257fe5b905060200201359250613548338460001c613c26565b156135d1576000838152600c60209081526040918290208054610100600160881b0319811690915582513381526001600160a01b038916928101929092526001600160801b036101009091041681830181905291519582019591935084917fa6786aab7dbbc48b4b0387488b407bd81448030ab207b50bea7dbb5fbc1cd9eb9181900360600190a25b60010161351e565b50600b5460408051600160e01b63a9059cbb0281526001600160a01b038781166004830152602482018790529151919092169163a9059cbb9160448083019260209291908290030181600087803b15801561363357600080fd5b505af1158015613647573d6000803e3d6000fd5b505050506040513d602081101561365d57600080fd5b50516136ad5760408051600160e51b62461bcd0281526020600482015260146024820152600160601b734572726f722073656e64696e6720746f6b656e7302604482015290519081900360640190fd5b50509392505050565b600a546001600160a01b031633146137185760408051600160e51b62461bcd02815260206004820152601e60248201527f546865206f776e65722073686f756c64206265207468652073656e6465720000604482015290519081900360640190fd5b6001600160a01b0381166137765760408051600160e51b62461bcd02815260206004820152601860248201527f307830204973206e6f7420612076616c6964206f776e65720000000000000000604482015290519081900360640190fd5b600a546040516001600160a01b038084169216907f8be0079c531659141344cd1fd0a4f28419497f9722a3daafe3b4186f6b6457e090600090a3600a80546001600160a01b0319166001600160a01b0392909216919091179055565b604051600160f91b6020820190815230606081811b60218501526001600160a01b03808b16821b6035860152808a16821b60498601528816901b605d840152607183018690526000926002928a918a918a918a918a918a919060910183838082843780830192505050985050505050505050506040516020818303038152906040528051906020012090509695505050505050565b600b546001600160a01b031681565b6000908152600560205260409020546001600160a01b031690565b6000908152600160205260409020546001600160a01b031690565b6001600160a01b0380821660009081526004602090815260408083209386168352929052205460ff1692915050565b60006001600160a01b03831661393b5760408051600160e51b62461bcd02815260206004820152601360248201527f4465627420646f6573206e6f7420657869737400000000000000000000000000604482015290519081900360640190fd5b604080516024810186905260448082018590528251808303909101815260649091019091526020810180516001600160e01b0316600160e21b63247e8b7d02179052600090819061398d908690614578565b915091508160011415613a6e576000868152600c602052604090205460ff1615613a6557857fa43b78c6d135806f3e817a90a7b690c0d2d94b7d2e356049fa5ba357c0fab9c33360005a458660003660405180886001600160a01b03166001600160a01b03168152602001878152602001868152602001858152602001848152602001806020018281038252848482818152602001925080828437600083820152604051601f909101601f19169092018290039a509098505050505050505050a26000868152600c60205260409020805460ff191690555b915061163f9050565b857fe000ee8a04c9b1ff738cb5c90d6a362bf5be3c83b1eb221377df6324747d4c0733345a4560003660405180876001600160a01b03166001600160a01b03168152602001868152602001858152602001848152602001806020018281038252848482818152602001925080828437600083820152604051601f909101601f1916909201829003995090975050505050505050a26000868152600c60205260409020805460ff1916600117905550509392505050565b600082613b7b5760408051600160e51b62461bcd02815260206004820152601c60248201527f4f7261636c652070726f766964656420696e76616c6964207261746500000000604482015290519081900360640190fd5b6000613b8d848663ffffffff61461216565b9050828181613b9857fe5b0491506000838281613ba657fe5b061115613bc157613bbe82600163ffffffff613bc916565b91505b509392505050565b60008282018381101561163f5760408051600160e51b62461bcd02815260206004820152600c60248201527f416464206f766572666c6f770000000000000000000000000000000000000000604482015290519081900360640190fd5b60006001600160a01b038316613c865760408051600160e51b62461bcd02815260206004820152601a60248201527f30783020697320616e20696e76616c6964206f70657261746f72000000000000604482015290519081900360640190fd5b6000613c9183613891565b9050806001600160a01b0316846001600160a01b03161480613cb85750613cb884826138ac565b80613cdc5750836001600160a01b0316613cd184613876565b6001600160a01b0316145b949350505050565b82613cef3382613c26565b613d435760408051600160e51b62461bcd02815260206004820152601960248201527f6d73672e73656e646572204e6f7420617574686f72697a656400000000000000604482015290519081900360640190fd5b846001600160a01b038116613da25760408051600160e51b62461bcd02815260206004820152601360248201527f5461726765742063616e27742062652030783000000000000000000000000000604482015290519081900360640190fd5b8685816001600160a01b0316613db782613891565b6001600160a01b031614613e155760408051600160e51b62461bcd02815260206004820152601160248201527f4e6f742063757272656e74206f776e6572000000000000000000000000000000604482015290519081900360640190fd5b6000878152600160205260409020546001600160a01b0316613e378189614680565b613e42818a8a6146fa565b858015613e5c5750613e5c896001600160a01b031661487e565b156140c757600080613f568b63150b7a0260e01b33868e8e60405160240180856001600160a01b03166001600160a01b03168152602001846001600160a01b03166001600160a01b0316815260200183815260200180602001828103825283818151815260200191508051906020019080838360005b83811015613eea578181015183820152602001613ed2565b50505050905090810190601f168015613f175780820380516001836020036101000a031916815260200191505b5060408051601f198184030181529190526020810180516001600160e01b03166001600160e01b03199099169890981790975250614884945050505050565b9092509050600182141580613f755750600160e11b630a85bd01028114155b156140c4576140528b63f0b9e5ba60e01b858d8d60405160240180846001600160a01b03166001600160a01b0316815260200183815260200180602001828103825283818151815260200191508051906020019080838360005b83811015613fe7578181015183820152602001613fcf565b50505050905090810190601f1680156140145780820380516001836020036101000a031916815260200191505b5060408051601f198184030181529190526020810180516001600160e01b03166001600160e01b031990981697909717909652506148849350505050565b90925090506001821480156140705750600160e11b63785cf2dd0281145b6140c45760408051600160e51b62461bcd02815260206004820152601b60248201527f436f6e74726163742072656a65637465642074686520746f6b656e0000000000604482015290519081900360640190fd5b50505b886001600160a01b0316816001600160a01b03167fddf252ad1be2c89b69c2b068fc378daa952ba7f163c4a11628f55a4df523b3ef8a6040518082815260200191505060405180910390a350505050505050505050565b6000828152600160205260409020546001600160a01b03161561418b5760408051600160e51b62461bcd02815260206004820152601460248201527f417373657420616c726561647920657869737473000000000000000000000000604482015290519081900360640190fd5b61419581836148a5565b6040805183815290516001600160a01b038316916000917fddf252ad1be2c89b69c2b068fc378daa952ba7f163c4a11628f55a4df523b3ef9181900360200190a35050565b6001600160a01b031660009081526002602052604090205490565b60008161424c5760408051600160e51b62461bcd02815260206004820152601c60248201527f4f7261636c652070726f766964656420696e76616c6964207261746500000000604482015290519081900360640190fd5b8261425d858463ffffffff61461216565b8161426457fe5b04949350505050565b6000858152600c6020526040812060038101548291906001600160a01b038881169116146142e157604080516001600160a01b0389168152905189917f8a1ca4383d0682548257effd0249245baaabe2c4672c83c48397a88faa0831f0919081900360200190a250600091508190506144d1565b60018101546142fb9089906001600160a01b0316886138db565b92508583111561433f57604051600160e51b62461bcd0281526004018080602001828103825260218152602001806149836021913960400191505060405180910390fd5b6001600160a01b038716614353578261435e565b61435e838686613b24565b600b5460408051600160e01b6323b872dd0281523360048201523060248201526044810184905290519294506001600160a01b03909116916323b872dd916064808201926020929091908290030181600087803b1580156143be57600080fd5b505af11580156143d2573d6000803e3d6000fd5b505050506040513d60208110156143e857600080fd5b505161443e5760408051600160e51b62461bcd02815260206004820152601c60248201527f4572726f722070756c6c696e67207061796d656e7420746f6b656e7300000000604482015290519081900360640190fd5b805460009061445c90849061010090046001600160801b0316613bc9565b9050600160801b81106144af5760408051600160e51b62461bcd0281526020600482015260106024820152600160801b6f75696e74313238204f766572666c6f7702604482015290519081900360640190fd5b81546001600160801b0390911661010002610100600160881b03199091161790555b9550959350505050565b60008060644560500204805a106144f257806144f4565b5a5b90506040516020818651876020018986fa905190969095509350505050565b604080516001600160a01b038316815290516000917f8830bfff0a198778822a37d97bfba3d9d6e08bcd080eb82f2a76f2060a7494ec919081900360200190a150600880546001600160a01b0383166001600160a01b03199091161790556001919050565b60008060644560500204805a1061458f5780614591565b5a5b905060405160208186518760200160008a87f1905190969095509350505050565b60008183101561460c5760408051600160e51b62461bcd02815260206004820152600d60248201527f53756220756e646572666c6f7700000000000000000000000000000000000000604482015290519081900360640190fd5b50900390565b600082820283158061462c57508284828161462957fe5b04145b61163f5760408051600160e51b62461bcd02815260206004820152600d60248201527f4d756c74206f766572666c6f7700000000000000000000000000000000000000604482015290519081900360640190fd5b6000818152600560205260409020546001600160a01b0316156127d757600081815260056020908152604080832080546001600160a01b0319169055805184815290516001600160a01b038616927f8c5be1e5ebec7d5bd14f71427d1e84f3dd0314c0f7b2291e5b200ac8c7c3b925928290030190a35050565b600081815260036020526040812054906147246001614718876141da565b9063ffffffff6145b216565b90508082146147af576001600160a01b038516600090815260026020526040812080548390811061475157fe5b906000526020600020015490508060026000886001600160a01b03166001600160a01b03168152602001908152602001600020848154811061478f57fe5b600091825260208083209091019290925591825260039052604090208290555b6001600160a01b03851660009081526002602052604081208054839081106147d357fe5b60009182526020808320909101929092556001600160a01b038716815260029091526040902080549061480a906000198301614945565b50600083815260016020526040812080546001600160a01b0319166001600160a01b03871617905561483b856141da565b6001600160a01b03909516600090815260026020908152604080832080546001810182559084528284200187905595825260039052939093209390935550505050565b3b151590565b6000806040516020818551866020016000895af19051909590945092505050565b600081815260016020526040812080546001600160a01b0319166001600160a01b0385161790556148d5836141da565b6001600160a01b0390931660009081526002602090815260408083208054600181810183559185528385200186905585845260039092528220949094556009805494850181559052507f6e1540171b6c0c960b71a7020d9f60077f6af931a8bbf590da0223dacf75c7af90910155565b8154818355818111156110b1576000838152602090206110b1918101908301610f9a91905b8082111561497e576000815560010161496a565b509056fe506169642063616e2774206265206d6f7265207468616e207265717565737465645f69647320616e64205f616d6f756e74732073686f756c642068617665207468652073616d65206c656e67746825b52320bc27b845f37eae2240cc285c7b6e5643fc2995e6d22afa10e2f657d2a165627a7a72305820d8c5a9109efe144b37ddc783004e40337b12043a50dece552517baae74a4a7020029",
  "source": "pragma solidity ^0.5.7;\n\nimport \"../../interfaces/IERC20.sol\";\nimport \"./interfaces/Model.sol\";\nimport \"./interfaces/RateOracle.sol\";\nimport \"../../utils/IsContract.sol\";\nimport \"../../commons/ERC721Base.sol\";\nimport \"../../commons/Ownable.sol\";\n\n\ncontract DebtEngine is ERC721Base, Ownable {\n    using IsContract for address;\n\n    event Created(\n        bytes32 indexed _id,\n        uint256 _nonce,\n        bytes _data\n    );\n\n    event Created2(\n        bytes32 indexed _id,\n        uint256 _salt,\n        bytes _data\n    );\n\n    event Created3(\n        bytes32 indexed _id,\n        uint256 _salt,\n        bytes _data\n    );\n\n    event Paid(\n        bytes32 indexed _id,\n        address _sender,\n        address _origin,\n        uint256 _requested,\n        uint256 _requestedTokens,\n        uint256 _paid,\n        uint256 _tokens\n    );\n\n    event ReadedOracleBatch(\n        address _oracle,\n        uint256 _count,\n        uint256 _tokens,\n        uint256 _equivalent\n    );\n\n    event ReadedOracle(\n        bytes32 indexed _id,\n        uint256 _tokens,\n        uint256 _equivalent\n    );\n\n    event PayBatchError(\n        bytes32 indexed _id,\n        address _targetOracle\n    );\n\n    event Withdrawn(\n        bytes32 indexed _id,\n        address _sender,\n        address _to,\n        uint256 _amount\n    );\n\n    event Error(\n        bytes32 indexed _id,\n        address _sender,\n        uint256 _value,\n        uint256 _gasLeft,\n        uint256 _gasLimit,\n        bytes _callData\n    );\n\n    event ErrorRecover(\n        bytes32 indexed _id,\n        address _sender,\n        uint256 _value,\n        uint256 _gasLeft,\n        uint256 _gasLimit,\n        bytes32 _result,\n        bytes _callData\n    );\n\n    IERC20 public token;\n\n    mapping(bytes32 => Debt) public debts;\n    mapping(address => uint256) public nonces;\n\n    struct Debt {\n        bool error;\n        uint128 balance;\n        Model model;\n        address creator;\n        address oracle;\n    }\n\n    constructor (\n        IERC20 _token\n    ) public ERC721Base(\"RCN Debt Record\", \"RDR\") {\n        token = _token;\n\n        // Sanity checks\n        require(address(_token).isContract(), \"Token should be a contract\");\n    }\n\n    function setURIProvider(URIProvider _provider) external onlyOwner {\n        _setURIProvider(_provider);\n    }\n\n    function create(\n        Model _model,\n        address _owner,\n        address _oracle,\n        bytes calldata _data\n    ) external returns (bytes32 id) {\n        uint256 nonce = nonces[msg.sender]++;\n        id = keccak256(\n            abi.encodePacked(\n                uint8(1),\n                address(this),\n                msg.sender,\n                nonce\n            )\n        );\n\n        debts[id] = Debt({\n            error: false,\n            balance: 0,\n            creator: msg.sender,\n            model: _model,\n            oracle: _oracle\n        });\n\n        _generate(uint256(id), _owner);\n        require(_model.create(id, _data), \"Error creating debt in model\");\n\n        emit Created({\n            _id: id,\n            _nonce: nonce,\n            _data: _data\n        });\n    }\n\n    function create2(\n        Model _model,\n        address _owner,\n        address _oracle,\n        uint256 _salt,\n        bytes calldata _data\n    ) external returns (bytes32 id) {\n        id = keccak256(\n            abi.encodePacked(\n                uint8(2),\n                address(this),\n                msg.sender,\n                _model,\n                _oracle,\n                _salt,\n                _data\n            )\n        );\n\n        debts[id] = Debt({\n            error: false,\n            balance: 0,\n            creator: msg.sender,\n            model: _model,\n            oracle: _oracle\n        });\n\n        _generate(uint256(id), _owner);\n        require(_model.create(id, _data), \"Error creating debt in model\");\n\n        emit Created2({\n            _id: id,\n            _salt: _salt,\n            _data: _data\n        });\n    }\n\n    function create3(\n        Model _model,\n        address _owner,\n        address _oracle,\n        uint256 _salt,\n        bytes calldata _data\n    ) external returns (bytes32 id) {\n        id = keccak256(\n            abi.encodePacked(\n                uint8(3),\n                address(this),\n                msg.sender,\n                _salt\n            )\n        );\n\n        debts[id] = Debt({\n            error: false,\n            balance: 0,\n            creator: msg.sender,\n            model: _model,\n            oracle: _oracle\n        });\n\n        _generate(uint256(id), _owner);\n        require(_model.create(id, _data), \"Error creating debt in model\");\n\n        emit Created3({\n            _id: id,\n            _salt: _salt,\n            _data: _data\n        });\n    }\n\n    function buildId(\n        address _creator,\n        uint256 _nonce\n    ) external view returns (bytes32) {\n        return keccak256(\n            abi.encodePacked(\n                uint8(1),\n                address(this),\n                _creator,\n                _nonce\n            )\n        );\n    }\n\n    function buildId2(\n        address _creator,\n        address _model,\n        address _oracle,\n        uint256 _salt,\n        bytes calldata _data\n    ) external view returns (bytes32) {\n        return keccak256(\n            abi.encodePacked(\n                uint8(2),\n                address(this),\n                _creator,\n                _model,\n                _oracle,\n                _salt,\n                _data\n            )\n        );\n    }\n\n    function buildId3(\n        address _creator,\n        uint256 _salt\n    ) external view returns (bytes32) {\n        return keccak256(\n            abi.encodePacked(\n                uint8(3),\n                address(this),\n                _creator,\n                _salt\n            )\n        );\n    }\n\n    function pay(\n        bytes32 _id,\n        uint256 _amount,\n        address _origin,\n        bytes calldata _oracleData\n    ) external returns (uint256 paid, uint256 paidToken) {\n        Debt storage debt = debts[_id];\n        // Paid only required amount\n        paid = _safePay(_id, debt.model, _amount);\n        require(paid <= _amount, \"Paid can't be more than requested\");\n\n        RateOracle oracle = RateOracle(debt.oracle);\n        if (address(oracle) != address(0)) {\n            // Convert\n            (uint256 tokens, uint256 equivalent) = oracle.readSample(_oracleData);\n            emit ReadedOracle(_id, tokens, equivalent);\n            paidToken = _toToken(paid, tokens, equivalent);\n        } else {\n            paidToken = paid;\n        }\n\n        // Pull tokens from payer\n        require(token.transferFrom(msg.sender, address(this), paidToken), \"Error pulling payment tokens\");\n\n        // Add balance to the debt\n        uint256 newBalance = paidToken.add(debt.balance);\n        require(newBalance < 340282366920938463463374607431768211456, \"uint128 Overflow\");\n        debt.balance = uint128(newBalance);\n\n        // Emit pay event\n        emit Paid({\n            _id: _id,\n            _sender: msg.sender,\n            _origin: _origin,\n            _requested: _amount,\n            _requestedTokens: 0,\n            _paid: paid,\n            _tokens: paidToken\n        });\n    }\n\n    function payToken(\n        bytes32 id,\n        uint256 amount,\n        address origin,\n        bytes calldata oracleData\n    ) external returns (uint256 paid, uint256 paidToken) {\n        Debt storage debt = debts[id];\n        // Read storage\n        RateOracle oracle = RateOracle(debt.oracle);\n\n        uint256 equivalent;\n        uint256 tokens;\n        uint256 available;\n\n        // Get available <currency> amount\n        if (address(oracle) != address(0)) {\n            (tokens, equivalent) = oracle.readSample(oracleData);\n            emit ReadedOracle(id, tokens, equivalent);\n            available = _fromToken(amount, tokens, equivalent);\n        } else {\n            available = amount;\n        }\n\n        // Call addPaid on model\n        paid = _safePay(id, debt.model, available);\n        require(paid <= available, \"Paid can't exceed available\");\n\n        // Convert back to required pull amount\n        if (address(oracle) != address(0)) {\n            paidToken = _toToken(paid, tokens, equivalent);\n            require(paidToken <= amount, \"Paid can't exceed requested\");\n        } else {\n            paidToken = paid;\n        }\n\n        // Pull tokens from payer\n        require(token.transferFrom(msg.sender, address(this), paidToken), \"Error pulling tokens\");\n\n        // Add balance to the debt\n        // WARNING: Reusing variable **available**\n        available = paidToken.add(debt.balance);\n        require(available < 340282366920938463463374607431768211456, \"uint128 Overflow\");\n        debt.balance = uint128(available);\n\n        // Emit pay event\n        emit Paid({\n            _id: id,\n            _sender: msg.sender,\n            _origin: origin,\n            _requested: 0,\n            _requestedTokens: amount,\n            _paid: paid,\n            _tokens: paidToken\n        });\n    }\n\n    function payBatch(\n        bytes32[] calldata _ids,\n        uint256[] calldata _amounts,\n        address _origin,\n        address _oracle,\n        bytes calldata _oracleData\n    ) external returns (uint256[] memory paid, uint256[] memory paidTokens) {\n        uint256 count = _ids.length;\n        require(count == _amounts.length, \"_ids and _amounts should have the same length\");\n\n        uint256 tokens;\n        uint256 equivalent;\n        if (_oracle != address(0)) {\n            (tokens, equivalent) = RateOracle(_oracle).readSample(_oracleData);\n            emit ReadedOracleBatch(_oracle, count, tokens, equivalent);\n        }\n\n        paid = new uint256[](count);\n        paidTokens = new uint256[](count);\n        for (uint256 i = 0; i < count; i++) {\n            uint256 amount = _amounts[i];\n            (paid[i], paidTokens[i]) = _pay(_ids[i], _oracle, amount, tokens, equivalent);\n\n            emit Paid({\n                _id: _ids[i],\n                _sender: msg.sender,\n                _origin: _origin,\n                _requested: amount,\n                _requestedTokens: 0,\n                _paid: paid[i],\n                _tokens: paidTokens[i]\n            });\n        }\n    }\n\n    function payTokenBatch(\n        bytes32[] calldata _ids,\n        uint256[] calldata _tokenAmounts,\n        address _origin,\n        address _oracle,\n        bytes calldata _oracleData\n    ) external returns (uint256[] memory paid, uint256[] memory paidTokens) {\n        uint256 count = _ids.length;\n        require(count == _tokenAmounts.length, \"_ids and _amounts should have the same length\");\n\n        uint256 tokens;\n        uint256 equivalent;\n        if (_oracle != address(0)) {\n            (tokens, equivalent) = RateOracle(_oracle).readSample(_oracleData);\n            emit ReadedOracleBatch(_oracle, count, tokens, equivalent);\n        }\n\n        paid = new uint256[](count);\n        paidTokens = new uint256[](count);\n        for (uint256 i = 0; i < count; i++) {\n            uint256 tokenAmount = _tokenAmounts[i];\n            (paid[i], paidTokens[i]) = _pay(\n                _ids[i],\n                _oracle,\n                _oracle != address(0) ? _fromToken(tokenAmount, tokens, equivalent) : tokenAmount,\n                tokens,\n                equivalent\n            );\n            require(paidTokens[i] <= tokenAmount, \"Paid can't exceed requested\");\n\n            emit Paid({\n                _id: _ids[i],\n                _sender: msg.sender,\n                _origin: _origin,\n                _requested: 0,\n                _requestedTokens: tokenAmount,\n                _paid: paid[i],\n                _tokens: paidTokens[i]\n            });\n        }\n    }\n\n    /**\n        Internal method to pay a loan, during a payment batch context\n\n        @param _id Pay identifier\n        @param _oracle Address of the Oracle contract, if the loan does not use any oracle, this field should be 0x0.\n        @param _amount Amount to pay, in currency\n        @param _tokens How many tokens\n        @param _equivalent How much currency _tokens equivales\n\n        @return paid and paidTokens, similar to external pay\n    */\n    function _pay(\n        bytes32 _id,\n        address _oracle,\n        uint256 _amount,\n        uint256 _tokens,\n        uint256 _equivalent\n    ) internal returns (uint256 paid, uint256 paidToken){\n        Debt storage debt = debts[_id];\n\n        if (_oracle != debt.oracle) {\n            emit PayBatchError(\n                _id,\n                _oracle\n            );\n\n            return (0,0);\n        }\n\n        // Paid only required amount\n        paid = _safePay(_id, debt.model, _amount);\n        require(paid <= _amount, \"Paid can't be more than requested\");\n\n        // Get token amount to use as payment\n        paidToken = _oracle != address(0) ? _toToken(paid, _tokens, _equivalent) : paid;\n\n        // Pull tokens from payer\n        require(token.transferFrom(msg.sender, address(this), paidToken), \"Error pulling payment tokens\");\n\n        // Add balance to debt\n        uint256 newBalance = paidToken.add(debt.balance);\n        require(newBalance < 340282366920938463463374607431768211456, \"uint128 Overflow\");\n        debt.balance = uint128(newBalance);\n    }\n\n    function _safePay(\n        bytes32 _id,\n        Model _model,\n        uint256 _available\n    ) internal returns (uint256) {\n        require(_model != Model(0), \"Debt does not exist\");\n\n        (uint256 success, bytes32 paid) = _safeGasCall(\n            address(_model),\n            abi.encodeWithSelector(\n                _model.addPaid.selector,\n                _id,\n                _available\n            )\n        );\n\n        if (success == 1) {\n            if (debts[_id].error) {\n                emit ErrorRecover({\n                    _id: _id,\n                    _sender: msg.sender,\n                    _value: 0,\n                    _gasLeft: gasleft(),\n                    _gasLimit: block.gaslimit,\n                    _result: paid,\n                    _callData: msg.data\n                });\n\n                delete debts[_id].error;\n            }\n\n            return uint256(paid);\n        } else {\n            emit Error({\n                _id: _id,\n                _sender: msg.sender,\n                _value: msg.value,\n                _gasLeft: gasleft(),\n                _gasLimit: block.gaslimit,\n                _callData: msg.data\n            });\n            debts[_id].error = true;\n        }\n    }\n\n    /**\n        Converts an amount in the rate currency to an amount in token\n\n        @param _amount Amount to convert in rate currency\n        @param _tokens How many tokens\n        @param _equivalent How much currency _tokens equivales\n\n        @return Amount in tokens\n    */\n    function _toToken(\n        uint256 _amount,\n        uint256 _tokens,\n        uint256 _equivalent\n    ) internal pure returns (uint256 _result) {\n        require(_tokens != 0, \"Oracle provided invalid rate\");\n        uint256 aux = _tokens.mult(_amount);\n        _result = aux / _equivalent;\n        if (aux % _equivalent > 0) {\n            _result = _result.add(1);\n        }\n    }\n\n    /**\n        Converts an amount in token to the rate currency\n\n        @param _amount Amount to convert in token\n        @param _tokens How many tokens\n        @param _equivalent How much currency _tokens equivales\n\n        @return Amount in rate currency\n    */\n    function _fromToken(\n        uint256 _amount,\n        uint256 _tokens,\n        uint256 _equivalent\n    ) internal pure returns (uint256) {\n        require(_equivalent != 0, \"Oracle provided invalid rate\");\n        return _amount.mult(_equivalent) / _tokens;\n    }\n\n    function run(bytes32 _id) external returns (bool) {\n        Debt storage debt = debts[_id];\n        require(debt.model != Model(0), \"Debt does not exist\");\n\n        (uint256 success, bytes32 result) = _safeGasCall(\n            address(debt.model),\n            abi.encodeWithSelector(\n                debt.model.run.selector,\n                _id\n            )\n        );\n\n        if (success == 1) {\n            if (debt.error) {\n                emit ErrorRecover({\n                    _id: _id,\n                    _sender: msg.sender,\n                    _value: 0,\n                    _gasLeft: gasleft(),\n                    _gasLimit: block.gaslimit,\n                    _result: result,\n                    _callData: msg.data\n                });\n\n                delete debt.error;\n            }\n\n            return result == bytes32(uint256(1));\n        } else {\n            emit Error({\n                _id: _id,\n                _sender: msg.sender,\n                _value: 0,\n                _gasLeft: gasleft(),\n                _gasLimit: block.gaslimit,\n                _callData: msg.data\n            });\n            debt.error = true;\n        }\n    }\n\n    function withdraw(bytes32 _id, address _to) external returns (uint256 amount) {\n        require(_to != address(0x0), \"_to should not be 0x0\");\n        require(_isAuthorized(msg.sender, uint256(_id)), \"Sender not authorized\");\n        Debt storage debt = debts[_id];\n        amount = debt.balance;\n        debt.balance = 0;\n        require(token.transfer(_to, amount), \"Error sending tokens\");\n        emit Withdrawn({\n            _id: _id,\n            _sender: msg.sender,\n            _to: _to,\n            _amount: amount\n        });\n    }\n\n    function withdrawPartial(bytes32 _id, address _to, uint256 _amount) external returns (bool success) {\n        require(_to != address(0x0), \"_to should not be 0x0\");\n        require(_isAuthorized(msg.sender, uint256(_id)), \"Sender not authorized\");\n        Debt storage debt = debts[_id];\n        require(debt.balance >= _amount, \"Debt balance is not enought\");\n        debt.balance = uint128(uint256(debt.balance).sub(_amount));\n        require(token.transfer(_to, _amount), \"Error sending tokens\");\n        emit Withdrawn({\n            _id: _id,\n            _sender: msg.sender,\n            _to: _to,\n            _amount: _amount\n        });\n        success = true;\n    }\n\n    function withdrawBatch(bytes32[] calldata _ids, address _to) external returns (uint256 total) {\n        require(_to != address(0x0), \"_to should not be 0x0\");\n        bytes32 target;\n        uint256 balance;\n        for (uint256 i = 0; i < _ids.length; i++) {\n            target = _ids[i];\n            if (_isAuthorized(msg.sender, uint256(target))) {\n                balance = debts[target].balance;\n                debts[target].balance = 0;\n                total += balance;\n                emit Withdrawn({\n                    _id: target,\n                    _sender: msg.sender,\n                    _to: _to,\n                    _amount: balance\n                });\n            }\n        }\n        require(token.transfer(_to, total), \"Error sending tokens\");\n    }\n\n    function getStatus(bytes32 _id) external view returns (uint256) {\n        Debt storage debt = debts[_id];\n        if (debt.error) {\n            return 4;\n        } else {\n            (uint256 success, bytes32 result) = _safeGasStaticCall(\n                address(debt.model),\n                abi.encodeWithSelector(\n                    debt.model.getStatus.selector,\n                    _id\n                )\n            );\n            return success == 1 ? uint256(result) : 4;\n        }\n    }\n\n    function _safeGasStaticCall(\n        address _contract,\n        bytes memory _data\n    ) internal view returns (uint256 success, bytes32 result) {\n        uint256 _gas = (block.gaslimit * 80) / 100;\n        _gas = gasleft() < _gas ? gasleft() : _gas;\n        assembly {\n            let x := mload(0x40)\n            success := staticcall(\n                            _gas,                 // Send almost all gas\n                            _contract,            // To addr\n                            add(0x20, _data),     // Input is data past the first 32 bytes\n                            mload(_data),         // Input size is the lenght of data\n                            x,                    // Store the ouput on x\n                            0x20                  // Output is a single bytes32, has 32 bytes\n                        )\n\n            result := mload(x)\n        }\n    }\n\n    function _safeGasCall(\n        address _contract,\n        bytes memory _data\n    ) internal returns (uint256 success, bytes32 result) {\n        uint256 _gas = (block.gaslimit * 80) / 100;\n        _gas = gasleft() < _gas ? gasleft() : _gas;\n        assembly {\n            let x := mload(0x40)\n            success := call(\n                            _gas,                 // Send almost all gas\n                            _contract,            // To addr\n                            0,                    // Send ETH\n                            add(0x20, _data),     // Input is data past the first 32 bytes\n                            mload(_data),         // Input size is the lenght of data\n                            x,                    // Store the ouput on x\n                            0x20                  // Output is a single bytes32, has 32 bytes\n                        )\n\n            result := mload(x)\n        }\n    }\n}\n",
  "sourcePath": "/Users/jpgonzalezra/Documents/Code/ripio/rcn-network/contracts/core/diaspore/DebtEngine.sol",
  "compiler": {
    "name": "solc",
    "version": "0.5.7+commit.6da8b019.Emscripten.clang"
  },
  "schemaVersion": "3.0.1",
  "updatedAt": "2019-05-15T18:54:11.027Z",
  "devdoc": {
    "methods": {
      "approve(address,uint256)": {
        "details": "Authorize a third party operator to manage one particular asset",
        "params": {
          "_assetId": "asset to approve",
          "_operator": "address to be approved"
        }
      },
      "balanceOf(address)": {
        "details": "Gets the balance of the specified address",
        "params": {
          "_owner": "address to query the balance of"
        },
        "return": "uint256 representing the amount owned by the passed address"
      },
      "getApproved(uint256)": {
        "details": "Query what address has been particularly authorized to move an asset",
        "params": {
          "_assetId": "the asset to be queried for"
        },
        "return": "bool true if the asset has been approved by the holder"
      },
      "isApprovedForAll(address,address)": {
        "details": "Query whether an address has been authorized to move any assets on behalf of someone else",
        "params": {
          "_assetHolder": "the address that provided the authorization",
          "_operator": "the address that might be authorized"
        },
        "return": "bool true if the operator has been authorized to move any assets"
      },
      "isAuthorized(address,uint256)": {
        "details": "Query if an operator can move an asset.",
        "params": {
          "_assetId": "the asset that has been `approved` for transfer",
          "_operator": "the address that might be authorized"
        },
        "return": "bool true if the asset has been approved by the holder"
      },
      "ownerOf(uint256)": {
        "details": "Queries what address owns an asset. This method does not throw. In order to check if the asset exists, use the `exists` function or check if the return value of this call is `0`.",
        "return": "uint256 the assetId"
      },
      "safeTransferFrom(address,address,uint256)": {
        "details": "Alias of `safeTransferFrom(from, to, assetId, '')`",
        "params": {
          "_assetId": "uint256 ID of the asset to be transferred",
          "_from": "address that currently owns an asset",
          "_to": "address to receive the ownership of the asset"
        }
      },
      "safeTransferFrom(address,address,uint256,bytes)": {
        "details": "Securely transfers the ownership of a given asset from one address to another address, calling the method `onNFTReceived` on the target address if there's code associated with it",
        "params": {
          "_assetId": "uint256 ID of the asset to be transferred",
          "_from": "address that currently owns an asset",
          "_to": "address to receive the ownership of the asset",
          "_userData": "bytes arbitrary user information to attach to this transfer"
        }
      },
      "setApprovalForAll(address,bool)": {
        "details": "Authorize a third party operator to manage (send) msg.sender's asset",
        "params": {
          "_authorized": "bool set to true to authorize, false to withdraw authorization",
          "_operator": "address to be approved"
        }
      },
      "supportsInterface(bytes4)": {
        "details": "implement supportsInterface(bytes4) using a lookup table"
      },
      "tokenByIndex(uint256)": {
        "details": "Throws if `_index` >= `totalSupply()`.",
        "params": {
          "_index": "A counter less than `totalSupply()`"
        },
        "return": "The token identifier for the `_index` of the NFT, (sort order not specified)"
      },
      "tokenOfOwnerByIndex(address,uint256)": {
        "details": "Throws if `_index` >= `balanceOf(_owner)` or if `_owner` is the zero address, representing invalid NFTs.",
        "params": {
          "_index": "A counter less than `balanceOf(_owner)`",
          "_owner": "An address where we are interested in NFTs owned by them"
        },
        "return": "The token identifier for the `_index` of the NFT assigned to `_owner`,  (sort order not specified)"
      },
      "tokenURI(uint256)": {
        "details": "Throws if `_tokenId` is not a valid NFT. URIs are defined in RFC 3986. The URI may point to a JSON file that conforms to the \"ERC721 Metadata JSON Schema\"."
      },
      "totalSupply()": {
        "details": "Gets the total amount of assets stored by the contract",
        "return": "uint256 representing the total amount of assets"
      },
      "transferFrom(address,address,uint256)": {
        "details": "Transfers the ownership of a given asset from one address to another address Warning! This function does not attempt to verify that the target address can send tokens.",
        "params": {
          "_assetId": "uint256 ID of the asset to be transferred",
          "_from": "address sending the asset",
          "_to": "address to receive the ownership of the asset"
        }
      },
      "transferOwnership(address)": {
        "details": "Transfers the ownership of the contract.",
        "params": {
          "_newOwner": "Address of the new owner"
        }
      }
    }
  },
  "userdoc": {
    "methods": {
      "tokenByIndex(uint256)": {
        "notice": "Enumerate valid NFTs"
      },
      "tokenOfOwnerByIndex(address,uint256)": {
        "notice": "Enumerate NFTs assigned to an owner"
      },
      "tokenURI(uint256)": {
        "notice": "A distinct Uniform Resource Identifier (URI) for a given asset."
      }
    }
  }
}