{
  "contractName": "ERC721Base",
  "abi": [
    {
      "constant": true,
      "inputs": [
        {
          "name": "interfaceId",
          "type": "bytes4"
        }
      ],
      "name": "supportsInterface",
      "outputs": [
        {
          "name": "",
          "type": "bool"
        }
      ],
      "payable": false,
      "stateMutability": "view",
      "type": "function"
    },
    {
      "inputs": [
        {
          "name": "name",
          "type": "string"
        },
        {
          "name": "symbol",
          "type": "string"
        }
      ],
      "payable": false,
      "stateMutability": "nonpayable",
      "type": "constructor"
    },
    {
      "anonymous": false,
      "inputs": [
        {
          "indexed": true,
          "name": "_from",
          "type": "address"
        },
        {
          "indexed": true,
          "name": "_to",
          "type": "address"
        },
        {
          "indexed": false,
          "name": "_tokenId",
          "type": "uint256"
        }
      ],
      "name": "Transfer",
      "type": "event"
    },
    {
      "anonymous": false,
      "inputs": [
        {
          "indexed": true,
          "name": "_owner",
          "type": "address"
        },
        {
          "indexed": true,
          "name": "_approved",
          "type": "address"
        },
        {
          "indexed": false,
          "name": "_tokenId",
          "type": "uint256"
        }
      ],
      "name": "Approval",
      "type": "event"
    },
    {
      "anonymous": false,
      "inputs": [
        {
          "indexed": true,
          "name": "_owner",
          "type": "address"
        },
        {
          "indexed": true,
          "name": "_operator",
          "type": "address"
        },
        {
          "indexed": false,
          "name": "_approved",
          "type": "bool"
        }
      ],
      "name": "ApprovalForAll",
      "type": "event"
    },
    {
      "anonymous": false,
      "inputs": [
        {
          "indexed": false,
          "name": "_uriProvider",
          "type": "address"
        }
      ],
      "name": "SetURIProvider",
      "type": "event"
    },
    {
      "constant": true,
      "inputs": [],
      "name": "name",
      "outputs": [
        {
          "name": "",
          "type": "string"
        }
      ],
      "payable": false,
      "stateMutability": "view",
      "type": "function"
    },
    {
      "constant": true,
      "inputs": [],
      "name": "symbol",
      "outputs": [
        {
          "name": "",
          "type": "string"
        }
      ],
      "payable": false,
      "stateMutability": "view",
      "type": "function"
    },
    {
      "constant": true,
      "inputs": [
        {
          "name": "_tokenId",
          "type": "uint256"
        }
      ],
      "name": "tokenURI",
      "outputs": [
        {
          "name": "",
          "type": "string"
        }
      ],
      "payable": false,
      "stateMutability": "view",
      "type": "function"
    },
    {
      "constant": true,
      "inputs": [],
      "name": "allTokens",
      "outputs": [
        {
          "name": "",
          "type": "uint256[]"
        }
      ],
      "payable": false,
      "stateMutability": "view",
      "type": "function"
    },
    {
      "constant": true,
      "inputs": [
        {
          "name": "_owner",
          "type": "address"
        }
      ],
      "name": "assetsOf",
      "outputs": [
        {
          "name": "",
          "type": "uint256[]"
        }
      ],
      "payable": false,
      "stateMutability": "view",
      "type": "function"
    },
    {
      "constant": true,
      "inputs": [],
      "name": "totalSupply",
      "outputs": [
        {
          "name": "",
          "type": "uint256"
        }
      ],
      "payable": false,
      "stateMutability": "view",
      "type": "function"
    },
    {
      "constant": true,
      "inputs": [
        {
          "name": "_index",
          "type": "uint256"
        }
      ],
      "name": "tokenByIndex",
      "outputs": [
        {
          "name": "",
          "type": "uint256"
        }
      ],
      "payable": false,
      "stateMutability": "view",
      "type": "function"
    },
    {
      "constant": true,
      "inputs": [
        {
          "name": "_owner",
          "type": "address"
        },
        {
          "name": "_index",
          "type": "uint256"
        }
      ],
      "name": "tokenOfOwnerByIndex",
      "outputs": [
        {
          "name": "",
          "type": "uint256"
        }
      ],
      "payable": false,
      "stateMutability": "view",
      "type": "function"
    },
    {
      "constant": true,
      "inputs": [
        {
          "name": "_assetId",
          "type": "uint256"
        }
      ],
      "name": "ownerOf",
      "outputs": [
        {
          "name": "",
          "type": "address"
        }
      ],
      "payable": false,
      "stateMutability": "view",
      "type": "function"
    },
    {
      "constant": true,
      "inputs": [
        {
          "name": "_owner",
          "type": "address"
        }
      ],
      "name": "balanceOf",
      "outputs": [
        {
          "name": "",
          "type": "uint256"
        }
      ],
      "payable": false,
      "stateMutability": "view",
      "type": "function"
    },
    {
      "constant": true,
      "inputs": [
        {
          "name": "_operator",
          "type": "address"
        },
        {
          "name": "_assetHolder",
          "type": "address"
        }
      ],
      "name": "isApprovedForAll",
      "outputs": [
        {
          "name": "",
          "type": "bool"
        }
      ],
      "payable": false,
      "stateMutability": "view",
      "type": "function"
    },
    {
      "constant": true,
      "inputs": [
        {
          "name": "_assetId",
          "type": "uint256"
        }
      ],
      "name": "getApproved",
      "outputs": [
        {
          "name": "",
          "type": "address"
        }
      ],
      "payable": false,
      "stateMutability": "view",
      "type": "function"
    },
    {
      "constant": true,
      "inputs": [
        {
          "name": "_operator",
          "type": "address"
        },
        {
          "name": "_assetId",
          "type": "uint256"
        }
      ],
      "name": "isAuthorized",
      "outputs": [
        {
          "name": "",
          "type": "bool"
        }
      ],
      "payable": false,
      "stateMutability": "view",
      "type": "function"
    },
    {
      "constant": false,
      "inputs": [
        {
          "name": "_operator",
          "type": "address"
        },
        {
          "name": "_authorized",
          "type": "bool"
        }
      ],
      "name": "setApprovalForAll",
      "outputs": [],
      "payable": false,
      "stateMutability": "nonpayable",
      "type": "function"
    },
    {
      "constant": false,
      "inputs": [
        {
          "name": "_operator",
          "type": "address"
        },
        {
          "name": "_assetId",
          "type": "uint256"
        }
      ],
      "name": "approve",
      "outputs": [],
      "payable": false,
      "stateMutability": "nonpayable",
      "type": "function"
    },
    {
      "constant": false,
      "inputs": [
        {
          "name": "_from",
          "type": "address"
        },
        {
          "name": "_to",
          "type": "address"
        },
        {
          "name": "_assetId",
          "type": "uint256"
        }
      ],
      "name": "safeTransferFrom",
      "outputs": [],
      "payable": false,
      "stateMutability": "nonpayable",
      "type": "function"
    },
    {
      "constant": false,
      "inputs": [
        {
          "name": "_from",
          "type": "address"
        },
        {
          "name": "_to",
          "type": "address"
        },
        {
          "name": "_assetId",
          "type": "uint256"
        },
        {
          "name": "_userData",
          "type": "bytes"
        }
      ],
      "name": "safeTransferFrom",
      "outputs": [],
      "payable": false,
      "stateMutability": "nonpayable",
      "type": "function"
    },
    {
      "constant": false,
      "inputs": [
        {
          "name": "_from",
          "type": "address"
        },
        {
          "name": "_to",
          "type": "address"
        },
        {
          "name": "_assetId",
          "type": "uint256"
        }
      ],
      "name": "transferFrom",
      "outputs": [],
      "payable": false,
      "stateMutability": "nonpayable",
      "type": "function"
    }
  ],
  "bytecode": "0x60806040523480156200001157600080fd5b506040516200179338038062001793833981018060405260408110156200003757600080fd5b8101908080516401000000008111156200005057600080fd5b820160208101848111156200006457600080fd5b81516401000000008111828201871017156200007f57600080fd5b505092919060200180516401000000008111156200009c57600080fd5b82016020810184811115620000b057600080fd5b8151640100000000811182820187101715620000cb57600080fd5b5050929190505050620000eb6301ffc9a760e01b6200016760201b60201c565b81516200010090600690602085019062000236565b5080516200011690600790602084019062000236565b506200012f6380ac58cd60e01b6200016760201b60201c565b62000147635b5e139f60e01b6200016760201b60201c565b6200015f63780e9d6360e01b6200016760201b60201c565b5050620002db565b7fffffffff000000000000000000000000000000000000000000000000000000008082161415620001f957604080517f08c379a000000000000000000000000000000000000000000000000000000000815260206004820152601960248201527f43616e2774207265676973746572203078666666666666666600000000000000604482015290519081900360640190fd5b7fffffffff00000000000000000000000000000000000000000000000000000000166000908152602081905260409020805460ff19166001179055565b828054600181600116156101000203166002900490600052602060002090601f016020900481019282601f106200027957805160ff1916838001178555620002a9565b82800160010185558215620002a9579182015b82811115620002a95782518255916020019190600101906200028c565b50620002b7929150620002bb565b5090565b620002d891905b80821115620002b75760008155600101620002c2565b90565b6114a880620002eb6000396000f3fe608060405234801561001057600080fd5b50600436106101215760003560e01c806342842e0e116100ad57806395d89b411161007157806395d89b4114610401578063a22cb46514610409578063b88d4fde14610437578063c87b56dd146104c7578063e985e9c5146104e457610121565b806342842e0e146103635780634f6ccce7146103995780636352211e146103b65780636ff97f1d146103d357806370a08231146103db57610121565b806318160ddd116100f457806318160ddd1461024557806323b872dd1461025f5780632972b0f0146102955780632c62fa10146102c15780632f745c591461033757610121565b806301ffc9a71461012657806306fdde0314610161578063081812fc146101de578063095ea7b314610217575b600080fd5b61014d6004803603602081101561013c57600080fd5b50356001600160e01b031916610512565b604080519115158252519081900360200190f35b610169610531565b6040805160208082528351818301528351919283929083019185019080838360005b838110156101a357818101518382015260200161018b565b50505050905090810190601f1680156101d05780820380516001836020036101000a031916815260200191505b509250505060405180910390f35b6101fb600480360360208110156101f457600080fd5b50356105c8565b604080516001600160a01b039092168252519081900360200190f35b6102436004803603604081101561022d57600080fd5b506001600160a01b0381351690602001356105d9565b005b61024d6106e1565b60408051918252519081900360200190f35b6102436004803603606081101561027557600080fd5b506001600160a01b038135811691602081013590911690604001356106e7565b61014d600480360360408110156102ab57600080fd5b506001600160a01b038135169060200135610704565b6102e7600480360360208110156102d757600080fd5b50356001600160a01b0316610717565b60408051602080825283518183015283519192839290830191858101910280838360005b8381101561032357818101518382015260200161030b565b505050509050019250505060405180910390f35b61024d6004803603604081101561034d57600080fd5b506001600160a01b038135169060200135610783565b6102436004803603606081101561037957600080fd5b506001600160a01b03813581169160208101359091169060400135610879565b61024d600480360360208110156103af57600080fd5b5035610896565b6101fb600480360360208110156103cc57600080fd5b5035610911565b6102e761091c565b61024d600480360360208110156103f157600080fd5b50356001600160a01b0316610973565b61016961097e565b6102436004803603604081101561041f57600080fd5b506001600160a01b03813516906020013515156109df565b6102436004803603608081101561044d57600080fd5b6001600160a01b0382358116926020810135909116916040820135919081019060808101606082013564010000000081111561048857600080fd5b82018360208201111561049a57600080fd5b803590602001918460018302840111640100000000831117156104bc57600080fd5b509092509050610a7f565b610169600480360360208110156104dd57600080fd5b5035610acb565b61014d600480360360408110156104fa57600080fd5b506001600160a01b0381358116916020013516610c36565b6001600160e01b03191660009081526020819052604090205460ff1690565b60068054604080516020601f60026000196101006001881615020190951694909404938401819004810282018101909252828152606093909290918301828280156105bd5780601f10610592576101008083540402835291602001916105bd565b820191906000526020600020905b8154815290600101906020018083116105a057829003601f168201915b505050505090505b90565b60006105d382610c42565b92915050565b60006105e482610c5d565b9050336001600160a01b038216148061060257506106023382610c78565b6106565760408051600160e51b62461bcd02815260206004820152601860248201527f6d73672e73656e6465722063616e277420617070726f76650000000000000000604482015290519081900360640190fd5b826001600160a01b031661066983610c42565b6001600160a01b0316146106dc5760008281526005602090815260409182902080546001600160a01b0319166001600160a01b03878116918217909255835186815293519093918516927f8c5be1e5ebec7d5bd14f71427d1e84f3dd0314c0f7b2291e5b200ac8c7c3b925928290030190a35b505050565b60095490565b6106dc838383604051806020016040528060008152506000610ca7565b600061071083836110e1565b9392505050565b6001600160a01b03811660009081526002602090815260409182902080548351818402810184019094528084526060939283018282801561077757602002820191906000526020600020905b815481526020019060010190808311610763575b50505050509050919050565b60006001600160a01b0383166107e35760408051600160e51b62461bcd02815260206004820152601860248201527f307830204973206e6f7420612076616c6964206f776e65720000000000000000604482015290519081900360640190fd5b6107ec8361119f565b82106108425760408051600160e51b62461bcd02815260206004820152601360248201527f496e646578206f7574206f6620626f756e647300000000000000000000000000604482015290519081900360640190fd5b6001600160a01b038316600090815260026020526040902080548390811061086657fe5b9060005260206000200154905092915050565b6106dc838383604051806020016040528060008152506001610ca7565b60095460009082106108f25760408051600160e51b62461bcd02815260206004820152601360248201527f496e646578206f7574206f6620626f756e647300000000000000000000000000604482015290519081900360640190fd5b600982815481106108ff57fe5b90600052602060002001549050919050565b60006105d382610c5d565b606060098054806020026020016040519081016040528092919081815260200182805480156105bd57602002820191906000526020600020905b815481526020019060010190808311610956575050505050905090565b60006105d38261119f565b60078054604080516020601f60026000196101006001881615020190951694909404938401819004810282018101909252828152606093909290918301828280156105bd5780601f10610592576101008083540402835291602001916105bd565b3360009081526004602090815260408083206001600160a01b038616845290915290205460ff16151581151514610a7b573360008181526004602090815260408083206001600160a01b03871680855290835292819020805460ff1916861515908117909155815190815290519293927f17307eab39ab6107e8899845ad3d59bd9653f200f220920489ca2b5937696c31929181900390910190a35b5050565b610ac485858585858080601f01602080910402602001604051908101604052809392919081815260200183838082843760009201919091525060019250610ca7915050565b5050505050565b6000818152600160205260409020546060906001600160a01b0316610b3a5760408051600160e51b62461bcd02815260206004820152601460248201527f417373657420646f6573206e6f74206578697374000000000000000000000000604482015290519081900360640190fd5b6008546001600160a01b03168015610c1f57806001600160a01b031663c87b56dd846040518263ffffffff1660e01b81526004018082815260200191505060006040518083038186803b158015610b9057600080fd5b505afa158015610ba4573d6000803e3d6000fd5b505050506040513d6000823e601f3d908101601f191682016040526020811015610bcd57600080fd5b810190808051640100000000811115610be557600080fd5b82016020810184811115610bf857600080fd5b8151640100000000811182820187101715610c1257600080fd5b5050929190505050610710565b604051806020016040528060008152509392505050565b60006107108383610c78565b6000908152600560205260409020546001600160a01b031690565b6000908152600160205260409020546001600160a01b031690565b6001600160a01b0380821660009081526004602090815260408083209386168352929052205460ff1692915050565b82610cb233826110e1565b610d065760408051600160e51b62461bcd02815260206004820152601960248201527f6d73672e73656e646572204e6f7420617574686f72697a656400000000000000604482015290519081900360640190fd5b846001600160a01b038116610d655760408051600160e51b62461bcd02815260206004820152601360248201527f5461726765742063616e27742062652030783000000000000000000000000000604482015290519081900360640190fd5b8685816001600160a01b0316610d7a82610c5d565b6001600160a01b031614610dd85760408051600160e51b62461bcd02815260206004820152601160248201527f4e6f742063757272656e74206f776e6572000000000000000000000000000000604482015290519081900360640190fd5b6000878152600160205260409020546001600160a01b0316610dfa81896111ba565b610e05818a8a611234565b858015610e1f5750610e1f896001600160a01b03166113b8565b1561108a57600080610f198b63150b7a0260e01b33868e8e60405160240180856001600160a01b03166001600160a01b03168152602001846001600160a01b03166001600160a01b0316815260200183815260200180602001828103825283818151815260200191508051906020019080838360005b83811015610ead578181015183820152602001610e95565b50505050905090810190601f168015610eda5780820380516001836020036101000a031916815260200191505b5060408051601f198184030181529190526020810180516001600160e01b03166001600160e01b031990991698909817909752506113be945050505050565b9092509050600182141580610f385750600160e11b630a85bd01028114155b15611087576110158b63f0b9e5ba60e01b858d8d60405160240180846001600160a01b03166001600160a01b0316815260200183815260200180602001828103825283818151815260200191508051906020019080838360005b83811015610faa578181015183820152602001610f92565b50505050905090810190601f168015610fd75780820380516001836020036101000a031916815260200191505b5060408051601f198184030181529190526020810180516001600160e01b03166001600160e01b031990981697909717909652506113be9350505050565b90925090506001821480156110335750600160e11b63785cf2dd0281145b6110875760408051600160e51b62461bcd02815260206004820152601b60248201527f436f6e74726163742072656a65637465642074686520746f6b656e0000000000604482015290519081900360640190fd5b50505b886001600160a01b0316816001600160a01b03167fddf252ad1be2c89b69c2b068fc378daa952ba7f163c4a11628f55a4df523b3ef8a6040518082815260200191505060405180910390a350505050505050505050565b60006001600160a01b0383166111415760408051600160e51b62461bcd02815260206004820152601a60248201527f30783020697320616e20696e76616c6964206f70657261746f72000000000000604482015290519081900360640190fd5b600061114c83610c5d565b9050806001600160a01b0316846001600160a01b0316148061117357506111738482610c78565b806111975750836001600160a01b031661118c84610c42565b6001600160a01b0316145b949350505050565b6001600160a01b031660009081526002602052604090205490565b6000818152600560205260409020546001600160a01b031615610a7b57600081815260056020908152604080832080546001600160a01b0319169055805184815290516001600160a01b038616927f8c5be1e5ebec7d5bd14f71427d1e84f3dd0314c0f7b2291e5b200ac8c7c3b925928290030190a35050565b6000818152600360205260408120549061125e60016112528761119f565b9063ffffffff6113df16565b90508082146112e9576001600160a01b038516600090815260026020526040812080548390811061128b57fe5b906000526020600020015490508060026000886001600160a01b03166001600160a01b0316815260200190815260200160002084815481106112c957fe5b600091825260208083209091019290925591825260039052604090208290555b6001600160a01b038516600090815260026020526040812080548390811061130d57fe5b60009182526020808320909101929092556001600160a01b038716815260029091526040902080549061134490600019830161143f565b50600083815260016020526040812080546001600160a01b0319166001600160a01b0387161790556113758561119f565b6001600160a01b03909516600090815260026020908152604080832080546001810182559084528284200187905595825260039052939093209390935550505050565b3b151590565b6000806040516020818551866020016000895af19051909590945092505050565b6000818310156114395760408051600160e51b62461bcd02815260206004820152600d60248201527f53756220756e646572666c6f7700000000000000000000000000000000000000604482015290519081900360640190fd5b50900390565b8154818355818111156106dc576000838152602090206106dc9181019083016105c591905b808211156114785760008155600101611464565b509056fea165627a7a723058207ee1a4c1d791b3abc4ba3e6f37a19e86bf6de9867edece9a983fc13df5f1d8580029",
  "source": "pragma solidity ^0.5.7;\n\nimport \"../utils/SafeMath.sol\";\nimport \"./ERC165.sol\";\nimport \"../utils/IsContract.sol\";\n\n\ninterface URIProvider {\n    function tokenURI(uint256 _tokenId) external view returns (string memory);\n}\n\n\ncontract ERC721Base is ERC165 {\n    using SafeMath for uint256;\n    using IsContract for address;\n\n    mapping(uint256 => address) private _holderOf;\n\n    // Owner to array of assetId\n    mapping(address => uint256[]) private _assetsOf;\n    // AssetId to index on array in _assetsOf mapping\n    mapping(uint256 => uint256) private _indexOfAsset;\n\n    mapping(address => mapping(address => bool)) private _operators;\n    mapping(uint256 => address) private _approval;\n\n    bytes4 private constant ERC721_RECEIVED = 0x150b7a02;\n    bytes4 private constant ERC721_RECEIVED_LEGACY = 0xf0b9e5ba;\n\n    event Transfer(address indexed _from, address indexed _to, uint256 _tokenId);\n    event Approval(address indexed _owner, address indexed _approved, uint256 _tokenId);\n    event ApprovalForAll(address indexed _owner, address indexed _operator, bool _approved);\n\n    bytes4 private constant ERC_721_INTERFACE = 0x80ac58cd;\n    bytes4 private constant ERC_721_METADATA_INTERFACE = 0x5b5e139f;\n    bytes4 private constant ERC_721_ENUMERATION_INTERFACE = 0x780e9d63;\n\n    constructor(\n        string memory name,\n        string memory symbol\n    ) public {\n        _name = name;\n        _symbol = symbol;\n\n        _registerInterface(ERC_721_INTERFACE);\n        _registerInterface(ERC_721_METADATA_INTERFACE);\n        _registerInterface(ERC_721_ENUMERATION_INTERFACE);\n    }\n\n    // ///\n    // ERC721 Metadata\n    // ///\n\n    /// ERC-721 Non-Fungible Token Standard, optional metadata extension\n    /// See https://github.com/ethereum/EIPs/blob/master/EIPS/eip-721.md\n    /// Note: the ERC-165 identifier for this interface is 0x5b5e139f.\n\n    event SetURIProvider(address _uriProvider);\n\n    string private _name;\n    string private _symbol;\n\n    URIProvider private _uriProvider;\n\n    // @notice A descriptive name for a collection of NFTs in this contract\n    function name() external view returns (string memory) {\n        return _name;\n    }\n\n    // @notice An abbreviated name for NFTs in this contract\n    function symbol() external view returns (string memory) {\n        return _symbol;\n    }\n\n    /**\n    * @notice A distinct Uniform Resource Identifier (URI) for a given asset.\n    * @dev Throws if `_tokenId` is not a valid NFT. URIs are defined in RFC\n    *  3986. The URI may point to a JSON file that conforms to the \"ERC721\n    *  Metadata JSON Schema\".\n    */\n    function tokenURI(uint256 _tokenId) external view returns (string memory) {\n        require(_holderOf[_tokenId] != address(0), \"Asset does not exist\");\n        URIProvider provider = _uriProvider;\n        return address(provider) == address(0) ? \"\" : provider.tokenURI(_tokenId);\n    }\n\n    function _setURIProvider(URIProvider _provider) internal returns (bool) {\n        emit SetURIProvider(address(_provider));\n        _uriProvider = _provider;\n        return true;\n    }\n\n    // ///\n    // ERC721 Enumeration\n    // ///\n\n    ///  ERC-721 Non-Fungible Token Standard, optional enumeration extension\n    ///  See https://github.com/ethereum/EIPs/blob/master/EIPS/eip-721.md\n    ///  Note: the ERC-165 identifier for this interface is 0x780e9d63.\n\n    uint256[] private _allTokens;\n\n    function allTokens() external view returns (uint256[] memory) {\n        return _allTokens;\n    }\n\n    function assetsOf(address _owner) external view returns (uint256[] memory) {\n        return _assetsOf[_owner];\n    }\n\n    /**\n     * @dev Gets the total amount of assets stored by the contract\n     * @return uint256 representing the total amount of assets\n     */\n    function totalSupply() external view returns (uint256) {\n        return _allTokens.length;\n    }\n\n    /**\n    * @notice Enumerate valid NFTs\n    * @dev Throws if `_index` >= `totalSupply()`.\n    * @param _index A counter less than `totalSupply()`\n    * @return The token identifier for the `_index` of the NFT,\n    *  (sort order not specified)\n    */\n    function tokenByIndex(uint256 _index) external view returns (uint256) {\n        require(_index < _allTokens.length, \"Index out of bounds\");\n        return _allTokens[_index];\n    }\n\n    /**\n    * @notice Enumerate NFTs assigned to an owner\n    * @dev Throws if `_index` >= `balanceOf(_owner)` or if\n    *  `_owner` is the zero address, representing invalid NFTs.\n    * @param _owner An address where we are interested in NFTs owned by them\n    * @param _index A counter less than `balanceOf(_owner)`\n    * @return The token identifier for the `_index` of the NFT assigned to `_owner`,\n    *   (sort order not specified)\n    */\n    function tokenOfOwnerByIndex(address _owner, uint256 _index) external view returns (uint256) {\n        require(_owner != address(0), \"0x0 Is not a valid owner\");\n        require(_index < _balanceOf(_owner), \"Index out of bounds\");\n        return _assetsOf[_owner][_index];\n    }\n\n    //\n    // Asset-centric getter functions\n    //\n\n    /**\n     * @dev Queries what address owns an asset. This method does not throw.\n     * In order to check if the asset exists, use the `exists` function or check if the\n     * return value of this call is `0`.\n     * @return uint256 the assetId\n     */\n    function ownerOf(uint256 _assetId) external view returns (address) {\n        return _ownerOf(_assetId);\n    }\n\n    function _ownerOf(uint256 _assetId) internal view returns (address) {\n        return _holderOf[_assetId];\n    }\n\n    //\n    // Holder-centric getter functions\n    //\n    /**\n     * @dev Gets the balance of the specified address\n     * @param _owner address to query the balance of\n     * @return uint256 representing the amount owned by the passed address\n     */\n    function balanceOf(address _owner) external view returns (uint256) {\n        return _balanceOf(_owner);\n    }\n\n    function _balanceOf(address _owner) internal view returns (uint256) {\n        return _assetsOf[_owner].length;\n    }\n\n    //\n    // Authorization getters\n    //\n\n    /**\n     * @dev Query whether an address has been authorized to move any assets on behalf of someone else\n     * @param _operator the address that might be authorized\n     * @param _assetHolder the address that provided the authorization\n     * @return bool true if the operator has been authorized to move any assets\n     */\n    function isApprovedForAll(\n        address _operator,\n        address _assetHolder\n    ) external view returns (bool) {\n        return _isApprovedForAll(_operator, _assetHolder);\n    }\n\n    function _isApprovedForAll(\n        address _operator,\n        address _assetHolder\n    ) internal view returns (bool) {\n        return _operators[_assetHolder][_operator];\n    }\n\n    /**\n     * @dev Query what address has been particularly authorized to move an asset\n     * @param _assetId the asset to be queried for\n     * @return bool true if the asset has been approved by the holder\n     */\n    function getApproved(uint256 _assetId) external view returns (address) {\n        return _getApproved(_assetId);\n    }\n\n    function _getApproved(uint256 _assetId) internal view returns (address) {\n        return _approval[_assetId];\n    }\n\n    /**\n     * @dev Query if an operator can move an asset.\n     * @param _operator the address that might be authorized\n     * @param _assetId the asset that has been `approved` for transfer\n     * @return bool true if the asset has been approved by the holder\n     */\n    function isAuthorized(address _operator, uint256 _assetId) external view returns (bool) {\n        return _isAuthorized(_operator, _assetId);\n    }\n\n    function _isAuthorized(address _operator, uint256 _assetId) internal view returns (bool) {\n        require(_operator != address(0), \"0x0 is an invalid operator\");\n        address owner = _ownerOf(_assetId);\n\n        return _operator == owner || _isApprovedForAll(_operator, owner) || _getApproved(_assetId) == _operator;\n    }\n\n    //\n    // Authorization\n    //\n\n    /**\n     * @dev Authorize a third party operator to manage (send) msg.sender's asset\n     * @param _operator address to be approved\n     * @param _authorized bool set to true to authorize, false to withdraw authorization\n     */\n    function setApprovalForAll(address _operator, bool _authorized) external {\n        if (_operators[msg.sender][_operator] != _authorized) {\n            _operators[msg.sender][_operator] = _authorized;\n            emit ApprovalForAll(msg.sender, _operator, _authorized);\n        }\n    }\n\n    /**\n     * @dev Authorize a third party operator to manage one particular asset\n     * @param _operator address to be approved\n     * @param _assetId asset to approve\n     */\n    function approve(address _operator, uint256 _assetId) external {\n        address holder = _ownerOf(_assetId);\n        require(msg.sender == holder || _isApprovedForAll(msg.sender, holder), \"msg.sender can't approve\");\n        if (_getApproved(_assetId) != _operator) {\n            _approval[_assetId] = _operator;\n            emit Approval(holder, _operator, _assetId);\n        }\n    }\n\n    //\n    // Internal Operations\n    //\n\n    function _addAssetTo(address _to, uint256 _assetId) internal {\n        // Store asset owner\n        _holderOf[_assetId] = _to;\n\n        // Store index of the asset\n        uint256 length = _balanceOf(_to);\n        _assetsOf[_to].push(_assetId);\n        _indexOfAsset[_assetId] = length;\n\n        // Save main enumerable\n        _allTokens.push(_assetId);\n    }\n\n    function _transferAsset(address _from, address _to, uint256 _assetId) internal {\n        uint256 assetIndex = _indexOfAsset[_assetId];\n        uint256 lastAssetIndex = _balanceOf(_from).sub(1);\n\n        if (assetIndex != lastAssetIndex) {\n            // Replace current asset with last asset\n            uint256 lastAssetId = _assetsOf[_from][lastAssetIndex];\n            // Insert the last asset into the position previously occupied by the asset to be removed\n            _assetsOf[_from][assetIndex] = lastAssetId;\n            _indexOfAsset[lastAssetId] = assetIndex;\n        }\n\n        // Resize the array\n        _assetsOf[_from][lastAssetIndex] = 0;\n        _assetsOf[_from].length--;\n\n        // Change owner\n        _holderOf[_assetId] = _to;\n\n        // Update the index of positions of the asset\n        uint256 length = _balanceOf(_to);\n        _assetsOf[_to].push(_assetId);\n        _indexOfAsset[_assetId] = length;\n    }\n\n    function _clearApproval(address _holder, uint256 _assetId) internal {\n        if (_approval[_assetId] != address(0)) {\n            _approval[_assetId] = address(0);\n            emit Approval(_holder, address(0), _assetId);\n        }\n    }\n\n    //\n    // Supply-altering functions\n    //\n\n    function _generate(uint256 _assetId, address _beneficiary) internal {\n        require(_holderOf[_assetId] == address(0), \"Asset already exists\");\n\n        _addAssetTo(_beneficiary, _assetId);\n\n        emit Transfer(address(0), _beneficiary, _assetId);\n    }\n\n    //\n    // Transaction related operations\n    //\n\n    modifier onlyAuthorized(uint256 _assetId) {\n        require(_isAuthorized(msg.sender, _assetId), \"msg.sender Not authorized\");\n        _;\n    }\n\n    modifier isCurrentOwner(address _from, uint256 _assetId) {\n        require(_ownerOf(_assetId) == _from, \"Not current owner\");\n        _;\n    }\n\n    modifier addressDefined(address _target) {\n        require(_target != address(0), \"Target can't be 0x0\");\n        _;\n    }\n\n    /**\n     * @dev Alias of `safeTransferFrom(from, to, assetId, '')`\n     *\n     * @param _from address that currently owns an asset\n     * @param _to address to receive the ownership of the asset\n     * @param _assetId uint256 ID of the asset to be transferred\n     */\n    function safeTransferFrom(address _from, address _to, uint256 _assetId) external {\n        return _doTransferFrom(\n            _from,\n            _to,\n            _assetId,\n            \"\",\n            true\n        );\n    }\n\n    /**\n     * @dev Securely transfers the ownership of a given asset from one address to\n     * another address, calling the method `onNFTReceived` on the target address if\n     * there's code associated with it\n     *\n     * @param _from address that currently owns an asset\n     * @param _to address to receive the ownership of the asset\n     * @param _assetId uint256 ID of the asset to be transferred\n     * @param _userData bytes arbitrary user information to attach to this transfer\n     */\n    function safeTransferFrom(\n        address _from,\n        address _to,\n        uint256 _assetId,\n        bytes calldata _userData\n    ) external {\n        return _doTransferFrom(\n            _from,\n            _to,\n            _assetId,\n            _userData,\n            true\n        );\n    }\n\n    /**\n     * @dev Transfers the ownership of a given asset from one address to another address\n     * Warning! This function does not attempt to verify that the target address can send\n     * tokens.\n     *\n     * @param _from address sending the asset\n     * @param _to address to receive the ownership of the asset\n     * @param _assetId uint256 ID of the asset to be transferred\n     */\n    function transferFrom(address _from, address _to, uint256 _assetId) external {\n        return _doTransferFrom(\n            _from,\n            _to,\n            _assetId,\n            \"\",\n            false\n        );\n    }\n\n    /**\n     * Internal function that moves an asset from one holder to another\n     */\n    function _doTransferFrom(\n        address _from,\n        address _to,\n        uint256 _assetId,\n        bytes memory _userData,\n        bool _doCheck\n    )\n        internal\n        onlyAuthorized(_assetId)\n        addressDefined(_to)\n        isCurrentOwner(_from, _assetId)\n    {\n        address holder = _holderOf[_assetId];\n        _clearApproval(holder, _assetId);\n        _transferAsset(holder, _to, _assetId);\n\n        if (_doCheck && _to.isContract()) {\n            // Call dest contract\n            uint256 success;\n            bytes32 result;\n            // Perform check with the new safe call\n            // onERC721Received(address,address,uint256,bytes)\n            (success, result) = _noThrowCall(\n                _to,\n                abi.encodeWithSelector(\n                    ERC721_RECEIVED,\n                    msg.sender,\n                    holder,\n                    _assetId,\n                    _userData\n                )\n            );\n\n            if (success != 1 || result != ERC721_RECEIVED) {\n                // Try legacy safe call\n                // onERC721Received(address,uint256,bytes)\n                (success, result) = _noThrowCall(\n                    _to,\n                    abi.encodeWithSelector(\n                        ERC721_RECEIVED_LEGACY,\n                        holder,\n                        _assetId,\n                        _userData\n                    )\n                );\n\n                require(\n                    success == 1 && result == ERC721_RECEIVED_LEGACY,\n                    \"Contract rejected the token\"\n                );\n            }\n        }\n\n        emit Transfer(holder, _to, _assetId);\n    }\n\n    //\n    // Utilities\n    //\n\n    function _noThrowCall(\n        address _contract,\n        bytes memory _data\n    ) internal returns (uint256 success, bytes32 result) {\n        assembly {\n            let x := mload(0x40)\n\n            success := call(\n                            gas,                  // Send all gas\n                            _contract,            // To addr\n                            0,                    // Send ETH\n                            add(0x20, _data),     // Input is data past the first 32 bytes\n                            mload(_data),         // Input size is the lenght of data\n                            x,                    // Store the ouput on x\n                            0x20                  // Output is a single bytes32, has 32 bytes\n                        )\n\n            result := mload(x)\n        }\n    }\n}\n",
  "sourcePath": "/Users/jpgonzalezra/Documents/Code/ripio/rcn-network/contracts/commons/ERC721Base.sol",
  "compiler": {
    "name": "solc",
    "version": "0.5.7+commit.6da8b019.Emscripten.clang"
  },
  "schemaVersion": "3.0.1",
  "updatedAt": "2019-05-15T18:54:11.002Z",
  "devdoc": {
    "methods": {
      "approve(address,uint256)": {
        "details": "Authorize a third party operator to manage one particular asset",
        "params": {
          "_assetId": "asset to approve",
          "_operator": "address to be approved"
        }
      },
      "balanceOf(address)": {
        "details": "Gets the balance of the specified address",
        "params": {
          "_owner": "address to query the balance of"
        },
        "return": "uint256 representing the amount owned by the passed address"
      },
      "getApproved(uint256)": {
        "details": "Query what address has been particularly authorized to move an asset",
        "params": {
          "_assetId": "the asset to be queried for"
        },
        "return": "bool true if the asset has been approved by the holder"
      },
      "isApprovedForAll(address,address)": {
        "details": "Query whether an address has been authorized to move any assets on behalf of someone else",
        "params": {
          "_assetHolder": "the address that provided the authorization",
          "_operator": "the address that might be authorized"
        },
        "return": "bool true if the operator has been authorized to move any assets"
      },
      "isAuthorized(address,uint256)": {
        "details": "Query if an operator can move an asset.",
        "params": {
          "_assetId": "the asset that has been `approved` for transfer",
          "_operator": "the address that might be authorized"
        },
        "return": "bool true if the asset has been approved by the holder"
      },
      "ownerOf(uint256)": {
        "details": "Queries what address owns an asset. This method does not throw. In order to check if the asset exists, use the `exists` function or check if the return value of this call is `0`.",
        "return": "uint256 the assetId"
      },
      "safeTransferFrom(address,address,uint256)": {
        "details": "Alias of `safeTransferFrom(from, to, assetId, '')`",
        "params": {
          "_assetId": "uint256 ID of the asset to be transferred",
          "_from": "address that currently owns an asset",
          "_to": "address to receive the ownership of the asset"
        }
      },
      "safeTransferFrom(address,address,uint256,bytes)": {
        "details": "Securely transfers the ownership of a given asset from one address to another address, calling the method `onNFTReceived` on the target address if there's code associated with it",
        "params": {
          "_assetId": "uint256 ID of the asset to be transferred",
          "_from": "address that currently owns an asset",
          "_to": "address to receive the ownership of the asset",
          "_userData": "bytes arbitrary user information to attach to this transfer"
        }
      },
      "setApprovalForAll(address,bool)": {
        "details": "Authorize a third party operator to manage (send) msg.sender's asset",
        "params": {
          "_authorized": "bool set to true to authorize, false to withdraw authorization",
          "_operator": "address to be approved"
        }
      },
      "supportsInterface(bytes4)": {
        "details": "implement supportsInterface(bytes4) using a lookup table"
      },
      "tokenByIndex(uint256)": {
        "details": "Throws if `_index` >= `totalSupply()`.",
        "params": {
          "_index": "A counter less than `totalSupply()`"
        },
        "return": "The token identifier for the `_index` of the NFT, (sort order not specified)"
      },
      "tokenOfOwnerByIndex(address,uint256)": {
        "details": "Throws if `_index` >= `balanceOf(_owner)` or if `_owner` is the zero address, representing invalid NFTs.",
        "params": {
          "_index": "A counter less than `balanceOf(_owner)`",
          "_owner": "An address where we are interested in NFTs owned by them"
        },
        "return": "The token identifier for the `_index` of the NFT assigned to `_owner`,  (sort order not specified)"
      },
      "tokenURI(uint256)": {
        "details": "Throws if `_tokenId` is not a valid NFT. URIs are defined in RFC 3986. The URI may point to a JSON file that conforms to the \"ERC721 Metadata JSON Schema\"."
      },
      "totalSupply()": {
        "details": "Gets the total amount of assets stored by the contract",
        "return": "uint256 representing the total amount of assets"
      },
      "transferFrom(address,address,uint256)": {
        "details": "Transfers the ownership of a given asset from one address to another address Warning! This function does not attempt to verify that the target address can send tokens.",
        "params": {
          "_assetId": "uint256 ID of the asset to be transferred",
          "_from": "address sending the asset",
          "_to": "address to receive the ownership of the asset"
        }
      }
    }
  },
  "userdoc": {
    "methods": {
      "tokenByIndex(uint256)": {
        "notice": "Enumerate valid NFTs"
      },
      "tokenOfOwnerByIndex(address,uint256)": {
        "notice": "Enumerate NFTs assigned to an owner"
      },
      "tokenURI(uint256)": {
        "notice": "A distinct Uniform Resource Identifier (URI) for a given asset."
      }
    }
  }
}