{
  "contractName": "InstallmentsModel",
  "abi": [
    {
      "constant": true,
      "inputs": [
        {
          "name": "interfaceId",
          "type": "bytes4"
        }
      ],
      "name": "supportsInterface",
      "outputs": [
        {
          "name": "",
          "type": "bool"
        }
      ],
      "payable": false,
      "stateMutability": "view",
      "type": "function"
    },
    {
      "constant": true,
      "inputs": [],
      "name": "owner",
      "outputs": [
        {
          "name": "",
          "type": "address"
        }
      ],
      "payable": false,
      "stateMutability": "view",
      "type": "function"
    },
    {
      "constant": true,
      "inputs": [],
      "name": "STATUS_PAID",
      "outputs": [
        {
          "name": "",
          "type": "uint256"
        }
      ],
      "payable": false,
      "stateMutability": "view",
      "type": "function"
    },
    {
      "constant": true,
      "inputs": [],
      "name": "STATUS_ONGOING",
      "outputs": [
        {
          "name": "",
          "type": "uint256"
        }
      ],
      "payable": false,
      "stateMutability": "view",
      "type": "function"
    },
    {
      "constant": true,
      "inputs": [],
      "name": "STATUS_ERROR",
      "outputs": [
        {
          "name": "",
          "type": "uint256"
        }
      ],
      "payable": false,
      "stateMutability": "view",
      "type": "function"
    },
    {
      "constant": true,
      "inputs": [],
      "name": "L_DATA",
      "outputs": [
        {
          "name": "",
          "type": "uint256"
        }
      ],
      "payable": false,
      "stateMutability": "view",
      "type": "function"
    },
    {
      "constant": true,
      "inputs": [],
      "name": "engine",
      "outputs": [
        {
          "name": "",
          "type": "address"
        }
      ],
      "payable": false,
      "stateMutability": "view",
      "type": "function"
    },
    {
      "constant": true,
      "inputs": [
        {
          "name": "",
          "type": "bytes32"
        }
      ],
      "name": "configs",
      "outputs": [
        {
          "name": "installments",
          "type": "uint24"
        },
        {
          "name": "timeUnit",
          "type": "uint32"
        },
        {
          "name": "duration",
          "type": "uint40"
        },
        {
          "name": "lentTime",
          "type": "uint64"
        },
        {
          "name": "cuota",
          "type": "uint128"
        },
        {
          "name": "interestRate",
          "type": "uint256"
        }
      ],
      "payable": false,
      "stateMutability": "view",
      "type": "function"
    },
    {
      "constant": false,
      "inputs": [
        {
          "name": "_newOwner",
          "type": "address"
        }
      ],
      "name": "transferOwnership",
      "outputs": [],
      "payable": false,
      "stateMutability": "nonpayable",
      "type": "function"
    },
    {
      "constant": true,
      "inputs": [
        {
          "name": "",
          "type": "bytes32"
        }
      ],
      "name": "states",
      "outputs": [
        {
          "name": "status",
          "type": "uint8"
        },
        {
          "name": "clock",
          "type": "uint64"
        },
        {
          "name": "lastPayment",
          "type": "uint64"
        },
        {
          "name": "paid",
          "type": "uint128"
        },
        {
          "name": "paidBase",
          "type": "uint128"
        },
        {
          "name": "interest",
          "type": "uint128"
        }
      ],
      "payable": false,
      "stateMutability": "view",
      "type": "function"
    },
    {
      "inputs": [],
      "payable": false,
      "stateMutability": "nonpayable",
      "type": "constructor"
    },
    {
      "anonymous": false,
      "inputs": [
        {
          "indexed": false,
          "name": "_engine",
          "type": "address"
        }
      ],
      "name": "_setEngine",
      "type": "event"
    },
    {
      "anonymous": false,
      "inputs": [
        {
          "indexed": false,
          "name": "_descriptor",
          "type": "address"
        }
      ],
      "name": "_setDescriptor",
      "type": "event"
    },
    {
      "anonymous": false,
      "inputs": [
        {
          "indexed": false,
          "name": "_id",
          "type": "bytes32"
        },
        {
          "indexed": false,
          "name": "_to",
          "type": "uint64"
        }
      ],
      "name": "_setClock",
      "type": "event"
    },
    {
      "anonymous": false,
      "inputs": [
        {
          "indexed": false,
          "name": "_id",
          "type": "bytes32"
        },
        {
          "indexed": false,
          "name": "_paidBase",
          "type": "uint128"
        }
      ],
      "name": "_setPaidBase",
      "type": "event"
    },
    {
      "anonymous": false,
      "inputs": [
        {
          "indexed": false,
          "name": "_id",
          "type": "bytes32"
        },
        {
          "indexed": false,
          "name": "_interest",
          "type": "uint128"
        }
      ],
      "name": "_setInterest",
      "type": "event"
    },
    {
      "anonymous": false,
      "inputs": [
        {
          "indexed": true,
          "name": "_id",
          "type": "bytes32"
        }
      ],
      "name": "Created",
      "type": "event"
    },
    {
      "anonymous": false,
      "inputs": [
        {
          "indexed": true,
          "name": "_id",
          "type": "bytes32"
        },
        {
          "indexed": false,
          "name": "_timestamp",
          "type": "uint256"
        },
        {
          "indexed": false,
          "name": "_status",
          "type": "uint256"
        }
      ],
      "name": "ChangedStatus",
      "type": "event"
    },
    {
      "anonymous": false,
      "inputs": [
        {
          "indexed": true,
          "name": "_id",
          "type": "bytes32"
        },
        {
          "indexed": false,
          "name": "_timestamp",
          "type": "uint256"
        },
        {
          "indexed": false,
          "name": "_debt",
          "type": "uint256"
        }
      ],
      "name": "ChangedObligation",
      "type": "event"
    },
    {
      "anonymous": false,
      "inputs": [
        {
          "indexed": true,
          "name": "_id",
          "type": "bytes32"
        },
        {
          "indexed": false,
          "name": "_timestamp",
          "type": "uint256"
        },
        {
          "indexed": false,
          "name": "_frequency",
          "type": "uint256"
        }
      ],
      "name": "ChangedFrequency",
      "type": "event"
    },
    {
      "anonymous": false,
      "inputs": [
        {
          "indexed": true,
          "name": "_id",
          "type": "bytes32"
        },
        {
          "indexed": false,
          "name": "_timestamp",
          "type": "uint256"
        },
        {
          "indexed": false,
          "name": "_status",
          "type": "uint256"
        }
      ],
      "name": "ChangedDueTime",
      "type": "event"
    },
    {
      "anonymous": false,
      "inputs": [
        {
          "indexed": true,
          "name": "_id",
          "type": "bytes32"
        },
        {
          "indexed": false,
          "name": "_timestamp",
          "type": "uint256"
        },
        {
          "indexed": false,
          "name": "_dueTime",
          "type": "uint64"
        }
      ],
      "name": "ChangedFinalTime",
      "type": "event"
    },
    {
      "anonymous": false,
      "inputs": [
        {
          "indexed": true,
          "name": "_id",
          "type": "bytes32"
        },
        {
          "indexed": false,
          "name": "_amount",
          "type": "uint256"
        }
      ],
      "name": "AddedDebt",
      "type": "event"
    },
    {
      "anonymous": false,
      "inputs": [
        {
          "indexed": true,
          "name": "_id",
          "type": "bytes32"
        },
        {
          "indexed": false,
          "name": "_paid",
          "type": "uint256"
        }
      ],
      "name": "AddedPaid",
      "type": "event"
    },
    {
      "anonymous": false,
      "inputs": [
        {
          "indexed": true,
          "name": "_previousOwner",
          "type": "address"
        },
        {
          "indexed": true,
          "name": "_newOwner",
          "type": "address"
        }
      ],
      "name": "OwnershipTransferred",
      "type": "event"
    },
    {
      "constant": true,
      "inputs": [],
      "name": "modelId",
      "outputs": [
        {
          "name": "",
          "type": "bytes32"
        }
      ],
      "payable": false,
      "stateMutability": "view",
      "type": "function"
    },
    {
      "constant": true,
      "inputs": [],
      "name": "descriptor",
      "outputs": [
        {
          "name": "",
          "type": "address"
        }
      ],
      "payable": false,
      "stateMutability": "view",
      "type": "function"
    },
    {
      "constant": false,
      "inputs": [
        {
          "name": "_engine",
          "type": "address"
        }
      ],
      "name": "setEngine",
      "outputs": [
        {
          "name": "",
          "type": "bool"
        }
      ],
      "payable": false,
      "stateMutability": "nonpayable",
      "type": "function"
    },
    {
      "constant": false,
      "inputs": [
        {
          "name": "_descriptor",
          "type": "address"
        }
      ],
      "name": "setDescriptor",
      "outputs": [
        {
          "name": "",
          "type": "bool"
        }
      ],
      "payable": false,
      "stateMutability": "nonpayable",
      "type": "function"
    },
    {
      "constant": true,
      "inputs": [
        {
          "name": "_cuota",
          "type": "uint128"
        },
        {
          "name": "_interestRate",
          "type": "uint256"
        },
        {
          "name": "_installments",
          "type": "uint24"
        },
        {
          "name": "_duration",
          "type": "uint40"
        },
        {
          "name": "_timeUnit",
          "type": "uint32"
        }
      ],
      "name": "encodeData",
      "outputs": [
        {
          "name": "",
          "type": "bytes"
        }
      ],
      "payable": false,
      "stateMutability": "pure",
      "type": "function"
    },
    {
      "constant": false,
      "inputs": [
        {
          "name": "id",
          "type": "bytes32"
        },
        {
          "name": "data",
          "type": "bytes"
        }
      ],
      "name": "create",
      "outputs": [
        {
          "name": "",
          "type": "bool"
        }
      ],
      "payable": false,
      "stateMutability": "nonpayable",
      "type": "function"
    },
    {
      "constant": false,
      "inputs": [
        {
          "name": "id",
          "type": "bytes32"
        },
        {
          "name": "amount",
          "type": "uint256"
        }
      ],
      "name": "addPaid",
      "outputs": [
        {
          "name": "real",
          "type": "uint256"
        }
      ],
      "payable": false,
      "stateMutability": "nonpayable",
      "type": "function"
    },
    {
      "constant": false,
      "inputs": [
        {
          "name": "id",
          "type": "bytes32"
        },
        {
          "name": "amount",
          "type": "uint256"
        }
      ],
      "name": "addDebt",
      "outputs": [
        {
          "name": "",
          "type": "bool"
        }
      ],
      "payable": false,
      "stateMutability": "nonpayable",
      "type": "function"
    },
    {
      "constant": false,
      "inputs": [
        {
          "name": "id",
          "type": "bytes32"
        },
        {
          "name": "target",
          "type": "uint64"
        }
      ],
      "name": "fixClock",
      "outputs": [
        {
          "name": "",
          "type": "bool"
        }
      ],
      "payable": false,
      "stateMutability": "nonpayable",
      "type": "function"
    },
    {
      "constant": true,
      "inputs": [
        {
          "name": "_target",
          "type": "address"
        }
      ],
      "name": "isOperator",
      "outputs": [
        {
          "name": "",
          "type": "bool"
        }
      ],
      "payable": false,
      "stateMutability": "view",
      "type": "function"
    },
    {
      "constant": true,
      "inputs": [
        {
          "name": "id",
          "type": "bytes32"
        }
      ],
      "name": "getStatus",
      "outputs": [
        {
          "name": "",
          "type": "uint256"
        }
      ],
      "payable": false,
      "stateMutability": "view",
      "type": "function"
    },
    {
      "constant": true,
      "inputs": [
        {
          "name": "id",
          "type": "bytes32"
        }
      ],
      "name": "getPaid",
      "outputs": [
        {
          "name": "",
          "type": "uint256"
        }
      ],
      "payable": false,
      "stateMutability": "view",
      "type": "function"
    },
    {
      "constant": true,
      "inputs": [
        {
          "name": "id",
          "type": "bytes32"
        },
        {
          "name": "timestamp",
          "type": "uint64"
        }
      ],
      "name": "getObligation",
      "outputs": [
        {
          "name": "",
          "type": "uint256"
        },
        {
          "name": "",
          "type": "bool"
        }
      ],
      "payable": false,
      "stateMutability": "view",
      "type": "function"
    },
    {
      "constant": false,
      "inputs": [
        {
          "name": "id",
          "type": "bytes32"
        }
      ],
      "name": "run",
      "outputs": [
        {
          "name": "",
          "type": "bool"
        }
      ],
      "payable": false,
      "stateMutability": "nonpayable",
      "type": "function"
    },
    {
      "constant": true,
      "inputs": [
        {
          "name": "data",
          "type": "bytes"
        }
      ],
      "name": "validate",
      "outputs": [
        {
          "name": "",
          "type": "bool"
        }
      ],
      "payable": false,
      "stateMutability": "view",
      "type": "function"
    },
    {
      "constant": true,
      "inputs": [
        {
          "name": "id",
          "type": "bytes32"
        }
      ],
      "name": "getClosingObligation",
      "outputs": [
        {
          "name": "",
          "type": "uint256"
        }
      ],
      "payable": false,
      "stateMutability": "view",
      "type": "function"
    },
    {
      "constant": true,
      "inputs": [
        {
          "name": "id",
          "type": "bytes32"
        }
      ],
      "name": "getDueTime",
      "outputs": [
        {
          "name": "",
          "type": "uint256"
        }
      ],
      "payable": false,
      "stateMutability": "view",
      "type": "function"
    },
    {
      "constant": true,
      "inputs": [
        {
          "name": "id",
          "type": "bytes32"
        }
      ],
      "name": "getFinalTime",
      "outputs": [
        {
          "name": "",
          "type": "uint256"
        }
      ],
      "payable": false,
      "stateMutability": "view",
      "type": "function"
    },
    {
      "constant": true,
      "inputs": [
        {
          "name": "id",
          "type": "bytes32"
        }
      ],
      "name": "getFrequency",
      "outputs": [
        {
          "name": "",
          "type": "uint256"
        }
      ],
      "payable": false,
      "stateMutability": "view",
      "type": "function"
    },
    {
      "constant": true,
      "inputs": [
        {
          "name": "id",
          "type": "bytes32"
        }
      ],
      "name": "getInstallments",
      "outputs": [
        {
          "name": "",
          "type": "uint256"
        }
      ],
      "payable": false,
      "stateMutability": "view",
      "type": "function"
    },
    {
      "constant": true,
      "inputs": [
        {
          "name": "id",
          "type": "bytes32"
        }
      ],
      "name": "getEstimateObligation",
      "outputs": [
        {
          "name": "",
          "type": "uint256"
        }
      ],
      "payable": false,
      "stateMutability": "view",
      "type": "function"
    },
    {
      "constant": true,
      "inputs": [
        {
          "name": "_data",
          "type": "bytes"
        }
      ],
      "name": "simFirstObligation",
      "outputs": [
        {
          "name": "amount",
          "type": "uint256"
        },
        {
          "name": "time",
          "type": "uint256"
        }
      ],
      "payable": false,
      "stateMutability": "view",
      "type": "function"
    },
    {
      "constant": true,
      "inputs": [
        {
          "name": "_data",
          "type": "bytes"
        }
      ],
      "name": "simTotalObligation",
      "outputs": [
        {
          "name": "amount",
          "type": "uint256"
        }
      ],
      "payable": false,
      "stateMutability": "view",
      "type": "function"
    },
    {
      "constant": true,
      "inputs": [
        {
          "name": "_data",
          "type": "bytes"
        }
      ],
      "name": "simDuration",
      "outputs": [
        {
          "name": "duration",
          "type": "uint256"
        }
      ],
      "payable": false,
      "stateMutability": "view",
      "type": "function"
    },
    {
      "constant": true,
      "inputs": [
        {
          "name": "_data",
          "type": "bytes"
        }
      ],
      "name": "simPunitiveInterestRate",
      "outputs": [
        {
          "name": "punitiveInterestRate",
          "type": "uint256"
        }
      ],
      "payable": false,
      "stateMutability": "view",
      "type": "function"
    },
    {
      "constant": true,
      "inputs": [
        {
          "name": "_data",
          "type": "bytes"
        }
      ],
      "name": "simFrequency",
      "outputs": [
        {
          "name": "frequency",
          "type": "uint256"
        }
      ],
      "payable": false,
      "stateMutability": "view",
      "type": "function"
    },
    {
      "constant": true,
      "inputs": [
        {
          "name": "_data",
          "type": "bytes"
        }
      ],
      "name": "simInstallments",
      "outputs": [
        {
          "name": "installments",
          "type": "uint256"
        }
      ],
      "payable": false,
      "stateMutability": "view",
      "type": "function"
    }
  ],
  "bytecode": "0x60806040523480156200001157600080fd5b506200002a6301ffc9a760e01b620000a060201b60201c565b600180546001600160a01b031916339081179091556040516000907f8be0079c531659141344cd1fd0a4f28419497f9722a3daafe3b4186f6b6457e0908290a36200008263af498c3560e01b620000a060201b60201c565b6200009a630273537560e01b620000a060201b60201c565b6200016f565b7fffffffff0000000000000000000000000000000000000000000000000000000080821614156200013257604080517f08c379a000000000000000000000000000000000000000000000000000000000815260206004820152601960248201527f43616e2774207265676973746572203078666666666666666600000000000000604482015290519081900360640190fd5b7fffffffff00000000000000000000000000000000000000000000000000000000166000908152602081905260409020805460ff19166001179055565b612970806200017f6000396000f3fe608060405234801561001057600080fd5b50600436106102275760003560e01c8063a02b1a5111610130578063cdd8750e116100b8578063ebe955fe1161007c578063ebe955fe14610922578063eda71f6e146105c0578063ef6ac0f014610990578063f2fde38b146109ad578063fbdc1ef1146109d557610227565b8063cdd8750e1461079a578063ce8f6078146107b7578063cf76cb7d14610829578063d0fc1e7d14610897578063e54d62e9146108b457610227565b8063c075947d116100ff578063c075947d1461070c578063c16e50ef14610714578063c1a5b26014610782578063c61aff5a1461078a578063c9d4623f1461079257610227565b8063a02b1a51146105dd578063a6f6d8bb146105fa578063b317d0311461063f578063bd623d681461064757610227565b8063625a6726116101b357806387195d231161018257806387195d23146105555780638da5cb5b1461057257806390900df41461057a57806391fa2df41461059d5780639a6203e9146105c057610227565b8063625a6726146104785780636d70f7ae146104a457806373549604146104ca578063814eba9e146104e757610227565b8063303e74df116101fa578063303e74df1461033a57806343cdaad21461035e57806354392a96146103785780635b37e150146103e65780635de28ae01461045b57610227565b806301b9a3971461022c57806301ffc9a7146102665780630e830e491461028d57806316d63f17146102b3575b600080fd5b6102526004803603602081101561024257600080fd5b50356001600160a01b0316610a40565b604080519115158252519081900360200190f35b6102526004803603602081101561027c57600080fd5b50356001600160e01b031916610aff565b610252600480360360208110156102a357600080fd5b50356001600160a01b0316610b1e565b610321600480360360208110156102c957600080fd5b810190602081018135600160201b8111156102e357600080fd5b8201836020820111156102f557600080fd5b803590602001918460018302840111600160201b8311171561031657600080fd5b509092509050610bdc565b6040805192835260208301919091528051918290030190f35b610342610c3f565b604080516001600160a01b039092168252519081900360200190f35b610366610c62565b60408051918252519081900360200190f35b6103666004803603602081101561038e57600080fd5b810190602081018135600160201b8111156103a857600080fd5b8201836020820111156103ba57600080fd5b803590602001918460018302840111600160201b831117156103db57600080fd5b509092509050610c7f565b610252600480360360408110156103fc57600080fd5b81359190810190604081016020820135600160201b81111561041d57600080fd5b82018360208201111561042f57600080fd5b803590602001918460018302840111600160201b8311171561045057600080fd5b509092509050610ce5565b6103666004803603602081101561047157600080fd5b503561102b565b6102526004803603604081101561048e57600080fd5b50803590602001356001600160401b03166110c7565b610252600480360360208110156104ba57600080fd5b50356001600160a01b0316611228565b610366600480360360208110156104e057600080fd5b503561123c565b610366600480360360208110156104fd57600080fd5b810190602081018135600160201b81111561051757600080fd5b82018360208201111561052957600080fd5b803590602001918460018302840111600160201b8311171561054a57600080fd5b509092509050611275565b6103666004803603602081101561056b57600080fd5b50356112c2565b6103426112d9565b6102526004803603604081101561059057600080fd5b50803590602001356112e8565b610366600480360360408110156105b357600080fd5b5080359060200135611396565b610366600480360360208110156105d657600080fd5b503561179e565b610366600480360360208110156105f357600080fd5b50356117a9565b6106266004803603604081101561061057600080fd5b50803590602001356001600160401b03166117c7565b6040805192835290151560208301528051918290030190f35b610366611adb565b610697600480360360a081101561065d57600080fd5b5080356001600160801b031690602081013590604081013562ffffff1690606081013564ffffffffff16906080013563ffffffff16611ae0565b6040805160208082528351818301528351919283929083019185019080838360005b838110156106d15781810151838201526020016106b9565b50505050905090810190601f1680156106fe5780820380516001836020036101000a031916815260200191505b509250505060405180910390f35b610366611b41565b6102526004803603602081101561072a57600080fd5b810190602081018135600160201b81111561074457600080fd5b82018360208201111561075657600080fd5b803590602001918460018302840111600160201b8311171561077757600080fd5b509092509050611b46565b610366611bce565b610366611bd3565b610342611bd8565b610366600480360360208110156107b057600080fd5b5035611be7565b6107d4600480360360208110156107cd57600080fd5b5035611c7b565b6040805162ffffff909716875263ffffffff909516602087015264ffffffffff909316858501526001600160401b0390911660608501526001600160801b0316608084015260a0830152519081900360c00190f35b6103666004803603602081101561083f57600080fd5b810190602081018135600160201b81111561085957600080fd5b82018360208201111561086b57600080fd5b803590602001918460018302840111600160201b8311171561088c57600080fd5b509092509050611cd9565b610366600480360360208110156108ad57600080fd5b5035611d2a565b610366600480360360208110156108ca57600080fd5b810190602081018135600160201b8111156108e457600080fd5b8201836020820111156108f657600080fd5b803590602001918460018302840111600160201b8311171561091757600080fd5b509092509050611d4a565b6103666004803603602081101561093857600080fd5b810190602081018135600160201b81111561095257600080fd5b82018360208201111561096457600080fd5b803590602001918460018302840111600160201b8311171561098557600080fd5b509092509050611daa565b610252600480360360208110156109a657600080fd5b5035611dfd565b6109d3600480360360208110156109c357600080fd5b50356001600160a01b0316611e34565b005b6109f2600480360360208110156109eb57600080fd5b5035611f50565b6040805160ff90971687526001600160401b03958616602088015293909416858401526001600160801b039182166060860152811660808501529190911660a0830152519081900360c00190f35b6001546000906001600160a01b03163314610aa55760408051600160e51b62461bcd02815260206004820152601e60248201527f546865206f776e65722073686f756c64206265207468652073656e6465720000604482015290519081900360640190fd5b600480546001600160a01b0384166001600160a01b0319909116811790915560408051918252517ffd7a059fb02438ecc7334e2f3b4dbc55b37aeea735bb0391714041593a5beacd9181900360200190a15060015b919050565b6001600160e01b03191660009081526020819052604090205460ff1690565b6001546000906001600160a01b03163314610b835760408051600160e51b62461bcd02815260206004820152601e60248201527f546865206f776e65722073686f756c64206265207468652073656e6465720000604482015290519081900360640190fd5b600380546001600160a01b0384166001600160a01b0319909116811790915560408051918252517f0188a486877924f3e0702cef6a0566d0fc77155ab3edb363748f72c6c451ff439181900360200190a1506001919050565b600080610c1e84848080601f016020809104026020016040519081016040528093929190818152602001838380828437600092019190915250611fa392505050565b506001600160801b039093169764ffffffffff909316965091945050505050565b6004546000906001600160a01b03168015610c5a5780610c5c565b305b91505090565b78496e7374616c6c6d656e74734d6f64656c204120302e302e3290565b6000806000610cc385858080601f016020809104026020016040519081016040528093929190818152602001838380828437600092019190915250611fa392505050565b505062ffffff169250506001600160801b031691508082029250505092915050565b6003546000906001600160a01b03163314610d435760408051600160e51b62461bcd02815260206004820152601360248201526001606a1b7213db9b1e48195b99da5b9948185b1b1bddd95902604482015290519081900360640190fd5b6000848152600560205260409020600101546001600160801b031615610db35760408051600160e51b62461bcd02815260206004820152601360248201527f456e74727920616c726561647920657869737400000000000000000000000000604482015290519081900360640190fd5b6000806000806000610dfa88888080601f016020809104026020016040519081016040528093929190818152602001838380828437600092019190915250611fa392505050565b94509450945094509450610e2c856001600160801b0316858562ffffff168564ffffffffff168563ffffffff16612036565b6040518060c001604052808462ffffff1681526020018263ffffffff1681526020018364ffffffffff168152602001426001600160401b03168152602001866001600160801b0316815260200185815250600560008b815260200190815260200160002060008201518160000160006101000a81548162ffffff021916908362ffffff16021790555060208201518160000160036101000a81548163ffffffff021916908363ffffffff16021790555060408201518160000160076101000a81548164ffffffffff021916908364ffffffffff160217905550606082015181600001600c6101000a8154816001600160401b0302191690836001600160401b0316021790555060808201518160010160006101000a8154816001600160801b0302191690836001600160801b0316021790555060a082015181600201559050508164ffffffffff16600660008b815260200190815260200160002060000160016101000a8154816001600160401b0302191690836001600160401b03160217905550887f102d25c49d33fcdb8976a3f2744e0785c98d9e43b88364859e6aec4ae82eff5c60405160405180910390a2604080518a815264ffffffffff8416602082015281517f5ac4222bff447e4964c68c4e68ba64f779bf5b79d7ba34c88fc1aa49f18eadbf929181900390910190a150600198975050505050505050565b6000818152600560209081526040808320600690925282208154600160601b90046001600160401b03166110a95760408051600160e51b62461bcd02815260206004820152601b60248201527f54686520726567697374727920646f6573206e6f742065786973740000000000604482015290519081900360640190fd5b805460ff166002146110bc5760016110bf565b60025b949350505050565b600042826001600160401b0316111561111457604051600160e51b62461bcd02815260040180806020018281038252602781526020018061291e6027913960400191505060405180910390fd5b6000838152600560209081526040808320600690925290912081546001600160401b03600160601b9091048116908516811061119a5760408051600160e51b62461bcd02815260206004820152601760248201527f436c6f636b2063616e277420676f206e65676174697665000000000000000000604482015290519081900360640190fd5b8154818603906001600160401b036101009091048116908216116112085760408051600160e51b62461bcd02815260206004820152601860248201527f436c6f636b206973206168656164206f66207461726765740000000000000000604482015290519081900360640190fd5b61121b87826001600160401b0316612278565b9450505050505b92915050565b6003546001600160a01b0391821691161490565b60009081526005602052604090205462ffffff8116600160381b820464ffffffffff1602600160601b9091046001600160401b03160190565b60006112b683838080601f016020809104026020016040519081016040528093929190818152602001838380828437600092019190915250611fa392505050565b50919695505050505050565b60009081526005602052604090205462ffffff1690565b6001546001600160a01b031690565b6003546000906001600160a01b031633146113465760408051600160e51b62461bcd02815260206004820152601360248201526001606a1b7213db9b1e48195b99da5b9948185b1b1bddd95902604482015290519081900360640190fd5b60408051600160e51b62461bcd02815260206004820152601060248201527f4e6f7420696d706c656d656e7465642100000000000000000000000000000000604482015290519081900360640190fd5b6003546000906001600160a01b031633146113f45760408051600160e51b62461bcd02815260206004820152601360248201526001606a1b7213db9b1e48195b99da5b9948185b1b1bddd95902604482015290519081900360640190fd5b60008381526005602090815260408083206006909252909120815461142f9086906001600160401b03600160601b9091048116420316612278565b50805460ff16600214611796576001810154825460028301546001600160801b0392831692600160381b90920464ffffffffff16911686600160801b81106114c15760408051600160e51b62461bcd02815260206004820152600f60248201527f416d6f756e74206f766572666c6f770000000000000000000000000000000000604482015290519081900360640190fd5b60008060008060005b5088548a5460018c01546101009092046001600160401b0316916115009183918b9162ffffff16906001600160801b03166124c6565b9150888783010393508584106115165785611518565b835b60018b0154600160801b90046001600160801b03168a03880395509250848311611543576000611547565b8483035b8a60010160108282829054906101000a90046001600160801b03160192506101000a8154816001600160801b0302191690836001600160801b031602179055507fbe7c4be01d96a9021826187a698b198967f64a0d27f8a4e27228ae337c2f380b8e8b60010160109054906101000a90046001600160801b031660405180838152602001826001600160801b03166001600160801b031681526020019250505060405180910390a18a5498830198958390039562ffffff1688828161160857fe5b041015801561161957508887830111155b156116825760028a60000160006101000a81548160ff021916908360ff1602179055508d7f03202132f86ea915f0496d740ab57083235a3850003b398f13d3328f966e5e9e426002604051808381526020018281526020019250505060405180910390a26116a9565b828414156116a3576116a18e89838161169757fe5b068a840103612278565b505b856114ca575b600160801b89106117045760408051600160e51b62461bcd02815260206004820152600d60248201527f50616964206f766572666c6f7700000000000000000000000000000000000000604482015290519081900360640190fd5b60018a0180546001600160801b0319166001600160801b038b16179055895470ffffffffffffffff0000000000000000001981166101009091046001600160401b0316600160481b02178a5560408051878f038082529151919d508f917fc778ddfdb0d4ccac7447183c180c8559ec30cdb51c3726b6c58b3bd342596093916020908290030190a25050505050505050505b505092915050565b6000611222826124fb565b6000908152600660205260409020600101546001600160801b031690565b6000828152600660209081526040808320600590925282208054839291906001600160401b03600160601b9091048116908616101561181057506000925060019150611ad49050565b805460018201546001600160401b03600160601b830481168803169160009161185891849164ffffffffff600160381b8304169162ffffff16906001600160801b03166124c6565b600285015485549192506000916001600160801b039091169061010090046001600160401b0316828582106118935782935060019050611aa1565b611a988287858a6040518060c00160405290816000820160009054906101000a900462ffffff1662ffffff1662ffffff1681526020016000820160039054906101000a900463ffffffff1663ffffffff1663ffffffff1681526020016000820160079054906101000a900464ffffffffff1664ffffffffff1664ffffffffff16815260200160008201600c9054906101000a90046001600160401b03166001600160401b03166001600160401b031681526020016001820160009054906101000a90046001600160801b03166001600160801b03166001600160801b031681526020016002820154815250508c6040518060c00160405290816000820160009054906101000a900460ff1660ff1660ff1681526020016000820160019054906101000a90046001600160401b03166001600160401b03166001600160401b031681526020016000820160099054906101000a90046001600160401b03166001600160401b03166001600160401b031681526020016001820160009054906101000a90046001600160801b03166001600160801b03166001600160801b031681526020016001820160109054906101000a90046001600160801b03166001600160801b03166001600160801b031681526020016002820160009054906101000a90046001600160801b03166001600160801b03166001600160801b0316815250506125f9565b96509350508183145b6001880154858501906001600160801b0316808211611ac1576000611ac5565b8082035b9b509199505050505050505050505b9250929050565b600281565b604080516001600160801b039690961660801b6020870152603086019490945262ffffff9290921660e81b605085015264ffffffffff1660d81b605384015263ffffffff1660e01b60588301528051808303603c018152605c909201905290565b600181565b600080600080600080611b8e88888080601f016020809104026020016040519081016040528093929190818152602001838380828437600092019190915250611fa392505050565b94509450945094509450611bc0856001600160801b0316858562ffffff168564ffffffffff168563ffffffff16612036565b506001979650505050505050565b600481565b603c81565b6003546001600160a01b031681565b600081815260056020526040812060018101546001600160801b0316611c11576000915050610afa565b6000838152600660205260409020548154600160481b9091046001600160401b031690600160381b900464ffffffffff1681611c4d5780611c4f565b815b8354909250600160601b90046001600160401b0316818381611c6d57fe5b068303019350505050919050565b60056020526000908152604090208054600182015460029092015462ffffff8216926301000000830463ffffffff1692600160381b810464ffffffffff1692600160601b9091046001600160401b0316916001600160801b03169086565b6000611d1a83838080601f016020809104026020016040519081016040528093929190818152602001838380828437600092019190915250611fa392505050565b505062ffffff1695945050505050565b600090815260056020526040902054600160381b900464ffffffffff1690565b6000806000611d8e85858080601f016020809104026020016040519081016040528093929190818152602001838380828437600092019190915250611fa392505050565b5064ffffffffff1662ffffff9190911602979650505050505050565b6000611deb83838080601f016020809104026020016040519081016040528093929190818152602001838380828437600092019190915250611fa392505050565b5064ffffffffff169695505050505050565b60008181526005602052604081208054611e2d9084906001600160401b03600160601b9091048116420316612278565b9392505050565b6001546001600160a01b03163314611e965760408051600160e51b62461bcd02815260206004820152601e60248201527f546865206f776e65722073686f756c64206265207468652073656e6465720000604482015290519081900360640190fd5b6001600160a01b038116611ef45760408051600160e51b62461bcd02815260206004820152601860248201527f307830204973206e6f7420612076616c6964206f776e65720000000000000000604482015290519081900360640190fd5b6001546040516001600160a01b038084169216907f8be0079c531659141344cd1fd0a4f28419497f9722a3daafe3b4186f6b6457e090600090a3600180546001600160a01b0319166001600160a01b0392909216919091179055565b60066020526000908152604090208054600182015460029092015460ff8216926001600160401b036101008404811693600160481b900416916001600160801b0380831692600160801b90048116911686565b6000806000806000603c8651146120045760408051600160e51b62461bcd02815260206004820152601360248201527f496e76616c69642064617461206c656e67746800000000000000000000000000604482015290519081900360640190fd5b600080600080600061201f8b60106020600360056004612657565b939f929e50909c509a509098509650505050505050565b6000851161208e5760408051600160e51b62461bcd02815260206004820152601060248201527f43756f74612063616e2774206265203000000000000000000000000000000000604482015290519081900360640190fd5b600084116120e65760408051600160e51b62461bcd02815260206004820152601860248201527f496e74657265737420726174652063616e277420626520300000000000000000604482015290519081900360640190fd5b6000831161213e5760408051600160e51b62461bcd02815260206004820152601760248201527f496e7374616c6c6d656e74732063616e27742062652030000000000000000000604482015290519081900360640190fd5b600082116121965760408051600160e51b62461bcd02815260206004820152601f60248201527f496e7374616c6c6d656e74206475726174696f6e2063616e2774206265203000604482015290519081900360640190fd5b818111156121d857604051600160e51b62461bcd0281526004018080602001828103825260328152602001806128c76032913960400191505060405180910390fd5b80841161221957604051600160e51b62461bcd0281526004018080602001828103825260258152602001806128f96025913960400191505060405180910390fd5b600081116122715760408051600160e51b62461bcd02815260206004820152601260248201527f54696d6520756e69742063616e27626520300000000000000000000000000000604482015290519081900360640190fd5b5050505050565b600082815260056020908152604080832060069092528220805461010090046001600160401b0316848110156124bd57815483546002808501546001808801549087015492880154600095869561231e956101009092046001600160401b0316946301000000820463ffffffff16946001600160801b0391821694600160381b840464ffffffffff16949183169362ffffff1692600160801b909204909116908f61276b565b915091506801000000000000000081106123825760408051600160e51b62461bcd02815260206004820152600e60248201527f436c6f636b206f766572666c6f77000000000000000000000000000000000000604482015290519081900360640190fd5b600160801b82106123dd5760408051600160e51b62461bcd02815260206004820152601160248201527f496e746572657374206f766572666c6f77000000000000000000000000000000604482015290519081900360640190fd5b604080518981526001600160401b038316602082015281517f5ac4222bff447e4964c68c4e68ba64f779bf5b79d7ba34c88fc1aa49f18eadbf929181900390910190a1811561246a57604080518981526001600160801b038416602082015281517ffe35a3cf12dd1d691d662ec765e7ad19e6f21c24923847936c5ec4c0cc7186ba929181900390910190a15b83546001600160401b039091166101000268ffffffffffffffff0019909116178355600290920180546001600160801b039093166001600160801b03199093169290921790915550600191506112229050565b50505092915050565b6000808486816124d257fe5b0490508381106124e4578284026124e8565b8281025b6001600160801b03169695505050505050565b60008181526006602090815260408083206005909252822080546001820154835462ffffff8316926001600160801b03909216916001600160401b03600160601b9091048116420381169187916101009091041682811061256b5760028701546001600160801b031691506125c4565b855460028881015460018a0154918901546125c09385936301000000820463ffffffff16936001600160801b0390811693600160381b90930464ffffffffff16928b928d92600160801b90910416908b61276b565b5091505b60018701548486028301906001600160801b03168082116125e65760006125ea565b8082035b9b9a5050505050505050505050565b60008061264987856020015163ffffffff1687876040015164ffffffffff1688608001516001600160801b0316896000015162ffffff1689608001516001600160801b03168b60a001518e61276b565b909890975095505050505050565b60008060008060008060208c01805196508b602003801561267e576008810260020a880497505b8c82019250825196508b6020039050801561269f576008810260020a870496505b50908a01805194509060208a900380156126bf576008810260020a860495505b509089018051935090602089900380156126df576008810260020a850494505b509088018051925090602088900380156126ff576008810260020a840493505b508c5191039081111561275c5760408051600160e51b62461bcd02815260206004820152601b60248201527f52656164696e67206279746573206f7574206f6620626f756e64730000000000604482015290519081900360640190fd5b50965096509650965096915050565b86896000805b61277f838603848c8b6127d5565b90925090506000612796848e8d8c8e8d898e612823565b905081806127a45750600081115b156127b65793840193928201926127bc565b506127c5565b50848310612771575b5050995099975050505050505050565b60008060008486816127e357fe5b06850390508681111580156128005750838587816127fd57fe5b04105b156128115780925060019150612819565b869250600091505b5094509492505050565b600080846128338b8a8a8a6124c6565b039050600089848161284157fe5b04828b878161284c57fe5b04620186a002028161285a57fe5b049050600160801b81106128b85760408051600160e51b62461bcd02815260206004820152601560248201527f4e657720696e746572657374206f766572666c6f770000000000000000000000604482015290519081900360640190fd5b9a995050505050505050505056fe54696d6520756e69742063616e2774206265206c6f776572207468616e20696e7374616c6c6d656e74206475726174696f6e496e74657265737420726174652062792074696d6520756e697420697320746f6f206c6f77466f7262696464656e20616476616e636520636c6f636b20696e746f2074686520667574757265a165627a7a72305820c11129f1ae2c5e40213f1913dc2205cd6d53ff8d51a984f8dab0dd82475b491f0029",
  "source": "pragma solidity ^0.5.7;\n\nimport \"./../interfaces/Model.sol\";\nimport \"./../interfaces/ModelDescriptor.sol\";\nimport \"../../../commons/Ownable.sol\";\nimport \"../../../commons/ERC165.sol\";\nimport \"../../../utils/BytesUtils.sol\";\n\n\ncontract InstallmentsModel is ERC165, BytesUtils, Ownable, Model, ModelDescriptor {\n\n    mapping(bytes4 => bool) private _supportedInterface;\n\n    constructor() public {\n        _registerInterface(MODEL_INTERFACE);\n        _registerInterface(MODEL_DESCRIPTOR_INTERFACE);\n    }\n\n    address public engine;\n    address private altDescriptor;\n\n    mapping(bytes32 => Config) public configs;\n    mapping(bytes32 => State) public states;\n\n    uint256 public constant L_DATA = 16 + 32 + 3 + 5 + 4;\n\n    uint256 private constant U_128_OVERFLOW = 2 ** 128;\n    uint256 private constant U_64_OVERFLOW = 2 ** 64;\n    uint256 private constant U_40_OVERFLOW = 2 ** 40;\n    uint256 private constant U_24_OVERFLOW = 2 ** 24;\n\n    event _setEngine(address _engine);\n    event _setDescriptor(address _descriptor);\n\n    event _setClock(bytes32 _id, uint64 _to);\n    event _setPaidBase(bytes32 _id, uint128 _paidBase);\n    event _setInterest(bytes32 _id, uint128 _interest);\n\n    struct Config {\n        uint24 installments;\n        uint32 timeUnit;\n        uint40 duration;\n        uint64 lentTime;\n        uint128 cuota;\n        uint256 interestRate;\n    }\n\n    struct State {\n        uint8 status;\n        uint64 clock;\n        uint64 lastPayment;\n        uint128 paid;\n        uint128 paidBase;\n        uint128 interest;\n    }\n\n    modifier onlyEngine {\n        require(msg.sender == engine, \"Only engine allowed\");\n        _;\n    }\n\n    function modelId() external view returns (bytes32) {\n        // InstallmentsModel A 0.0.2\n        return bytes32(0x00000000000000496e7374616c6c6d656e74734d6f64656c204120302e302e32);\n    }\n\n    function descriptor() external view returns (address) {\n        address _descriptor = altDescriptor;\n        return _descriptor == address(0) ? address(this) : _descriptor;\n    }\n\n    function setEngine(address _engine) external onlyOwner returns (bool) {\n        engine = _engine;\n        emit _setEngine(_engine);\n        return true;\n    }\n\n    function setDescriptor(address _descriptor) external onlyOwner returns (bool) {\n        altDescriptor = _descriptor;\n        emit _setDescriptor(_descriptor);\n        return true;\n    }\n\n    function encodeData(\n        uint128 _cuota,\n        uint256 _interestRate,\n        uint24 _installments,\n        uint40 _duration,\n        uint32 _timeUnit\n    ) external pure returns (bytes memory) {\n        return abi.encodePacked(_cuota, _interestRate, _installments, _duration, _timeUnit);\n    }\n\n    function create(bytes32 id, bytes calldata data) external onlyEngine returns (bool) {\n        require(configs[id].cuota == 0, \"Entry already exist\");\n\n        (uint128 cuota, uint256 interestRate, uint24 installments, uint40 duration, uint32 timeUnit) = _decodeData(data);\n        _validate(cuota, interestRate, installments, duration, timeUnit);\n\n        configs[id] = Config({\n            installments: installments,\n            duration: duration,\n            lentTime: uint64(now),\n            cuota: cuota,\n            interestRate: interestRate,\n            timeUnit: timeUnit\n        });\n\n        states[id].clock = duration;\n\n        emit Created(id);\n        emit _setClock(id, duration);\n\n        return true;\n    }\n\n    function addPaid(bytes32 id, uint256 amount) external onlyEngine returns (uint256 real) {\n        Config storage config = configs[id];\n        State storage state = states[id];\n\n        _advanceClock(id, uint64(now) - config.lentTime);\n\n        if (state.status != STATUS_PAID) {\n            // State & config memory load\n            uint256 paid = state.paid;\n            uint256 duration = config.duration;\n            uint256 interest = state.interest;\n\n            // Payment aux\n            uint256 available = amount;\n            require(available < U_128_OVERFLOW, \"Amount overflow\");\n\n            // Aux variables\n            uint256 unpaidInterest;\n            uint256 pending;\n            uint256 target;\n            uint256 baseDebt;\n            uint256 clock;\n\n            do {\n                clock = state.clock;\n\n                baseDebt = _baseDebt(clock, duration, config.installments, config.cuota);\n                pending = baseDebt + interest - paid;\n\n                // min(pending, available)\n                target = pending < available ? pending : available;\n\n                // Calc paid base\n                unpaidInterest = interest - (paid - state.paidBase);\n\n                // max(target - unpaidInterest, 0)\n                state.paidBase += uint128(target > unpaidInterest ? target - unpaidInterest : 0);\n                emit _setPaidBase(id, state.paidBase);\n\n                paid += target;\n                available -= target;\n\n                // Check fully paid\n                // All installments paid + interest\n                if (clock / duration >= config.installments && baseDebt + interest <= paid) {\n                    // Registry paid!\n                    state.status = uint8(STATUS_PAID);\n                    emit ChangedStatus(id, now, STATUS_PAID);\n                    break;\n                }\n\n                // If installment fully paid, advance to next one\n                if (pending == target) {\n                    _advanceClock(id, clock + duration - (clock % duration));\n                }\n            } while (available != 0);\n\n            require(paid < U_128_OVERFLOW, \"Paid overflow\");\n            state.paid = uint128(paid);\n            state.lastPayment = state.clock;\n\n            real = amount - available;\n            emit AddedPaid(id, real);\n        }\n    }\n\n    function addDebt(bytes32 id, uint256 amount) external onlyEngine returns (bool) {\n        revert(\"Not implemented!\");\n    }\n\n    function fixClock(bytes32 id, uint64 target) external returns (bool) {\n        require(target <= now, \"Forbidden advance clock into the future\");\n        Config storage config = configs[id];\n        State storage state = states[id];\n        uint64 lentTime = config.lentTime;\n        require(lentTime < target, \"Clock can't go negative\");\n        uint64 targetClock = target - lentTime;\n        require(targetClock > state.clock, \"Clock is ahead of target\");\n        return _advanceClock(id, targetClock);\n    }\n\n    function isOperator(address _target) external view returns (bool) {\n        return engine == _target;\n    }\n\n    function getStatus(bytes32 id) external view returns (uint256) {\n        Config storage config = configs[id];\n        State storage state = states[id];\n        require(config.lentTime != 0, \"The registry does not exist\");\n        return state.status == STATUS_PAID ? STATUS_PAID : STATUS_ONGOING;\n    }\n\n    function getPaid(bytes32 id) external view returns (uint256) {\n        return states[id].paid;\n    }\n\n    function getObligation(bytes32 id, uint64 timestamp) external view returns (uint256, bool) {\n        State storage state = states[id];\n        Config storage config = configs[id];\n\n        // Can't be before creation\n        if (timestamp < config.lentTime) {\n            return (0, true);\n        }\n\n        // Static storage loads\n        uint256 currentClock = timestamp - config.lentTime;\n\n        uint256 base = _baseDebt(\n            currentClock,\n            config.duration,\n            config.installments,\n            config.cuota\n        );\n\n        uint256 interest;\n        uint256 prevInterest = state.interest;\n        uint256 clock = state.clock;\n        bool defined;\n\n        if (clock >= currentClock) {\n            interest = prevInterest;\n            defined = true;\n        } else {\n            // We need to calculate the new interest, on a view!\n            (interest, currentClock) = _simRunClock(\n                clock,\n                currentClock,\n                prevInterest,\n                config,\n                state\n            );\n\n            defined = prevInterest == interest;\n        }\n\n        uint256 debt = base + interest;\n        uint256 paid = state.paid;\n        return (debt > paid ? debt - paid : 0, defined);\n    }\n\n    function _simRunClock(\n        uint256 _clock,\n        uint256 _targetClock,\n        uint256 _prevInterest,\n        Config memory _config,\n        State memory _state\n    ) internal pure returns (uint256 interest, uint256 clock) {\n        (interest, clock) = _runAdvanceClock({\n            _clock: _clock,\n            _timeUnit: _config.timeUnit,\n            _interest: _prevInterest,\n            _duration: _config.duration,\n            _cuota: _config.cuota,\n            _installments: _config.installments,\n            _paidBase: _state.paidBase,\n            _interestRate: _config.interestRate,\n            _targetClock: _targetClock\n        });\n    }\n\n    function run(bytes32 id) external returns (bool) {\n        Config storage config = configs[id];\n        return _advanceClock(id, uint64(now) - config.lentTime);\n    }\n\n    function validate(bytes calldata data) external view returns (bool) {\n        (uint128 cuota, uint256 interestRate, uint24 installments, uint40 duration, uint32 timeUnit) = _decodeData(data);\n        _validate(cuota, interestRate, installments, duration, timeUnit);\n        return true;\n    }\n\n    function getClosingObligation(bytes32 id) external view returns (uint256) {\n        return _getClosingObligation(id);\n    }\n\n    function getDueTime(bytes32 id) external view returns (uint256) {\n        Config storage config = configs[id];\n        if (config.cuota == 0)\n            return 0;\n        uint256 last = states[id].lastPayment;\n        uint256 duration = config.duration;\n        last = last != 0 ? last : duration;\n        return last - (last % duration) + config.lentTime;\n    }\n\n    function getFinalTime(bytes32 id) external view returns (uint256) {\n        Config storage config = configs[id];\n        return config.lentTime + (uint256(config.duration) * (uint256(config.installments)));\n    }\n\n    function getFrequency(bytes32 id) external view returns (uint256) {\n        return configs[id].duration;\n    }\n\n    function getInstallments(bytes32 id) external view returns (uint256) {\n        return configs[id].installments;\n    }\n\n    function getEstimateObligation(bytes32 id) external view returns (uint256) {\n        return _getClosingObligation(id);\n    }\n\n    function simFirstObligation(bytes calldata _data) external view returns (uint256 amount, uint256 time) {\n        (amount,,, time,) = _decodeData(_data);\n    }\n\n    function simTotalObligation(bytes calldata _data) external view returns (uint256 amount) {\n        (uint256 cuota,, uint256 installments,,) = _decodeData(_data);\n        amount = cuota * installments;\n    }\n\n    function simDuration(bytes calldata _data) external view returns (uint256 duration) {\n        (,,uint256 installments, uint256 installmentDuration,) = _decodeData(_data);\n        duration = installmentDuration * installments;\n    }\n\n    function simPunitiveInterestRate(bytes calldata _data) external view returns (uint256 punitiveInterestRate) {\n        (,punitiveInterestRate,,,) = _decodeData(_data);\n    }\n\n    function simFrequency(bytes calldata _data) external view returns (uint256 frequency) {\n        (,,, frequency,) = _decodeData(_data);\n    }\n\n    function simInstallments(bytes calldata _data) external view returns (uint256 installments) {\n        (,, installments,,) = _decodeData(_data);\n    }\n\n    function _advanceClock(bytes32 id, uint256 _target) internal returns (bool) {\n        Config storage config = configs[id];\n        State storage state = states[id];\n\n        uint256 clock = state.clock;\n        if (clock < _target) {\n            (uint256 newInterest, uint256 newClock) = _runAdvanceClock({\n                _clock: state.clock,\n                _timeUnit: config.timeUnit,\n                _interest: state.interest,\n                _duration: config.duration,\n                _cuota: config.cuota,\n                _installments: config.installments,\n                _paidBase: state.paidBase,\n                _interestRate: config.interestRate,\n                _targetClock: _target\n            });\n\n            require(newClock < U_64_OVERFLOW, \"Clock overflow\");\n            require(newInterest < U_128_OVERFLOW, \"Interest overflow\");\n\n            emit _setClock(id, uint64(newClock));\n\n            if (newInterest != 0) {\n                emit _setInterest(id, uint128(newInterest));\n            }\n\n            state.clock = uint64(newClock);\n            state.interest = uint128(newInterest);\n\n            return true;\n        }\n    }\n\n    function _getClosingObligation(bytes32 id) internal view returns (uint256) {\n        State storage state = states[id];\n        Config storage config = configs[id];\n\n        // Static storage loads\n        uint256 installments = config.installments;\n        uint256 cuota = config.cuota;\n        uint256 currentClock = uint64(now) - config.lentTime;\n\n        uint256 interest;\n        uint256 clock = state.clock;\n\n        if (clock >= currentClock) {\n            interest = state.interest;\n        } else {\n            (interest,) = _runAdvanceClock({\n                _clock: clock,\n                _timeUnit: config.timeUnit,\n                _interest: state.interest,\n                _duration: config.duration,\n                _cuota: cuota,\n                _installments: installments,\n                _paidBase: state.paidBase,\n                _interestRate: config.interestRate,\n                _targetClock: currentClock\n            });\n        }\n\n        uint256 debt = cuota * installments + interest;\n        uint256 paid = state.paid;\n        return debt > paid ? debt - paid : 0;\n    }\n\n    function _runAdvanceClock(\n        uint256 _clock,\n        uint256 _timeUnit,\n        uint256 _interest,\n        uint256 _duration,\n        uint256 _cuota,\n        uint256 _installments,\n        uint256 _paidBase,\n        uint256 _interestRate,\n        uint256 _targetClock\n    ) internal pure returns (uint256 interest, uint256 clock) {\n        // Advance clock to lentTime if never advanced before\n        clock = _clock;\n        interest = _interest;\n\n        // Aux variables\n        uint256 delta;\n        bool installmentCompleted;\n\n        do {\n            // Delta to next installment and absolute delta (no exceeding 1 installment)\n            (delta, installmentCompleted) = _calcDelta({\n                _targetDelta: _targetClock - clock,\n                _clock: clock,\n                _duration: _duration,\n                _installments: _installments\n            });\n\n            // Running debt\n            uint256 newInterest = _newInterest({\n                _clock: clock,\n                _timeUnit: _timeUnit,\n                _duration: _duration,\n                _installments: _installments,\n                _cuota: _cuota,\n                _paidBase: _paidBase,\n                _delta: delta,\n                _interestRate: _interestRate\n            });\n\n            // Don't change clock unless we have a change\n            if (installmentCompleted || newInterest > 0) {\n                clock += delta;\n                interest += newInterest;\n            } else {\n                break;\n            }\n        } while (clock < _targetClock);\n    }\n\n    function _calcDelta(\n        uint256 _targetDelta,\n        uint256 _clock,\n        uint256 _duration,\n        uint256 _installments\n    ) internal pure returns (uint256 delta, bool installmentCompleted) {\n        uint256 nextInstallmentDelta = _duration - _clock % _duration;\n        if (nextInstallmentDelta <= _targetDelta && _clock / _duration < _installments) {\n            delta = nextInstallmentDelta;\n            installmentCompleted = true;\n        } else {\n            delta = _targetDelta;\n            installmentCompleted = false;\n        }\n    }\n\n    function _newInterest(\n        uint256 _clock,\n        uint256 _timeUnit,\n        uint256 _duration,\n        uint256 _installments,\n        uint256 _cuota,\n        uint256 _paidBase,\n        uint256 _delta,\n        uint256 _interestRate\n    ) internal pure returns (uint256) {\n        uint256 runningDebt = _baseDebt(_clock, _duration, _installments, _cuota) - _paidBase;\n        uint256 newInterest = (100000 * (_delta / _timeUnit) * runningDebt) / (_interestRate / _timeUnit);\n        require(newInterest < U_128_OVERFLOW, \"New interest overflow\");\n        return newInterest;\n    }\n\n    function _baseDebt(\n        uint256 clock,\n        uint256 duration,\n        uint256 installments,\n        uint256 cuota\n    ) internal pure returns (uint256 base) {\n        uint256 installment = clock / duration;\n        return uint128(installment < installments ? installment * cuota : installments * cuota);\n    }\n\n    function _validate(\n        uint256 _cuota,\n        uint256 _interestRate,\n        uint256 _installments,\n        uint256 _installmentDuration,\n        uint256 _timeUnit\n    ) internal pure {\n        require(_cuota > 0, \"Cuota can't be 0\");\n        require(_interestRate > 0, \"Interest rate can't be 0\");\n        require(_installments > 0, \"Installments can't be 0\");\n        require(_installmentDuration > 0, \"Installment duration can't be 0\");\n        require(_timeUnit <= _installmentDuration, \"Time unit can't be lower than installment duration\");\n        require(_interestRate > _timeUnit, \"Interest rate by time unit is too low\");\n        require(_timeUnit > 0, \"Time unit can'be 0\");\n    }\n\n    function _decodeData(\n        bytes memory _data\n    ) internal pure returns (uint128, uint256, uint24, uint40, uint32) {\n        require(_data.length == L_DATA, \"Invalid data length\");\n        (\n            bytes32 cuota,\n            bytes32 interestRate,\n            bytes32 installments,\n            bytes32 duration,\n            bytes32 timeUnit\n        ) = decode(_data, 16, 32, 3, 5, 4);\n        return (uint128(uint256(cuota)), uint256(interestRate), uint24(uint256(installments)), uint40(uint256(duration)), uint32(uint256(timeUnit)));\n    }\n}\n",
  "sourcePath": "/Users/jpgonzalezra/Documents/Code/ripio/rcn-network/contracts/core/diaspore/model/InstallmentsModel.sol",
  "compiler": {
    "name": "solc",
    "version": "0.5.7+commit.6da8b019.Emscripten.clang"
  },
  "schemaVersion": "3.0.1",
  "updatedAt": "2019-05-15T18:54:11.066Z",
  "devdoc": {
    "methods": {
      "supportsInterface(bytes4)": {
        "details": "implement supportsInterface(bytes4) using a lookup table"
      },
      "transferOwnership(address)": {
        "details": "Transfers the ownership of the contract.",
        "params": {
          "_newOwner": "Address of the new owner"
        }
      }
    }
  },
  "userdoc": {
    "methods": {}
  }
}