{
  "contractName": "LoanManager",
  "abi": [
    {
      "constant": true,
      "inputs": [],
      "name": "debtEngine",
      "outputs": [
        {
          "name": "",
          "type": "address"
        }
      ],
      "payable": false,
      "stateMutability": "view",
      "type": "function"
    },
    {
      "constant": true,
      "inputs": [
        {
          "name": "",
          "type": "uint256"
        }
      ],
      "name": "directory",
      "outputs": [
        {
          "name": "",
          "type": "bytes32"
        }
      ],
      "payable": false,
      "stateMutability": "view",
      "type": "function"
    },
    {
      "constant": true,
      "inputs": [
        {
          "name": "",
          "type": "bytes32"
        }
      ],
      "name": "requests",
      "outputs": [
        {
          "name": "open",
          "type": "bool"
        },
        {
          "name": "approved",
          "type": "bool"
        },
        {
          "name": "position",
          "type": "uint64"
        },
        {
          "name": "expiration",
          "type": "uint64"
        },
        {
          "name": "amount",
          "type": "uint128"
        },
        {
          "name": "cosigner",
          "type": "address"
        },
        {
          "name": "model",
          "type": "address"
        },
        {
          "name": "creator",
          "type": "address"
        },
        {
          "name": "oracle",
          "type": "address"
        },
        {
          "name": "borrower",
          "type": "address"
        },
        {
          "name": "salt",
          "type": "uint256"
        },
        {
          "name": "loanData",
          "type": "bytes"
        }
      ],
      "payable": false,
      "stateMutability": "view",
      "type": "function"
    },
    {
      "constant": true,
      "inputs": [
        {
          "name": "",
          "type": "bytes32"
        }
      ],
      "name": "canceledSettles",
      "outputs": [
        {
          "name": "",
          "type": "bool"
        }
      ],
      "payable": false,
      "stateMutability": "view",
      "type": "function"
    },
    {
      "constant": true,
      "inputs": [],
      "name": "token",
      "outputs": [
        {
          "name": "",
          "type": "address"
        }
      ],
      "payable": false,
      "stateMutability": "view",
      "type": "function"
    },
    {
      "inputs": [
        {
          "name": "_debtEngine",
          "type": "address"
        }
      ],
      "payable": false,
      "stateMutability": "nonpayable",
      "type": "constructor"
    },
    {
      "anonymous": false,
      "inputs": [
        {
          "indexed": true,
          "name": "_id",
          "type": "bytes32"
        },
        {
          "indexed": false,
          "name": "_amount",
          "type": "uint128"
        },
        {
          "indexed": false,
          "name": "_model",
          "type": "address"
        },
        {
          "indexed": false,
          "name": "_creator",
          "type": "address"
        },
        {
          "indexed": false,
          "name": "_oracle",
          "type": "address"
        },
        {
          "indexed": false,
          "name": "_borrower",
          "type": "address"
        },
        {
          "indexed": false,
          "name": "_salt",
          "type": "uint256"
        },
        {
          "indexed": false,
          "name": "_loanData",
          "type": "bytes"
        },
        {
          "indexed": false,
          "name": "_expiration",
          "type": "uint256"
        }
      ],
      "name": "Requested",
      "type": "event"
    },
    {
      "anonymous": false,
      "inputs": [
        {
          "indexed": true,
          "name": "_id",
          "type": "bytes32"
        }
      ],
      "name": "Approved",
      "type": "event"
    },
    {
      "anonymous": false,
      "inputs": [
        {
          "indexed": true,
          "name": "_id",
          "type": "bytes32"
        },
        {
          "indexed": false,
          "name": "_lender",
          "type": "address"
        },
        {
          "indexed": false,
          "name": "_tokens",
          "type": "uint256"
        }
      ],
      "name": "Lent",
      "type": "event"
    },
    {
      "anonymous": false,
      "inputs": [
        {
          "indexed": true,
          "name": "_id",
          "type": "bytes32"
        },
        {
          "indexed": false,
          "name": "_cosigner",
          "type": "address"
        },
        {
          "indexed": false,
          "name": "_cost",
          "type": "uint256"
        }
      ],
      "name": "Cosigned",
      "type": "event"
    },
    {
      "anonymous": false,
      "inputs": [
        {
          "indexed": true,
          "name": "_id",
          "type": "bytes32"
        },
        {
          "indexed": false,
          "name": "_canceler",
          "type": "address"
        }
      ],
      "name": "Canceled",
      "type": "event"
    },
    {
      "anonymous": false,
      "inputs": [
        {
          "indexed": false,
          "name": "_oracle",
          "type": "address"
        },
        {
          "indexed": false,
          "name": "_tokens",
          "type": "uint256"
        },
        {
          "indexed": false,
          "name": "_equivalent",
          "type": "uint256"
        }
      ],
      "name": "ReadedOracle",
      "type": "event"
    },
    {
      "anonymous": false,
      "inputs": [
        {
          "indexed": true,
          "name": "_id",
          "type": "bytes32"
        },
        {
          "indexed": false,
          "name": "_response",
          "type": "bytes32"
        }
      ],
      "name": "ApprovedRejected",
      "type": "event"
    },
    {
      "anonymous": false,
      "inputs": [
        {
          "indexed": true,
          "name": "_id",
          "type": "bytes32"
        },
        {
          "indexed": false,
          "name": "_response",
          "type": "bytes32"
        }
      ],
      "name": "ApprovedError",
      "type": "event"
    },
    {
      "anonymous": false,
      "inputs": [
        {
          "indexed": true,
          "name": "_id",
          "type": "bytes32"
        }
      ],
      "name": "ApprovedByCallback",
      "type": "event"
    },
    {
      "anonymous": false,
      "inputs": [
        {
          "indexed": true,
          "name": "_id",
          "type": "bytes32"
        }
      ],
      "name": "ApprovedBySignature",
      "type": "event"
    },
    {
      "anonymous": false,
      "inputs": [
        {
          "indexed": true,
          "name": "_id",
          "type": "bytes32"
        }
      ],
      "name": "CreatorByCallback",
      "type": "event"
    },
    {
      "anonymous": false,
      "inputs": [
        {
          "indexed": true,
          "name": "_id",
          "type": "bytes32"
        }
      ],
      "name": "BorrowerByCallback",
      "type": "event"
    },
    {
      "anonymous": false,
      "inputs": [
        {
          "indexed": true,
          "name": "_id",
          "type": "bytes32"
        }
      ],
      "name": "CreatorBySignature",
      "type": "event"
    },
    {
      "anonymous": false,
      "inputs": [
        {
          "indexed": true,
          "name": "_id",
          "type": "bytes32"
        }
      ],
      "name": "BorrowerBySignature",
      "type": "event"
    },
    {
      "anonymous": false,
      "inputs": [
        {
          "indexed": true,
          "name": "_id",
          "type": "bytes32"
        },
        {
          "indexed": false,
          "name": "_lender",
          "type": "address"
        },
        {
          "indexed": false,
          "name": "_tokens",
          "type": "uint256"
        }
      ],
      "name": "SettledLend",
      "type": "event"
    },
    {
      "anonymous": false,
      "inputs": [
        {
          "indexed": true,
          "name": "_id",
          "type": "bytes32"
        },
        {
          "indexed": false,
          "name": "_canceler",
          "type": "address"
        }
      ],
      "name": "SettledCancel",
      "type": "event"
    },
    {
      "constant": true,
      "inputs": [],
      "name": "getDirectory",
      "outputs": [
        {
          "name": "",
          "type": "bytes32[]"
        }
      ],
      "payable": false,
      "stateMutability": "view",
      "type": "function"
    },
    {
      "constant": true,
      "inputs": [],
      "name": "getDirectoryLength",
      "outputs": [
        {
          "name": "",
          "type": "uint256"
        }
      ],
      "payable": false,
      "stateMutability": "view",
      "type": "function"
    },
    {
      "constant": true,
      "inputs": [
        {
          "name": "_id",
          "type": "uint256"
        }
      ],
      "name": "getBorrower",
      "outputs": [
        {
          "name": "",
          "type": "address"
        }
      ],
      "payable": false,
      "stateMutability": "view",
      "type": "function"
    },
    {
      "constant": true,
      "inputs": [
        {
          "name": "_id",
          "type": "bytes32"
        }
      ],
      "name": "getBorrower",
      "outputs": [
        {
          "name": "",
          "type": "address"
        }
      ],
      "payable": false,
      "stateMutability": "view",
      "type": "function"
    },
    {
      "constant": true,
      "inputs": [
        {
          "name": "_id",
          "type": "uint256"
        }
      ],
      "name": "getCreator",
      "outputs": [
        {
          "name": "",
          "type": "address"
        }
      ],
      "payable": false,
      "stateMutability": "view",
      "type": "function"
    },
    {
      "constant": true,
      "inputs": [
        {
          "name": "_id",
          "type": "bytes32"
        }
      ],
      "name": "getCreator",
      "outputs": [
        {
          "name": "",
          "type": "address"
        }
      ],
      "payable": false,
      "stateMutability": "view",
      "type": "function"
    },
    {
      "constant": true,
      "inputs": [
        {
          "name": "_id",
          "type": "uint256"
        }
      ],
      "name": "getOracle",
      "outputs": [
        {
          "name": "",
          "type": "address"
        }
      ],
      "payable": false,
      "stateMutability": "view",
      "type": "function"
    },
    {
      "constant": true,
      "inputs": [
        {
          "name": "_id",
          "type": "bytes32"
        }
      ],
      "name": "getOracle",
      "outputs": [
        {
          "name": "",
          "type": "address"
        }
      ],
      "payable": false,
      "stateMutability": "view",
      "type": "function"
    },
    {
      "constant": true,
      "inputs": [
        {
          "name": "_id",
          "type": "bytes32"
        }
      ],
      "name": "getCosigner",
      "outputs": [
        {
          "name": "",
          "type": "address"
        }
      ],
      "payable": false,
      "stateMutability": "view",
      "type": "function"
    },
    {
      "constant": true,
      "inputs": [
        {
          "name": "_id",
          "type": "uint256"
        }
      ],
      "name": "getCosigner",
      "outputs": [
        {
          "name": "",
          "type": "address"
        }
      ],
      "payable": false,
      "stateMutability": "view",
      "type": "function"
    },
    {
      "constant": true,
      "inputs": [
        {
          "name": "_id",
          "type": "uint256"
        }
      ],
      "name": "getCurrency",
      "outputs": [
        {
          "name": "",
          "type": "bytes32"
        }
      ],
      "payable": false,
      "stateMutability": "view",
      "type": "function"
    },
    {
      "constant": true,
      "inputs": [
        {
          "name": "_id",
          "type": "bytes32"
        }
      ],
      "name": "getCurrency",
      "outputs": [
        {
          "name": "",
          "type": "bytes32"
        }
      ],
      "payable": false,
      "stateMutability": "view",
      "type": "function"
    },
    {
      "constant": true,
      "inputs": [
        {
          "name": "_id",
          "type": "bytes32"
        }
      ],
      "name": "getAmount",
      "outputs": [
        {
          "name": "",
          "type": "uint256"
        }
      ],
      "payable": false,
      "stateMutability": "view",
      "type": "function"
    },
    {
      "constant": true,
      "inputs": [
        {
          "name": "_id",
          "type": "uint256"
        }
      ],
      "name": "getAmount",
      "outputs": [
        {
          "name": "",
          "type": "uint256"
        }
      ],
      "payable": false,
      "stateMutability": "view",
      "type": "function"
    },
    {
      "constant": true,
      "inputs": [
        {
          "name": "_id",
          "type": "uint256"
        }
      ],
      "name": "getExpirationRequest",
      "outputs": [
        {
          "name": "",
          "type": "uint256"
        }
      ],
      "payable": false,
      "stateMutability": "view",
      "type": "function"
    },
    {
      "constant": true,
      "inputs": [
        {
          "name": "_id",
          "type": "bytes32"
        }
      ],
      "name": "getExpirationRequest",
      "outputs": [
        {
          "name": "",
          "type": "uint256"
        }
      ],
      "payable": false,
      "stateMutability": "view",
      "type": "function"
    },
    {
      "constant": true,
      "inputs": [
        {
          "name": "_id",
          "type": "uint256"
        }
      ],
      "name": "getApproved",
      "outputs": [
        {
          "name": "",
          "type": "bool"
        }
      ],
      "payable": false,
      "stateMutability": "view",
      "type": "function"
    },
    {
      "constant": true,
      "inputs": [
        {
          "name": "_id",
          "type": "bytes32"
        }
      ],
      "name": "getApproved",
      "outputs": [
        {
          "name": "",
          "type": "bool"
        }
      ],
      "payable": false,
      "stateMutability": "view",
      "type": "function"
    },
    {
      "constant": true,
      "inputs": [
        {
          "name": "_id",
          "type": "uint256"
        }
      ],
      "name": "getDueTime",
      "outputs": [
        {
          "name": "",
          "type": "uint256"
        }
      ],
      "payable": false,
      "stateMutability": "view",
      "type": "function"
    },
    {
      "constant": true,
      "inputs": [
        {
          "name": "_id",
          "type": "bytes32"
        }
      ],
      "name": "getDueTime",
      "outputs": [
        {
          "name": "",
          "type": "uint256"
        }
      ],
      "payable": false,
      "stateMutability": "view",
      "type": "function"
    },
    {
      "constant": true,
      "inputs": [
        {
          "name": "_id",
          "type": "uint256"
        }
      ],
      "name": "getClosingObligation",
      "outputs": [
        {
          "name": "",
          "type": "uint256"
        }
      ],
      "payable": false,
      "stateMutability": "view",
      "type": "function"
    },
    {
      "constant": true,
      "inputs": [
        {
          "name": "_id",
          "type": "bytes32"
        }
      ],
      "name": "getClosingObligation",
      "outputs": [
        {
          "name": "",
          "type": "uint256"
        }
      ],
      "payable": false,
      "stateMutability": "view",
      "type": "function"
    },
    {
      "constant": true,
      "inputs": [
        {
          "name": "_id",
          "type": "uint256"
        }
      ],
      "name": "getLoanData",
      "outputs": [
        {
          "name": "",
          "type": "bytes"
        }
      ],
      "payable": false,
      "stateMutability": "view",
      "type": "function"
    },
    {
      "constant": true,
      "inputs": [
        {
          "name": "_id",
          "type": "bytes32"
        }
      ],
      "name": "getLoanData",
      "outputs": [
        {
          "name": "",
          "type": "bytes"
        }
      ],
      "payable": false,
      "stateMutability": "view",
      "type": "function"
    },
    {
      "constant": true,
      "inputs": [
        {
          "name": "_id",
          "type": "bytes32"
        }
      ],
      "name": "getStatus",
      "outputs": [
        {
          "name": "",
          "type": "uint256"
        }
      ],
      "payable": false,
      "stateMutability": "view",
      "type": "function"
    },
    {
      "constant": true,
      "inputs": [
        {
          "name": "_id",
          "type": "uint256"
        }
      ],
      "name": "getStatus",
      "outputs": [
        {
          "name": "",
          "type": "uint256"
        }
      ],
      "payable": false,
      "stateMutability": "view",
      "type": "function"
    },
    {
      "constant": true,
      "inputs": [
        {
          "name": "_id",
          "type": "uint256"
        }
      ],
      "name": "ownerOf",
      "outputs": [
        {
          "name": "",
          "type": "address"
        }
      ],
      "payable": false,
      "stateMutability": "view",
      "type": "function"
    },
    {
      "constant": true,
      "inputs": [
        {
          "name": "_id",
          "type": "bytes32"
        }
      ],
      "name": "ownerOf",
      "outputs": [
        {
          "name": "",
          "type": "address"
        }
      ],
      "payable": false,
      "stateMutability": "view",
      "type": "function"
    },
    {
      "constant": true,
      "inputs": [
        {
          "name": "_amount",
          "type": "uint128"
        },
        {
          "name": "_borrower",
          "type": "address"
        },
        {
          "name": "_creator",
          "type": "address"
        },
        {
          "name": "_model",
          "type": "address"
        },
        {
          "name": "_oracle",
          "type": "address"
        },
        {
          "name": "_salt",
          "type": "uint256"
        },
        {
          "name": "_expiration",
          "type": "uint64"
        },
        {
          "name": "_data",
          "type": "bytes"
        }
      ],
      "name": "calcId",
      "outputs": [
        {
          "name": "",
          "type": "bytes32"
        }
      ],
      "payable": false,
      "stateMutability": "view",
      "type": "function"
    },
    {
      "constant": true,
      "inputs": [
        {
          "name": "_amount",
          "type": "uint128"
        },
        {
          "name": "_borrower",
          "type": "address"
        },
        {
          "name": "_creator",
          "type": "address"
        },
        {
          "name": "_salt",
          "type": "uint256"
        },
        {
          "name": "_expiration",
          "type": "uint64"
        }
      ],
      "name": "buildInternalSalt",
      "outputs": [
        {
          "name": "",
          "type": "uint256"
        }
      ],
      "payable": false,
      "stateMutability": "pure",
      "type": "function"
    },
    {
      "constant": true,
      "inputs": [
        {
          "name": "_id",
          "type": "bytes32"
        }
      ],
      "name": "internalSalt",
      "outputs": [
        {
          "name": "",
          "type": "uint256"
        }
      ],
      "payable": false,
      "stateMutability": "view",
      "type": "function"
    },
    {
      "constant": false,
      "inputs": [
        {
          "name": "_amount",
          "type": "uint128"
        },
        {
          "name": "_model",
          "type": "address"
        },
        {
          "name": "_oracle",
          "type": "address"
        },
        {
          "name": "_borrower",
          "type": "address"
        },
        {
          "name": "_salt",
          "type": "uint256"
        },
        {
          "name": "_expiration",
          "type": "uint64"
        },
        {
          "name": "_loanData",
          "type": "bytes"
        }
      ],
      "name": "requestLoan",
      "outputs": [
        {
          "name": "id",
          "type": "bytes32"
        }
      ],
      "payable": false,
      "stateMutability": "nonpayable",
      "type": "function"
    },
    {
      "constant": false,
      "inputs": [
        {
          "name": "_id",
          "type": "bytes32"
        }
      ],
      "name": "approveRequest",
      "outputs": [
        {
          "name": "",
          "type": "bool"
        }
      ],
      "payable": false,
      "stateMutability": "nonpayable",
      "type": "function"
    },
    {
      "constant": false,
      "inputs": [
        {
          "name": "_id",
          "type": "bytes32"
        },
        {
          "name": "_signature",
          "type": "bytes"
        }
      ],
      "name": "registerApproveRequest",
      "outputs": [
        {
          "name": "approved",
          "type": "bool"
        }
      ],
      "payable": false,
      "stateMutability": "nonpayable",
      "type": "function"
    },
    {
      "constant": false,
      "inputs": [
        {
          "name": "_id",
          "type": "bytes32"
        },
        {
          "name": "_oracleData",
          "type": "bytes"
        },
        {
          "name": "_cosigner",
          "type": "address"
        },
        {
          "name": "_cosignerLimit",
          "type": "uint256"
        },
        {
          "name": "_cosignerData",
          "type": "bytes"
        }
      ],
      "name": "lend",
      "outputs": [
        {
          "name": "",
          "type": "bool"
        }
      ],
      "payable": false,
      "stateMutability": "nonpayable",
      "type": "function"
    },
    {
      "constant": false,
      "inputs": [
        {
          "name": "_id",
          "type": "bytes32"
        }
      ],
      "name": "cancel",
      "outputs": [
        {
          "name": "",
          "type": "bool"
        }
      ],
      "payable": false,
      "stateMutability": "nonpayable",
      "type": "function"
    },
    {
      "constant": false,
      "inputs": [
        {
          "name": "_id",
          "type": "uint256"
        },
        {
          "name": "_cost",
          "type": "uint256"
        }
      ],
      "name": "cosign",
      "outputs": [
        {
          "name": "",
          "type": "bool"
        }
      ],
      "payable": false,
      "stateMutability": "nonpayable",
      "type": "function"
    },
    {
      "constant": true,
      "inputs": [
        {
          "name": "_amount",
          "type": "uint128"
        },
        {
          "name": "_model",
          "type": "address"
        },
        {
          "name": "_oracle",
          "type": "address"
        },
        {
          "name": "_borrower",
          "type": "address"
        },
        {
          "name": "_salt",
          "type": "uint256"
        },
        {
          "name": "_expiration",
          "type": "uint64"
        },
        {
          "name": "_creator",
          "type": "address"
        },
        {
          "name": "_loanData",
          "type": "bytes"
        }
      ],
      "name": "encodeRequest",
      "outputs": [
        {
          "name": "requestData",
          "type": "bytes"
        },
        {
          "name": "id",
          "type": "bytes32"
        }
      ],
      "payable": false,
      "stateMutability": "view",
      "type": "function"
    },
    {
      "constant": false,
      "inputs": [
        {
          "name": "_requestData",
          "type": "bytes"
        },
        {
          "name": "_loanData",
          "type": "bytes"
        },
        {
          "name": "_cosigner",
          "type": "address"
        },
        {
          "name": "_maxCosignerCost",
          "type": "uint256"
        },
        {
          "name": "_cosignerData",
          "type": "bytes"
        },
        {
          "name": "_oracleData",
          "type": "bytes"
        },
        {
          "name": "_creatorSig",
          "type": "bytes"
        },
        {
          "name": "_borrowerSig",
          "type": "bytes"
        }
      ],
      "name": "settleLend",
      "outputs": [
        {
          "name": "id",
          "type": "bytes32"
        }
      ],
      "payable": false,
      "stateMutability": "nonpayable",
      "type": "function"
    },
    {
      "constant": false,
      "inputs": [
        {
          "name": "_requestData",
          "type": "bytes"
        },
        {
          "name": "_loanData",
          "type": "bytes"
        }
      ],
      "name": "settleCancel",
      "outputs": [
        {
          "name": "",
          "type": "bool"
        }
      ],
      "payable": false,
      "stateMutability": "nonpayable",
      "type": "function"
    }
  ],
  "bytecode": "0x60806040523480156200001157600080fd5b5060405160208062005084833981018060405260208110156200003357600080fd5b5051600080546001600160a01b0319166001600160a01b038084169190911791829055604080517ffc0c546a0000000000000000000000000000000000000000000000000000000081529051929091169163fc0c546a91600480820192602092909190829003018186803b158015620000ab57600080fd5b505afa158015620000c0573d6000803e3d6000fd5b505050506040513d6020811015620000d757600080fd5b5051600180546001600160a01b0319166001600160a01b039283161790819055166200016457604080517f08c379a000000000000000000000000000000000000000000000000000000000815260206004820152601360248201527f4572726f72206c6f6164696e6720746f6b656e00000000000000000000000000604482015290519081900360640190fd5b600280549062000178906001830162000180565b5050620001d0565b815481835581811115620001a757600083815260209020620001a7918101908301620001ac565b505050565b620001cd91905b80821115620001c95760008155600101620001b3565b5090565b90565b614ea480620001e06000396000f3fe608060405234801561001057600080fd5b506004361061027f5760003560e01c80638500d9191161015c578063c955bde2116100ce578063df6ee5f211610087578063df6ee5f214610a6b578063e6c8fcf114610a31578063ef270ee2146102bd578063f3d3fce714610bb0578063f8201a3214610f03578063fc0c546a14610fb75761027f565b8063c955bde214610a31578063cdd8750e14610552578063cdf9b77e14610a4e578063d383b80d14610a4e578063d48e638a14610284578063dafaf94a1461031d5761027f565b80639d866985116101205780639d866985146108d45780639fdc0ea6146109ef578063a56d9dda146108b7578063abf6ac09146109f7578063c4d252f514610a14578063c4d2b1b3146105a95761027f565b80638500d9191461073657806390cd0d0614610842578063964f61f9146108b75780639980ec86146102ee5780639a6203e9146104775761027f565b8063622fe39f116101f557806373137bd0116101b957806373137bd01461075357806376247776146107a857806376ba6009146108005780637cdef83c1461081d5780637d611a26146108255780637dd564111461063b5761027f565b8063622fe39f146105a95780636352211e1461063b5780636394536d14610658578063666cd4bd1461067b578063728c3ea2146107365761027f565b806351cbb2991161024757806351cbb299146104775780635900477a1461049457806359357045146105525780635c622a0e1461056f5780635de28ae01461056f5780635f7cfe491461058c5761027f565b8063060a7ef114610284578063081812fc146102bd5780630e0a0d74146102ee57806310a9de601461031d5780632cae66d81461033a575b600080fd5b6102a16004803603602081101561029a57600080fd5b5035610fbf565b604080516001600160a01b039092168252519081900360200190f35b6102da600480360360208110156102d357600080fd5b5035610fdd565b604080519115158252519081900360200190f35b61030b6004803603602081101561030457600080fd5b5035610ff7565b60408051918252519081900360200190f35b6102a16004803603602081101561033357600080fd5b5035611015565b6103f8600480360361010081101561035157600080fd5b6001600160801b03823516916001600160a01b036020820135811692604083013582169260608101358316926080820135926001600160401b0360a0840135169260c08101359092169190810190610100810160e0820135600160201b8111156103ba57600080fd5b8201836020820111156103cc57600080fd5b803590602001918460018302840111600160201b831117156103ed57600080fd5b509092509050611033565b6040518080602001838152602001828103825284818151815260200191508051906020019080838360005b8381101561043b578181015183820152602001610423565b50505050905090810190601f1680156104685780820380516001836020036101000a031916815260200191505b50935050505060405180910390f35b61030b6004803603602081101561048d57600080fd5b50356111d2565b6102da600480360360408110156104aa57600080fd5b810190602081018135600160201b8111156104c457600080fd5b8201836020820111156104d657600080fd5b803590602001918460018302840111600160201b831117156104f757600080fd5b919390929091602081019035600160201b81111561051457600080fd5b82018360208201111561052657600080fd5b803590602001918460018302840111600160201b8311171561054757600080fd5b50909250905061125f565b61030b6004803603602081101561056857600080fd5b5035611418565b61030b6004803603602081101561058557600080fd5b5035611473565b61030b600480360360208110156105a257600080fd5b5035611514565b6105c6600480360360208110156105bf57600080fd5b50356116ce565b6040805160208082528351818301528351919283929083019185019080838360005b838110156106005781810151838201526020016105e8565b50505050905090810190601f16801561062d5780820380516001836020036101000a031916815260200191505b509250505060405180910390f35b6102a16004803603602081101561065157600080fd5b5035611772565b6102da6004803603604081101561066e57600080fd5b50803590602001356117c2565b61030b600480360361010081101561069257600080fd5b6001600160801b03823516916001600160a01b036020820135811692604083013582169260608101358316926080820135169160a0820135916001600160401b0360c08201351691810190610100810160e0820135600160201b8111156106f857600080fd5b82018360208201111561070a57600080fd5b803590602001918460018302840111600160201b8311171561072b57600080fd5b509092509050611b7d565b6102a16004803603602081101561074c57600080fd5b5035611c68565b61030b600480360360a081101561076957600080fd5b5080356001600160801b03169060208101356001600160a01b0390811691604081013590911690606081013590608001356001600160401b0316611c86565b6107b0611c9f565b60408051602080825283518183015283519192839290830191858101910280838360005b838110156107ec5781810151838201526020016107d4565b505050509050019250505060405180910390f35b6102da6004803603602081101561081657600080fd5b5035611cf8565b6102a1611e0c565b61030b6004803603602081101561083b57600080fd5b5035611e1b565b6102da6004803603604081101561085857600080fd5b81359190810190604081016020820135600160201b81111561087957600080fd5b82018360208201111561088b57600080fd5b803590602001918460018302840111600160201b831117156108ac57600080fd5b509092509050611e39565b6102a1600480360360208110156108cd57600080fd5b503561203c565b6108f1600480360360208110156108ea57600080fd5b503561205a565b604080518d151581528c15156020808301919091526001600160401b03808e1693830193909352918b1660608201526001600160801b038a1660808201526001600160a01b03808a1660a083015288811660c083015287811660e08301528681166101008301528516610120820152610140810184905261018061016082018181528451918301919091528351919290916101a084019185019080838360005b838110156109a9578181015183820152602001610991565b50505050905090810190601f1680156109d65780820380516001836020036101000a031916815260200191505b509d505050505050505050505050505060405180910390f35b61030b612170565b6102da60048036036020811015610a0d57600080fd5b5035612176565b6102da60048036036020811015610a2a57600080fd5b503561218b565b61030b60048036036020811015610a4757600080fd5b50356123ca565b61030b60048036036020811015610a6457600080fd5b50356123ec565b6102da600480360360a0811015610a8157600080fd5b81359190810190604081016020820135600160201b811115610aa257600080fd5b820183602082011115610ab457600080fd5b803590602001918460018302840111600160201b83111715610ad557600080fd5b91908080601f01602080910402602001604051908101604052809392919081815260200183838082843760009201919091525092956001600160a01b0385351695602086013595919450925060608101915060400135600160201b811115610b3c57600080fd5b820183602082011115610b4e57600080fd5b803590602001918460018302840111600160201b83111715610b6f57600080fd5b91908080601f016020809104026020016040519081016040528093929190818152602001838380828437600092019190915250929550612446945050505050565b61030b6004803603610100811015610bc757600080fd5b810190602081018135600160201b811115610be157600080fd5b820183602082011115610bf357600080fd5b803590602001918460018302840111600160201b83111715610c1457600080fd5b91908080601f0160208091040260200160405190810160405280939291908181526020018383808284376000920191909152509295949360208101935035915050600160201b811115610c6657600080fd5b820183602082011115610c7857600080fd5b803590602001918460018302840111600160201b83111715610c9957600080fd5b91908080601f01602080910402602001604051908101604052809392919081815260200183838082843760009201919091525092956001600160a01b0385351695602086013595919450925060608101915060400135600160201b811115610d0057600080fd5b820183602082011115610d1257600080fd5b803590602001918460018302840111600160201b83111715610d3357600080fd5b91908080601f0160208091040260200160405190810160405280939291908181526020018383808284376000920191909152509295949360208101935035915050600160201b811115610d8557600080fd5b820183602082011115610d9757600080fd5b803590602001918460018302840111600160201b83111715610db857600080fd5b91908080601f0160208091040260200160405190810160405280939291908181526020018383808284376000920191909152509295949360208101935035915050600160201b811115610e0a57600080fd5b820183602082011115610e1c57600080fd5b803590602001918460018302840111600160201b83111715610e3d57600080fd5b91908080601f0160208091040260200160405190810160405280939291908181526020018383808284376000920191909152509295949360208101935035915050600160201b811115610e8f57600080fd5b820183602082011115610ea157600080fd5b803590602001918460018302840111600160201b83111715610ec257600080fd5b91908080601f016020809104026020016040519081016040528093929190818152602001838380828437600092019190915250929550612dca945050505050565b61030b600480360360e0811015610f1957600080fd5b6001600160801b03823516916001600160a01b03602082013581169260408301358216926060810135909216916080810135916001600160401b0360a083013516919081019060e0810160c0820135600160201b811115610f7957600080fd5b820183602082011115610f8b57600080fd5b803590602001918460018302840111600160201b83111715610fac57600080fd5b509092509050613507565b6102a1613ba5565b6000908152600360205260409020600401546001600160a01b031690565b600090815260036020526040902054610100900460ff1690565b6000908152600360205260409020600101546001600160801b031690565b6000908152600360205260409020600501546001600160a01b031690565b604080516001600160801b038b1660801b60208201526001600160a01b03808b16606090811b6030840152818b16811b6044840152818a16811b6058840152606c83018990526001600160401b03881660c01b608c840152908616901b60948201528151608881830301815260a89091019091526000806110b78c8a888b8b613bb4565b90506000809054906101000a90046001600160a01b03166001600160a01b031663f57ae7b9308d8d858a8a6040518763ffffffff1660e01b815260040180876001600160a01b03166001600160a01b03168152602001866001600160a01b03166001600160a01b03168152602001856001600160a01b03166001600160a01b03168152602001848152602001806020018281038252848482818152602001925080828437600081840152601f19601f82011690508083019250505097505050505050505060206040518083038186803b15801561119357600080fd5b505afa1580156111a7573d6000803e3d6000fd5b505050506040513d60208110156111bd57600080fd5b5051929c929b50919950505050505050505050565b6000818152600360208181526040808420909201548251600160e01b639a6203e90281526004810186905292516001600160a01b0390911692639a6203e9926024808301939192829003018186803b15801561122d57600080fd5b505afa158015611241573d6000803e3d6000fd5b505050506040513d602081101561125757600080fd5b505192915050565b6000806112d586868080601f01602080910402602001604051908101604052809392919081815260200183838082843760009201919091525050604080516020601f8a018190048102820181019092528881529250889150879081908401838280828437600092019190915250613c2592505050565b50905061131d86868080601f0160208091040260200160405190810160405280939291908181526020018383808284376000920191909152506038925060149150613da69050565b6001600160a01b031633148061137f575061137386868080601f0160208091040260200160405190810160405280939291908181526020018383808284376000920191909152506074925060149150613da69050565b6001600160a01b031633145b6113bd57604051600160e51b62461bcd02815260040180806020018281038252602c815260200180614e20602c913960400191505060405180910390fd5b600081815260046020908152604091829020805460ff191660011790558151338152915183927f029e3e789ef1a202e83e668d22e38205106d93105847601f49983c21efb8cfbe92908290030190a250600195945050505050565b6000818152600360208181526040808420909201548251600160e11b6366ec3a870281526004810186905292516001600160a01b039091169263cdd8750e926024808301939192829003018186803b15801561122d57600080fd5b6000818152600360205260408120805460ff1661150a5760005460408051600160e51b6302ef14570281526004810186905290516001600160a01b0390921691635de28ae091602480820192602092909190829003018186803b1580156114d957600080fd5b505afa1580156114ed573d6000803e3d6000fd5b505050506040513d602081101561150357600080fd5b505161150d565b60005b9392505050565b600081815260036020526040812060068101546001600160a01b03166115845760408051600160e51b62461bcd02815260206004820152601660248201527f5265717565737420646f6573206e6f7420657869737400000000000000000000604482015290519081900360640190fd5b6040805161018081018252825460ff8082161515835261010080830490911615156020808501919091526201000083046001600160401b0390811685870152600160501b90930490921660608401526001808601546001600160801b031660808501526002808701546001600160a01b0390811660a08701526003880154811660c08701526004880154811660e0870152600588015481168487015260068801541661012086015260078701546101408601526008870180548751938116159094026000190190931604601f810184900484028201840190955284815261150d94869361016086019391908301828280156116c05780601f10611695576101008083540402835291602001916116c0565b820191906000526020600020905b8154815290600101906020018083116116a357829003601f168201915b505050505081525050613e2a565b60008181526003602090815260409182902060080180548351601f60026000196101006001861615020190931692909204918201849004840281018401909452808452606093928301828280156117665780601f1061173b57610100808354040283529160200191611766565b820191906000526020600020905b81548152906001019060200180831161174957829003601f168201915b50505050509050919050565b6000805460408051600160e11b6331a9108f0281526004810185905290516001600160a01b0390921691636352211e91602480820192602092909190829003018186803b15801561122d57600080fd5b600082815260036020526040812080546201000090046001600160401b0316156118365760408051600160e51b62461bcd02815260206004820152601b60248201527f5265717565737420636f7369676e656420697320696e76616c69640000000000604482015290519081900360640190fd5b60028101546001600160a01b03166118985760408051600160e51b62461bcd02815260206004820152601960248201527f436f7369676e657220307830206973206e6f742076616c696400000000000000604482015290519081900360640190fd5b805442600160501b9091046001600160401b0316116119015760408051600160e51b62461bcd02815260206004820152601260248201527f5265717565737420697320657870697265640000000000000000000000000000604482015290519081900360640190fd5b6002818101546001600160a01b039081163392909201161461196d5760408051600160e51b62461bcd02815260206004820152601260248201527f436f7369676e6572206e6f742076616c69640000000000000000000000000000604482015290519081900360640190fd5b6002810180546001600160a01b031916331790558215611b375782816007015410156119e35760408051600160e51b62461bcd02815260206004820152601660248201527f436f7369676e657220636f737420657863656564656400000000000000000000604482015290519081900360640190fd5b60015460005460408051600160e11b6331a9108f0281526004810188905290516001600160a01b03938416936323b872dd931691636352211e916024808301926020929190829003018186803b158015611a3c57600080fd5b505afa158015611a50573d6000803e3d6000fd5b505050506040513d6020811015611a6657600080fd5b50516040805163ffffffff841660e01b81526001600160a01b039092166004830152336024830152604482018790525160648083019260209291908290030181600087803b158015611ab757600080fd5b505af1158015611acb573d6000803e3d6000fd5b505050506040513d6020811015611ae157600080fd5b5051611b375760408051600160e51b62461bcd02815260206004820152601560248201527f4572726f7220706179696e6720636f7369676e65720000000000000000000000604482015290519081900360640190fd5b6040805133815260208101859052815186927f8a4448add099432884d9833a6b44c465104441b7659c2c00b037da123a54f9d2928290030190a260019150505b92915050565b600080546001600160a01b031663f57ae7b9308989611b9f8f8f8f8d8d613bb4565b60405163ffffffff861660e01b81526001600160a01b0380861660048301908152858216602484015290841660448301526064820183905260a06084830190815260a483018b90528b928b92919060c401848480828437600081840152601f19601f82011690508083019250505097505050505050505060206040518083038186803b158015611c2e57600080fd5b505afa158015611c42573d6000803e3d6000fd5b505050506040513d6020811015611c5857600080fd5b50519a9950505050505050505050565b6000908152600360205260409020600601546001600160a01b031690565b6000611c958686868686613bb4565b9695505050505050565b60606002805480602002602001604051908101604052809291908181526020018280548015611ced57602002820191906000526020600020905b815481526020019060010190808311611cd9575b505050505090505b90565b600081815260036020526040812060068101546001600160a01b03163314611d6a5760408051600160e51b62461bcd02815260206004820152601960248201527f4f6e6c7920626f72726f7765722063616e20617070726f766500000000000000604482015290519081900360640190fd5b8054610100900460ff16611e03576002805460018101825560009182527f405787fa12a823e0f2b7631cc41b3ba8828b3321ca811111fa75cd3aa3bb5ace8101859055825461ff00196001600160401b03909216620100000269ffffffffffffffff000019909116171661010017825560405184917f6fb7fd1eda743aa3eb32c69f3b8cf14a5aeadf26db51057a7c5c78ba10eac8a491a25b50600192915050565b6000546001600160a01b031681565b60028181548110611e2857fe5b600091825260209091200154905081565b6000838152600360205260408120600681015481546001600160a01b0390911690610100900460ff16611f8f57611e78816001600160a01b0316613e4f565b8015611ea25750611ea26001600160a01b038216600160e01b6376ba60090263ffffffff613e5516565b15611eb857611eb18682613efb565b9250611f8f565b611f468660405160200180807f19457468657265756d205369676e6564204d6573736167653a0a333200000000815250601c018281526020019150506040516020818303038152906040528051906020012086868080601f01602080910402602001604051908101604052809392919081815260200183838082843760009201919091525061403792505050565b6001600160a01b0316816001600160a01b03161415611f8f5760405186907fac4faa318b3929891fe5ee57344cce181e72bced7246f5aa4a788ab61e7bb5d290600090a2600192505b828015611fa357508154610100900460ff16155b15612033576002805460018101825560009182527f405787fa12a823e0f2b7631cc41b3ba8828b3321ca811111fa75cd3aa3bb5ace8101889055835461ff00196001600160401b03909216620100000269ffffffffffffffff000019909116171661010017835560405187917f6fb7fd1eda743aa3eb32c69f3b8cf14a5aeadf26db51057a7c5c78ba10eac8a491a25b50509392505050565b6000908152600360205260409020600201546001600160a01b031690565b600360208181526000928352604092839020805460018083015460028085015496850154600486015460058701546006880154600789015460088a0180548e516101009a8216158b026000190190911697909704601f81018d90048d0288018d01909e528d875260ff808b169e998b04169c620100008b046001600160401b039081169d600160501b909c04169b6001600160801b039099169a6001600160a01b039182169a9782169996821698958216979190941695929492938301828280156121665780601f1061213b57610100808354040283529160200191612166565b820191906000526020600020905b81548152906001019060200180831161214957829003601f168201915b505050505090508c565b60025490565b60046020526000908152604090205460ff1681565b6000818152600360205260408120805460ff166121dc57604051600160e51b62461bcd02815260040180806020018281038252602a815260200180614d64602a913960400191505060405180910390fd5b60048101546001600160a01b0316331480612203575060068101546001600160a01b031633145b61224157604051600160e51b62461bcd02815260040180806020018281038252602d815260200180614e4c602d913960400191505060405180910390fd5b8054610100900460ff16156122ed576002805460009190600019810190811061226657fe5b600091825260208083209091015484548184526003909252604090922080546001600160401b0362010000938490048116840269ffffffffffffffff00001990921691909117909155845460028054949550859490939091049091169081106122cb57fe5b60009182526020909120015560028054906122ea906000198301614c5b565b50505b6122fb600882016000614c84565b60008381526003602081905260408220805471ffffffffffffffffffffffffffffffffffff191681556001810180546001600160801b03191690556002810180546001600160a01b0319908116909155918101805483169055600481018054831690556005810180548316905560068101805490921690915560078101829055906123896008830182614c84565b505060408051338152905184917f5f32c817b1de98e681044c3d78ca791e6018e4c3b4f230e4d85bbcc3815989f3919081900360200190a250600192915050565b600090815260036020526040902054600160501b90046001600160401b031690565b6000818152600360205260408120600501546001600160a01b0316801561150a57806001600160a01b031663e5a6b10f6040518163ffffffff1660e01b815260040160206040518083038186803b1580156114d957600080fd5b6000858152600360205260408120805460ff166124ad5760408051600160e51b62461bcd02815260206004820152601960248201527f52657175657374206973206e6f206c6f6e676572206f70656e00000000000000604482015290519081900360640190fd5b8054610100900460ff166124f557604051600160e51b62461bcd02815260040180806020018281038252602b815260200180614db1602b913960400191505060405180910390fd5b805442600160501b9091046001600160401b03161161255e5760408051600160e51b62461bcd02815260206004820152601660248201527f5468652072657175657374206973206578706972656400000000000000000000604482015290519081900360640190fd5b805460ff1916815560058101546001820154600091612592916001600160a01b03909116906001600160801b0316896140c7565b600154600684015460408051600160e01b6323b872dd0281523360048201526001600160a01b0392831660248201526044810185905290519394509116916323b872dd916064808201926020929091908290030181600087803b1580156125f857600080fd5b505af115801561260c573d6000803e3d6000fd5b505050506040513d602081101561262257600080fd5b50516126785760408051600160e51b62461bcd02815260206004820181905260248201527f4572726f722073656e64696e6720746f6b656e7320746f20626f72726f776572604482015290519081900360640190fd5b604080513381526020810183905281518a927ff701a0be7203a591a078aa39b506b74dcf910d7a73b1f73a4dff4d0df3968361928290030190a2876000809054906101000a90046001600160a01b03166001600160a01b0316632ed042658460030160009054906101000a90046001600160a01b0316338660050160009054906101000a90046001600160a01b031661293d88604051806101800160405290816000820160009054906101000a900460ff161515151581526020016000820160019054906101000a900460ff161515151581526020016000820160029054906101000a90046001600160401b03166001600160401b03166001600160401b0316815260200160008201600a9054906101000a90046001600160401b03166001600160401b03166001600160401b031681526020016001820160009054906101000a90046001600160801b03166001600160801b03166001600160801b031681526020016002820160009054906101000a90046001600160a01b03166001600160a01b03166001600160a01b031681526020016003820160009054906101000a90046001600160a01b03166001600160a01b03166001600160a01b031681526020016004820160009054906101000a90046001600160a01b03166001600160a01b03166001600160a01b031681526020016005820160009054906101000a90046001600160a01b03166001600160a01b03166001600160a01b031681526020016006820160009054906101000a90046001600160a01b03166001600160a01b03166001600160a01b0316815260200160078201548152602001600882018054600181600116156101000203166002900480601f0160208091040260200160405190810160405280929190818152602001828054600181600116156101000203166002900480156116c05780601f10611695576101008083540402835291602001916116c0565b60405163ffffffff861660e01b81526001600160a01b0380861660048301908152858216602484015290841660448301526064820183905260a06084830190815260088c0180546002600019610100600184161502019091160460a48501819052909360c40190849080156129f35780601f106129c8576101008083540402835291602001916129f3565b820191906000526020600020905b8154815290600101906020018083116129d657829003601f168201915b50509650505050505050602060405180830381600087803b158015612a1757600080fd5b505af1158015612a2b573d6000803e3d6000fd5b505050506040513d6020811015612a4157600080fd5b505114612a985760408051600160e51b62461bcd02815260206004820152601760248201527f4572726f72206372656174696e67207468652064656274000000000000000000604482015290519081900360640190fd5b60028054600091906000198101908110612aae57fe5b600091825260208083209091015485548184526003909252604090922080546001600160401b0362010000938490048116840269ffffffffffffffff0000199092169190911790915585546002805494955085949093909104909116908110612b1357fe5b600091825260209091200155825469ffffffffffffffff0000191683556002805490612b43906000198301614c5b565b506001600160a01b03871615612dbb57600083600701549050876001600160a01b03166002018460020160006101000a8154816001600160a01b0302191690836001600160a01b03160217905550868460070181905550876001600160a01b031663bb26d9d1308c60001c898d6040518563ffffffff1660e01b815260040180856001600160a01b03166001600160a01b031681526020018481526020018060200180602001838103835285818151815260200191508051906020019080838360005b83811015612c1e578181015183820152602001612c06565b50505050905090810190601f168015612c4b5780820380516001836020036101000a031916815260200191505b50838103825284518152845160209182019186019080838360005b83811015612c7e578181015183820152602001612c66565b50505050905090810190601f168015612cab5780820380516001836020036101000a031916815260200191505b509650505050505050602060405180830381600087803b158015612cce57600080fd5b505af1158015612ce2573d6000803e3d6000fd5b505050506040513d6020811015612cf857600080fd5b5051612d4e5760408051600160e51b62461bcd02815260206004820152601c60248201527f436f7369676e206d6574686f642072657475726e65642066616c736500000000604482015290519081900360640190fd5b60028401546001600160a01b03898116911614612db55760408051600160e51b62461bcd02815260206004820152601860248201527f436f7369676e6572206469646e27742063616c6c6261636b0000000000000000604482015290519081900360640190fd5b60078401555b50600198975050505050505050565b600042612dda8a606c6008613da6565b11612e2f5760408051600160e51b62461bcd02815260206004820152601760248201527f4c6f616e20726571756573742069732065787069726564000000000000000000604482015290519081900360640190fd5b6000612e3b8a8a613c25565b60008281526003602052604090206006015491935091506001600160a01b031615612eb05760408051600160e51b62461bcd02815260206004820152601560248201527f5265717565737420616c72656164792065786973740000000000000000000000604482015290519081900360640190fd5b612ebd828b8b878761422a565b6000612ec98b87614885565b6001549091506001600160a01b03166323b872dd33612eeb8e60386014613da6565b6040805163ffffffff851660e01b81526001600160a01b039384166004820152929091166024830152604482018590525160648083019260209291908290030181600087803b158015612f3d57600080fd5b505af1158015612f51573d6000803e3d6000fd5b505050506040513d6020811015612f6757600080fd5b5051612fbd5760408051600160e51b62461bcd02815260206004820181905260248201527f4572726f722073656e64696e6720746f6b656e7320746f20626f72726f776572604482015290519081900360640190fd5b82612fc98c8c856148aa565b1461301e5760408051600160e51b62461bcd02815260206004820152601c60248201527f4572726f72206372656174696e67206465627420726567697374727900000000604482015290519081900360640190fd5b6040805133815260208101839052815185927fb1d906969e9527a5ad3ac2ca84eb415890ddf44581528edf18d0e7154d7f126d928290030190a2604080516101808101825260008082526001602083015291810191909152606081016130878d606c6008613da6565b6001600160401b031681526020016130a28d60006010613da6565b6001600160801b031681526001600160a01b038b1660208201526040016130cc8d60106014613da6565b6001600160a01b031681526020016130e78d60746014613da6565b6001600160a01b031681526020016131028d60246014613da6565b6001600160a01b0316815260200161311d8d60386014613da6565b6001600160a01b0390811682526020909101908b16613148576131438d604c6020613da6565b61314a565b895b815260209081018c905260008581526003808352604091829020845181548686015194870151606088015160ff199092169215159290921761ff00191661010095151586021769ffffffffffffffff00001916620100006001600160401b03938416021771ffffffffffffffff000000000000000000001916600160501b929091169190910217815560808501516001820180546001600160801b0319166001600160801b0390921691909117905560a08501516002820180546001600160a01b03199081166001600160a01b039384161790915560c0870151938301805482169483169490941790935560e08601516004830180548516918316919091179055928501516005820180548416918516919091179055610120850151600682018054909316931692909217905561014083015160078201556101608301518051919261329e92600885019290910190614ccb565b50505060008381526003602052604090206001600160a01b038a16156134f857600281810180546001600160a01b0319166001600160a01b038d811693840116179055604051600160e01b63bb26d9d10281523060048201818152602483018890526080604484019081528c5160848501528c5163bb26d9d1948a938f938f9391929091606482019160a40190602087019080838360005b8381101561334e578181015183820152602001613336565b50505050905090810190601f16801561337b5780820380516001836020036101000a031916815260200191505b50838103825284518152845160209182019186019080838360005b838110156133ae578181015183820152602001613396565b50505050905090810190601f1680156133db5780820380516001836020036101000a031916815260200191505b509650505050505050602060405180830381600087803b1580156133fe57600080fd5b505af1158015613412573d6000803e3d6000fd5b505050506040513d602081101561342857600080fd5b505161347e5760408051600160e51b62461bcd02815260206004820152601c60248201527f436f7369676e206d6574686f642072657475726e65642066616c736500000000604482015290519081900360640190fd5b60028101546001600160a01b038b81169116146134e55760408051600160e51b62461bcd02815260206004820152601860248201527f436f7369676e6572206469646e27742063616c6c6261636b0000000000000000604482015290519081900360640190fd5b6134f28c604c6020613da6565b60078201555b50505098975050505050505050565b60006001600160a01b03861661355157604051600160e51b62461bcd028152600401808060200182810382526022815260200180614ddc6022913960400191505060405180910390fd5b604051600160e01b63c16e50ef028152602060048201908152602482018490526001600160a01b038a169163c16e50ef9186918691908190604401848480828437600083820152604051601f909101601f191690920195506020945090925050508083038186803b1580156135c557600080fd5b505afa1580156135d9573d6000803e3d6000fd5b505050506040513d60208110156135ef57600080fd5b50516136455760408051600160e51b62461bcd02815260206004820152601a60248201527f546865206c6f616e2064617461206973206e6f742076616c6964000000000000604482015290519081900360640190fd5b60006136548a88338989613bb4565b600054604051600160f91b602082019081526001600160a01b03928316606081811b60218501523080821b60358601528f8616821b6049860152948e16901b605d8401526071830185905293945060029392918d918d9187918b918b91906091018383808284376040805191909301818103601f19018252835280516020918201206000818152600390925292902060060154919c50506001600160a01b03161598506137549750505050505050505760408051600160e51b62461bcd02815260206004820152601560248201527f5265717565737420616c72656164792065786973740000000000000000000000604482015290519081900360640190fd5b6000876001600160a01b0316336001600160a01b0316149050604051806101800160405280600115158152602001821515815260200160006001600160401b03168152602001876001600160401b031681526020018c6001600160801b0316815260200160006001600160a01b031681526020018b6001600160a01b03168152602001336001600160a01b031681526020018a6001600160a01b03168152602001896001600160a01b0316815260200188815260200186868080601f016020809104026020016040519081016040528093929190818152602001838380828437600092018290525093909452505085815260036020818152604092839020855181548784015195880151606089015160ff199092169215159290921761ff00191661010096151587021769ffffffffffffffff00001916620100006001600160401b03938416021771ffffffffffffffff000000000000000000001916600160501b929091169190910217815560808601516001820180546001600160801b0319166001600160801b0390921691909117905560a08601516002820180546001600160a01b03199081166001600160a01b039384161790915560c0880151948301805482169583169590951790945560e087015160048301805486169183169190911790559386015160058201805485169186169190911790556101208601516006820180549094169416939093179091556101408401516007830155610160840151805192935061398f9260088501929190910190614ccb565b50905050827f025957e03ee6e1fe82ef0b3c9c6f0effbe12e1fb2bff20d012badc920cc835458c8c338d8d8d8c8c8f604051808a6001600160801b03166001600160801b03168152602001896001600160a01b03166001600160a01b03168152602001886001600160a01b03166001600160a01b03168152602001876001600160a01b03166001600160a01b03168152602001866001600160a01b03166001600160a01b0316815260200185815260200180602001836001600160401b031681526020018281038252858582818152602001925080828437600083820152604051601f909101601f19169092018290039c50909a5050505050505050505050a280613b0157613aa6886001600160a01b0316613e4f565b8015613ad05750613ad06001600160a01b038916600160e01b6376ba60090263ffffffff613e5516565b15613b0157613adf8389613efb565b6000848152600360205260409020805461ff0019166101008315150217905590505b8015613b975760028054600181019091557f405787fa12a823e0f2b7631cc41b3ba8828b3321ca811111fa75cd3aa3bb5ace810184905560008481526003602052604080822080546001600160401b03909416620100000269ffffffffffffffff00001990941693909317909255905184917f6fb7fd1eda743aa3eb32c69f3b8cf14a5aeadf26db51057a7c5c78ba10eac8a491a25b505098975050505050505050565b6001546001600160a01b031681565b604080516001600160801b0396909616608090811b6020808901919091526001600160a01b03968716606090811b60308a015295909616851b604488015260588701939093526001600160401b039190911660c01b6078860152805180860390930183529301909252815191012090565b6000806000806000806000806000613c3c8b6149d4565b9650965096509650965096509650613c578785838686613bb4565b97506000809054906101000a90046001600160a01b03166001600160a01b031663f57ae7b93088888c8f6040518663ffffffff1660e01b815260040180866001600160a01b03166001600160a01b03168152602001856001600160a01b03166001600160a01b03168152602001846001600160a01b03166001600160a01b0316815260200183815260200180602001828103825283818151815260200191508051906020019080838360005b83811015613d1b578181015183820152602001613d03565b50505050905090810190601f168015613d485780820380516001836020036101000a031916815260200191505b50965050505050505060206040518083038186803b158015613d6957600080fd5b505afa158015613d7d573d6000803e3d6000fd5b505050506040513d6020811015613d9357600080fd5b50519b979a509698505050505050505050565b600081830184511015613e035760408051600160e51b62461bcd02815260206004820152601b60248201527f52656164696e67206279746573206f7574206f6620626f756e64730000000000604482015290519081900360640190fd5b826020018401519050816020038015613e22576008810260020a820491505b509392505050565b6000611b7782608001518361012001518460e001518561014001518660600151613bb4565b3b151590565b60008080613e6d85600160e01b6301ffc9a702614a5d565b915091508160001480613e7e575080155b15613e8e57600092505050611b77565b613ea0856001600160e01b0319614a5d565b9092509050811580613eb157508015155b15613ec157600092505050611b77565b613ecb8585614a5d565b9092509050600182148015613ee05750806001145b15613ef057600192505050611b77565b506000949350505050565b6040805160248082018590528251808303909101815260449091019091526020810180516001600160e01b0316600160e01b6376ba6009021790526000907fdfcb15a077f54a681c23131eacdfd6e12b5e099685b492d382c3fd8bfc1e9a2a84189082908190613f6c908690614a94565b91509150816001148015613f7f57508281145b93508315613fb75760405186907fbcd1a053efeeac2159254030853620c82ddeffb174f76982dc0dd1083648ade390600090a261402e565b81613ff75760408051828152905187917f04843e870d380c72a3ffb37e0afa8b10e7948a34dee4ef9c1d6754cc0699c3d3919081900360200190a261402e565b60408051828152905187917f7b550df26fb29cebc893b0071262bded4c36eb15da43317bf72c3f9f5aeb554a919081900360200190a25b50505092915050565b602081015160408201516041830151600092919060ff16601b81101561405b57601b015b6040805160008152602080820180845289905260ff8416828401526060820186905260808201859052915160019260a0808401939192601f1981019281900390910190855afa1580156140b2573d6000803e3d6000fd5b5050604051601f190151979650505050505050565b60006001600160a01b0384166140de57508161150d565b600080856001600160a01b031663b077c09b856040518263ffffffff1660e01b81526004018080602001828103825283818151815260200191508051906020019080838360005b8381101561413d578181015183820152602001614125565b50505050905090810190601f16801561416a5780820380516001836020036101000a031916815260200191505b50925050506040805180830381600087803b15801561418857600080fd5b505af115801561419c573d6000803e3d6000fd5b505050506040513d60408110156141b257600080fd5b508051602091820151604080516001600160a01b038b1681529384018390528381018290525191945092507f0b53fa0f90e4773f861d84b5da681ae7b3dd6b29358fdb4a38ba8dec13fc80f39181900360600190a180614218838763ffffffff614ab516565b8161421f57fe5b049695505050505050565b60008581526004602052604090205460ff16156142915760408051600160e51b62461bcd02815260206004820152601360248201527f536574746c65207761732063616e63656c656400000000000000000000000000604482015290519081900360640190fd5b7fdfcb15a077f54a681c23131eacdfd6e12b5e099685b492d382c3fd8bfc1e9a2a851860006142c38660386014613da6565b905060006142d48760746014613da6565b90506142e86001600160a01b038316613e4f565b156144b05782826001600160a01b031663b700f67a898960018d60001c6040518563ffffffff1660e01b815260040180806020018060200185151515158152602001848152602001838103835287818151815260200191508051906020019080838360005b8381101561436557818101518382015260200161434d565b50505050905090810190601f1680156143925780820380516001836020036101000a031916815260200191505b50838103825286518152865160209182019188019080838360005b838110156143c55781810151838201526020016143ad565b50505050905090810190601f1680156143f25780820380516001836020036101000a031916815260200191505b509650505050505050602060405180830381600087803b15801561441557600080fd5b505af1158015614429573d6000803e3d6000fd5b505050506040513d602081101561443f57600080fd5b50511461448057604051600160e51b62461bcd028152600401808060200182810382526023815260200180614d8e6023913960400191505060405180910390fd5b60405188907f168544dde877630d31a353bc62115efd38d8e072b48761461075d8421620e77290600090a261459c565b6145088860405160200180807f19457468657265756d205369676e6564204d6573736167653a0a333200000000815250601c018281526020019150506040516020818303038152906040528051906020012085614037565b6001600160a01b0316826001600160a01b0316146145705760408051600160e51b62461bcd02815260206004820152601a60248201527f496e76616c696420626f72726f776572207369676e6174757265000000000000604482015290519081900360640190fd5b60405188907f04acecab035917c895d49033509a027f3fbb1913e978eec824926f605370653b90600090a25b806001600160a01b0316826001600160a01b03161461487b576145c7816001600160a01b0316613e4f565b1561478f5782816001600160a01b031663b700f67a898960008d60001c6040518563ffffffff1660e01b815260040180806020018060200185151515158152602001848152602001838103835287818151815260200191508051906020019080838360005b8381101561464457818101518382015260200161462c565b50505050905090810190601f1680156146715780820380516001836020036101000a031916815260200191505b50838103825286518152865160209182019188019080838360005b838110156146a457818101518382015260200161468c565b50505050905090810190601f1680156146d15780820380516001836020036101000a031916815260200191505b509650505050505050602060405180830381600087803b1580156146f457600080fd5b505af1158015614708573d6000803e3d6000fd5b505050506040513d602081101561471e57600080fd5b50511461475f57604051600160e51b62461bcd028152600401808060200182810382526022815260200180614dfe6022913960400191505060405180910390fd5b60405188907f025f21426e185fab3bf170a9374c750b17a510c3ed51549fa4ff068dbca6605790600090a261487b565b6147e78860405160200180807f19457468657265756d205369676e6564204d6573736167653a0a333200000000815250601c018281526020019150506040516020818303038152906040528051906020012086614037565b6001600160a01b0316816001600160a01b03161461484f5760408051600160e51b62461bcd02815260206004820152601960248201527f496e76616c69642063726561746f72207369676e617475726500000000000000604482015290519081900360640190fd5b60405188907f3971d1c591487c96ba2561ab5f74f00001a6134408897ab8b0124c1673055dd290600090a25b5050505050505050565b600061150d6148978460246014613da6565b6148a48560006010613da6565b846140c7565b600080546001600160a01b0316632ed042656148c98660106014613da6565b336148d78860246014613da6565b60405163ffffffff851660e01b81526001600160a01b0380851660048301908152848216602484015290831660448301526064820189905260a0608483019081528a5160a48401528a518a938c93929160c490910190602085019080838360005b83811015614950578181015183820152602001614938565b50505050905090810190601f16801561497d5780820380516001836020036101000a031916815260200191505b509650505050505050602060405180830381600087803b1580156149a057600080fd5b505af11580156149b4573d6000803e3d6000fd5b505050506040513d60208110156149ca57600080fd5b5051949350505050565b60008060008060008060008060008060008060006149fc8e6010601480601460206008614b23565b9550955095509550955095508560001c9c508460001c9b508360001c9a508260001c99508160001c98508060001c9750614a478e600860206014806014601001010101016014613da6565b60001c9650505050505050919395979092949650565b604051600160e01b6301ffc9a7028082526004820183905260009182919060208160248189617530fa905190969095509350505050565b6000806040516020818551866020016000895af19051909590945092505050565b6000828202831580614acf575082848281614acc57fe5b04145b61150d5760408051600160e51b62461bcd02815260206004820152600d60248201527f4d756c74206f766572666c6f7700000000000000000000000000000000000000604482015290519081900360640190fd5b600080600080600080600060208e01805197508d6020038015614b4c576008810260020a890498505b8e82019250825197508d60200390508015614b6d576008810260020a880497505b50908c01805195509060208c90038015614b8d576008810260020a870496505b50908b01805194509060208b90038015614bad576008810260020a860495505b50908a01805193509060208a90038015614bcd576008810260020a850494505b50908901805192509060208990038015614bed576008810260020a840493505b508e51910390811115614c4a5760408051600160e51b62461bcd02815260206004820152601b60248201527f52656164696e67206279746573206f7574206f6620626f756e64730000000000604482015290519081900360640190fd5b509750975097509750975097915050565b815481835581811115614c7f57600083815260209020614c7f918101908301614d49565b505050565b50805460018160011615610100020316600290046000825580601f10614caa5750614cc8565b601f016020900490600052602060002090810190614cc89190614d49565b50565b828054600181600116156101000203166002900490600052602060002090601f016020900481019282601f10614d0c57805160ff1916838001178555614d39565b82800160010185558215614d39579182015b82811115614d39578251825591602001919060010190614d1e565b50614d45929150614d49565b5090565b611cf591905b80821115614d455760008155600101614d4f56fe52657175657374206973206e6f206c6f6e676572206f70656e206f72206e6f7420726571756573746564426f72726f77657220636f6e74726163742072656a656374656420746865206c6f616e5468652072657175657374206973206e6f7420617070726f7665642062792074686520626f72726f77657254686520726571756573742073686f756c642068617665206120626f72726f77657243726561746f7220636f6e74726163742072656a656374656420746865206c6f616e4f6e6c7920626f72726f776572206f722063726561746f722063616e2063616e63656c206120736574746c654f6e6c7920626f72726f776572206f722063726561746f722063616e2063616e63656c20612072657175657374a165627a7a7230582014913078a13b1fe78d263c2d0a41d6884fd7e378e874adb8502f44e910efb30e0029",
  "source": "pragma solidity ^0.5.7;\n\nimport \"./DebtEngine.sol\";\nimport \"./interfaces/LoanApprover.sol\";\nimport \"./interfaces/RateOracle.sol\";\nimport \"../../interfaces/Cosigner.sol\";\nimport \"../../utils/ImplementsInterface.sol\";\nimport \"../../utils/IsContract.sol\";\nimport \"../../utils/SafeMath.sol\";\nimport \"../../utils/BytesUtils.sol\";\n\n\ncontract LoanManager is BytesUtils {\n    using ImplementsInterface for address;\n    using IsContract for address;\n    using SafeMath for uint256;\n\n    DebtEngine public debtEngine;\n    IERC20 public token;\n\n    bytes32[] public directory;\n    mapping(bytes32 => Request) public requests;\n    mapping(bytes32 => bool) public canceledSettles;\n\n    event Requested(\n        bytes32 indexed _id,\n        uint128 _amount,\n        address _model,\n        address _creator,\n        address _oracle,\n        address _borrower,\n        uint256 _salt,\n        bytes _loanData,\n        uint256 _expiration\n    );\n    event Approved(bytes32 indexed _id);\n    event Lent(bytes32 indexed _id, address _lender, uint256 _tokens);\n    event Cosigned(bytes32 indexed _id, address _cosigner, uint256 _cost);\n    event Canceled(bytes32 indexed _id, address _canceler);\n    event ReadedOracle(address _oracle, uint256 _tokens, uint256 _equivalent);\n\n    event ApprovedRejected(bytes32 indexed _id, bytes32 _response);\n    event ApprovedError(bytes32 indexed _id, bytes32 _response);\n\n    event ApprovedByCallback(bytes32 indexed _id);\n    event ApprovedBySignature(bytes32 indexed _id);\n\n    event CreatorByCallback(bytes32 indexed _id);\n    event BorrowerByCallback(bytes32 indexed _id);\n    event CreatorBySignature(bytes32 indexed _id);\n    event BorrowerBySignature(bytes32 indexed _id);\n\n    event SettledLend(bytes32 indexed _id, address _lender, uint256 _tokens);\n    event SettledCancel(bytes32 indexed _id, address _canceler);\n\n    constructor(DebtEngine _debtEngine) public {\n        debtEngine = _debtEngine;\n        token = debtEngine.token();\n        require(address(token) != address(0), \"Error loading token\");\n        directory.length++;\n    }\n\n    function getDirectory() external view returns (bytes32[] memory) { return directory; }\n\n    function getDirectoryLength() external view returns (uint256) { return directory.length; }\n\n    // uint256 getters(legacy)\n    function getBorrower(uint256 _id) external view returns (address) { return requests[bytes32(_id)].borrower; }\n    function getCreator(uint256 _id) external view returns (address) { return requests[bytes32(_id)].creator; }\n    function getOracle(uint256 _id) external view returns (address) { return requests[bytes32(_id)].oracle; }\n    function getCosigner(uint256 _id) external view returns (address) { return requests[bytes32(_id)].cosigner; }\n    function getCurrency(uint256 _id) external view returns (bytes32) {\n        address oracle = requests[bytes32(_id)].oracle;\n        return oracle == address(0) ? bytes32(0x0) : RateOracle(oracle).currency();\n    }\n    function getAmount(uint256 _id) external view returns (uint256) { return requests[bytes32(_id)].amount; }\n    function getExpirationRequest(uint256 _id) external view returns (uint256) { return requests[bytes32(_id)].expiration; }\n    function getApproved(uint256 _id) external view returns (bool) { return requests[bytes32(_id)].approved; }\n    function getDueTime(uint256 _id) external view returns (uint256) { return Model(requests[bytes32(_id)].model).getDueTime(bytes32(_id)); }\n    function getClosingObligation(uint256 _id) external view returns (uint256) { return Model(requests[bytes32(_id)].model).getClosingObligation(bytes32(_id)); }\n    function getLoanData(uint256 _id) external view returns (bytes memory) { return requests[bytes32(_id)].loanData; }\n    function getStatus(uint256 _id) external view returns (uint256) {\n        Request storage request = requests[bytes32(_id)];\n        return request.open ? 0 : debtEngine.getStatus(bytes32(_id));\n    }\n    function ownerOf(uint256 _id) external view returns (address) {\n        return debtEngine.ownerOf(_id);\n    }\n\n    // bytes32 getters\n    function getBorrower(bytes32 _id) external view returns (address) { return requests[_id].borrower; }\n    function getCreator(bytes32 _id) external view returns (address) { return requests[_id].creator; }\n    function getOracle(bytes32 _id) external view returns (address) { return requests[_id].oracle; }\n    function getCosigner(bytes32 _id) external view returns (address) { return requests[_id].cosigner; }\n    function getCurrency(bytes32 _id) external view returns (bytes32) {\n        address oracle = requests[_id].oracle;\n        return oracle == address(0) ? bytes32(0x0) : RateOracle(oracle).currency();\n    }\n    function getAmount(bytes32 _id) external view returns (uint256) { return requests[_id].amount; }\n    function getExpirationRequest(bytes32 _id) external view returns (uint256) { return requests[_id].expiration; }\n    function getApproved(bytes32 _id) external view returns (bool) { return requests[_id].approved; }\n    function getDueTime(bytes32 _id) external view returns (uint256) { return Model(requests[_id].model).getDueTime(bytes32(_id)); }\n    function getClosingObligation(bytes32 _id) external view returns (uint256) { return Model(requests[_id].model).getClosingObligation(bytes32(_id)); }\n    function getLoanData(bytes32 _id) external view returns (bytes memory) { return requests[_id].loanData; }\n    function getStatus(bytes32 _id) external view returns (uint256) {\n        Request storage request = requests[_id];\n        return request.open ? 0 : debtEngine.getStatus(bytes32(_id));\n    }\n    function ownerOf(bytes32 _id) external view returns (address) {\n        return debtEngine.ownerOf(uint256(_id));\n    }\n\n    struct Request {\n        bool open;\n        bool approved;\n        uint64 position;\n        uint64 expiration;\n        uint128 amount;\n        address cosigner;\n        address model;\n        address creator;\n        address oracle;\n        address borrower;\n        uint256 salt;\n        bytes loanData;\n    }\n\n    function calcId(\n        uint128 _amount,\n        address _borrower,\n        address _creator,\n        address _model,\n        address _oracle,\n        uint256 _salt,\n        uint64 _expiration,\n        bytes calldata _data\n    ) external view returns (bytes32) {\n        return debtEngine.buildId2(\n            address(this),\n            _model,\n            _oracle,\n            _buildInternalSalt(\n                _amount,\n                _borrower,\n                _creator,\n                _salt,\n                _expiration\n            ),\n            _data\n        );\n    }\n\n    function buildInternalSalt(\n        uint128 _amount,\n        address _borrower,\n        address _creator,\n        uint256 _salt,\n        uint64 _expiration\n    ) external pure returns (uint256) {\n        return _buildInternalSalt(\n            _amount,\n            _borrower,\n            _creator,\n            _salt,\n            _expiration\n        );\n    }\n\n    function internalSalt(bytes32 _id) external view returns (uint256) {\n        Request storage request = requests[_id];\n        require(request.borrower != address(0), \"Request does not exist\");\n        return _internalSalt(request);\n    }\n\n    function _internalSalt(Request memory _request) internal view returns (uint256) {\n        return _buildInternalSalt(\n            _request.amount,\n            _request.borrower,\n            _request.creator,\n            _request.salt,\n            _request.expiration\n        );\n    }\n\n    function requestLoan(\n        uint128 _amount,\n        address _model,\n        address _oracle,\n        address _borrower,\n        uint256 _salt,\n        uint64 _expiration,\n        bytes calldata _loanData\n    ) external returns (bytes32 id) {\n        require(_borrower != address(0), \"The request should have a borrower\");\n        require(Model(_model).validate(_loanData), \"The loan data is not valid\");\n\n        uint256 innerSalt = _buildInternalSalt(_amount, _borrower, msg.sender, _salt, _expiration);\n        id = keccak256(\n            abi.encodePacked(\n                uint8(2),\n                debtEngine,\n                address(this),\n                _model,\n                _oracle,\n                innerSalt,\n                _loanData\n            )\n        );\n\n        require(requests[id].borrower == address(0), \"Request already exist\");\n\n        bool approved = msg.sender == _borrower;\n\n        requests[id] = Request({\n            open: true,\n            approved: approved,\n            position: 0,\n            cosigner: address(0),\n            amount: _amount,\n            model: _model,\n            creator: msg.sender,\n            oracle: _oracle,\n            borrower: _borrower,\n            salt: _salt,\n            loanData: _loanData,\n            expiration: _expiration\n        });\n\n        emit Requested(id, _amount, _model, msg.sender, _oracle, _borrower, _salt, _loanData, _expiration);\n\n        if (!approved) {\n            // implements: 0x76ba6009 = approveRequest(bytes32)\n            if (_borrower.isContract() && _borrower.implementsMethod(0x76ba6009)) {\n                approved = _requestContractApprove(id, _borrower);\n                requests[id].approved = approved;\n            }\n        }\n\n        if (approved) {\n            requests[id].position = uint64(directory.push(id) - 1);\n            emit Approved(id);\n        }\n    }\n\n    function _requestContractApprove(\n        bytes32 _id,\n        address _borrower\n    ) internal returns (bool approved) {\n        // bytes32 expected = _id XOR keccak256(\"approve-loan-request\");\n        bytes32 expected = _id ^ 0xdfcb15a077f54a681c23131eacdfd6e12b5e099685b492d382c3fd8bfc1e9a2a;\n        (uint256 success, bytes32 result) = _safeCall(\n            _borrower,\n            abi.encodeWithSelector(\n                0x76ba6009,\n                _id\n            )\n        );\n\n        approved = success == 1 && result == expected;\n\n        // Emit events if approve was rejected or failed\n        if (approved) {\n            emit ApprovedByCallback(_id);\n        } else {\n            if (success == 0) {\n                emit ApprovedError(_id, result);\n            } else {\n                emit ApprovedRejected(_id, result);\n            }\n        }\n    }\n\n    function approveRequest(\n        bytes32 _id\n    ) external returns (bool) {\n        Request storage request = requests[_id];\n        require(msg.sender == request.borrower, \"Only borrower can approve\");\n        if (!request.approved) {\n            request.position = uint64(directory.push(_id) - 1);\n            request.approved = true;\n            emit Approved(_id);\n        }\n        return true;\n    }\n\n    function registerApproveRequest(\n        bytes32 _id,\n        bytes calldata _signature\n    ) external returns (bool approved) {\n        Request storage request = requests[_id];\n        address borrower = request.borrower;\n\n        if (!request.approved) {\n            if (borrower.isContract() && borrower.implementsMethod(0x76ba6009)) {\n                approved = _requestContractApprove(_id, borrower);\n            } else {\n                if (borrower == ecrecovery(keccak256(abi.encodePacked(\"\\x19Ethereum Signed Message:\\n32\", _id)), _signature)) {\n                    emit ApprovedBySignature(_id);\n                    approved = true;\n                }\n            }\n        }\n\n        // Check request.approved again, protect against reentrancy\n        if (approved && !request.approved) {\n            request.position = uint64(directory.push(_id) - 1);\n            request.approved = true;\n            emit Approved(_id);\n        }\n    }\n\n    function lend(\n        bytes32 _id,\n        bytes memory _oracleData,\n        address _cosigner,\n        uint256 _cosignerLimit,\n        bytes memory _cosignerData\n    ) public returns (bool) {\n        Request storage request = requests[_id];\n        require(request.open, \"Request is no longer open\");\n        require(request.approved, \"The request is not approved by the borrower\");\n        require(request.expiration > now, \"The request is expired\");\n\n        request.open = false;\n\n        uint256 tokens = _currencyToToken(request.oracle, request.amount, _oracleData);\n        require(\n            token.transferFrom(\n                msg.sender,\n                request.borrower,\n                tokens\n            ),\n            \"Error sending tokens to borrower\"\n        );\n\n        emit Lent(_id, msg.sender, tokens);\n\n        // Generate the debt\n        require(\n            debtEngine.create2(\n                Model(request.model),\n                msg.sender,\n                request.oracle,\n                _internalSalt(request),\n                request.loanData\n            ) == _id,\n            \"Error creating the debt\"\n        );\n\n        // Remove directory entry\n        bytes32 last = directory[directory.length - 1];\n        requests[last].position = request.position;\n        directory[request.position] = last;\n        request.position = 0;\n        directory.length--;\n\n        // Call the cosigner\n        if (_cosigner != address(0)) {\n            uint256 auxSalt = request.salt;\n            request.cosigner = address(uint256(_cosigner) + 2);\n            request.salt = _cosignerLimit; // Risky ?\n            require(\n                Cosigner(_cosigner).requestCosign(\n                    address(this),\n                    uint256(_id),\n                    _cosignerData,\n                    _oracleData\n                ),\n                \"Cosign method returned false\"\n            );\n            require(request.cosigner == _cosigner, \"Cosigner didn't callback\");\n            request.salt = auxSalt;\n        }\n\n        return true;\n    }\n\n    function cancel(bytes32 _id) external returns (bool) {\n        Request storage request = requests[_id];\n\n        require(request.open, \"Request is no longer open or not requested\");\n        require(\n            request.creator == msg.sender || request.borrower == msg.sender,\n            \"Only borrower or creator can cancel a request\"\n        );\n\n        if (request.approved){\n            // Remove directory entry\n            bytes32 last = directory[directory.length - 1];\n            requests[last].position = request.position;\n            directory[request.position] = last;\n            directory.length--;\n        }\n\n        delete request.loanData;\n        delete requests[_id];\n\n        emit Canceled(_id, msg.sender);\n\n        return true;\n    }\n\n    function cosign(uint256 _id, uint256 _cost) external returns (bool) {\n        Request storage request = requests[bytes32(_id)];\n        require(request.position == 0, \"Request cosigned is invalid\");\n        require(request.cosigner != address(0), \"Cosigner 0x0 is not valid\");\n        require(request.expiration > now, \"Request is expired\");\n        require(request.cosigner == address(uint256(msg.sender) + 2), \"Cosigner not valid\");\n        request.cosigner = msg.sender;\n        if (_cost != 0){\n            require(request.salt >= _cost, \"Cosigner cost exceeded\");\n            require(token.transferFrom(debtEngine.ownerOf(_id), msg.sender, _cost), \"Error paying cosigner\");\n        }\n        emit Cosigned(bytes32(_id), msg.sender, _cost);\n        return true;\n    }\n\n    // ///\n    // Offline requests\n    // ///\n\n    uint256 private constant L_AMOUNT = 16;\n    uint256 private constant O_AMOUNT = 0;\n    uint256 private constant O_MODEL = L_AMOUNT;\n    uint256 private constant L_MODEL = 20;\n    uint256 private constant O_ORACLE = O_MODEL + L_MODEL;\n    uint256 private constant L_ORACLE = 20;\n    uint256 private constant O_BORROWER = O_ORACLE + L_ORACLE;\n    uint256 private constant L_BORROWER = 20;\n    uint256 private constant O_SALT = O_BORROWER + L_BORROWER;\n    uint256 private constant L_SALT = 32;\n    uint256 private constant O_EXPIRATION = O_SALT + L_SALT;\n    uint256 private constant L_EXPIRATION = 8;\n    uint256 private constant O_CREATOR = O_EXPIRATION + L_EXPIRATION;\n    uint256 private constant L_CREATOR = 20;\n\n    uint256 private constant L_TOTAL = O_CREATOR + L_CREATOR;\n\n    function encodeRequest(\n        uint128 _amount,\n        address _model,\n        address _oracle,\n        address _borrower,\n        uint256 _salt,\n        uint64 _expiration,\n        address _creator,\n        bytes calldata _loanData\n    ) external view returns (bytes memory requestData, bytes32 id) {\n        requestData = abi.encodePacked(\n            _amount,\n            _model,\n            _oracle,\n            _borrower,\n            _salt,\n            _expiration,\n            _creator\n        );\n\n        uint256 innerSalt = _buildInternalSalt(\n            _amount,\n            _borrower,\n            _creator,\n            _salt,\n            _expiration\n        );\n\n        id = debtEngine.buildId2(\n            address(this),\n            _model,\n            _oracle,\n            innerSalt,\n            _loanData\n        );\n    }\n\n    function settleLend(\n        bytes memory _requestData,\n        bytes memory _loanData,\n        address _cosigner,\n        uint256 _maxCosignerCost,\n        bytes memory _cosignerData,\n        bytes memory _oracleData,\n        bytes memory _creatorSig,\n        bytes memory _borrowerSig\n    ) public returns (bytes32 id) {\n        // Validate request\n        require(uint256(read(_requestData, O_EXPIRATION, L_EXPIRATION)) > now, \"Loan request is expired\");\n\n        // Get id\n        uint256 innerSalt;\n        (id, innerSalt) = _buildSettleId(_requestData, _loanData);\n\n        // Validate signatures\n        require(requests[id].borrower == address(0), \"Request already exist\");\n        _validateSettleSignatures(id, _requestData, _loanData, _creatorSig, _borrowerSig);\n\n        // Transfer tokens to borrower\n        uint256 tokens = _currencyToToken(_requestData, _oracleData);\n        require(\n            token.transferFrom(\n                msg.sender,\n                address(uint256(read(_requestData, O_BORROWER, L_BORROWER))),\n                tokens\n            ),\n            \"Error sending tokens to borrower\"\n        );\n\n        // Generate the debt\n        require(\n            _createDebt(\n                _requestData,\n                _loanData,\n                innerSalt\n            ) == id,\n            \"Error creating debt registry\"\n        );\n\n        emit SettledLend(id, msg.sender, tokens);\n\n        // Save the request info\n        requests[id] = Request({\n            open: false,\n            approved: true,\n            cosigner: _cosigner,\n            amount: uint128(uint256(read(_requestData, O_AMOUNT, L_AMOUNT))),\n            model: address(uint256(read(_requestData, O_MODEL, L_MODEL))),\n            creator: address(uint256(read(_requestData, O_CREATOR, L_CREATOR))),\n            oracle: address(uint256(read(_requestData, O_ORACLE, L_ORACLE))),\n            borrower: address(uint256(read(_requestData, O_BORROWER, L_BORROWER))),\n            salt: _cosigner != address(0) ? _maxCosignerCost : uint256(read(_requestData, O_SALT, L_SALT)),\n            loanData: _loanData,\n            position: 0,\n            expiration: uint64(uint256(read(_requestData, O_EXPIRATION, L_EXPIRATION)))\n        });\n\n        Request storage request = requests[id];\n\n        // Call the cosigner\n        if (_cosigner != address(0)) {\n            request.cosigner = address(uint256(_cosigner) + 2);\n            require(Cosigner(_cosigner).requestCosign(address(this), uint256(id), _cosignerData, _oracleData), \"Cosign method returned false\");\n            require(request.cosigner == _cosigner, \"Cosigner didn't callback\");\n            request.salt = uint256(read(_requestData, O_SALT, L_SALT));\n        }\n    }\n\n    function settleCancel(\n        bytes calldata _requestData,\n        bytes calldata _loanData\n    ) external returns (bool) {\n        (bytes32 id, ) = _buildSettleId(_requestData, _loanData);\n        require(\n            msg.sender == address(uint256(read(_requestData, O_BORROWER, L_BORROWER))) ||\n            msg.sender == address(uint256(read(_requestData, O_CREATOR, L_CREATOR))),\n            \"Only borrower or creator can cancel a settle\"\n        );\n        canceledSettles[id] = true;\n        emit SettledCancel(id, msg.sender);\n\n        return true;\n    }\n\n    function _validateSettleSignatures(\n        bytes32 _id,\n        bytes memory _requestData,\n        bytes memory _loanData,\n        bytes memory _creatorSig,\n        bytes memory _borrowerSig\n    ) internal {\n        require(!canceledSettles[_id], \"Settle was canceled\");\n\n        // bytes32 expected = uint256(_id) XOR keccak256(\"approve-loan-request\");\n        bytes32 expected = _id ^ 0xdfcb15a077f54a681c23131eacdfd6e12b5e099685b492d382c3fd8bfc1e9a2a;\n        address borrower = address(uint256(read(_requestData, O_BORROWER, L_BORROWER)));\n        address creator = address(uint256(read(_requestData, O_CREATOR, L_CREATOR)));\n\n        if (borrower.isContract()) {\n            require(\n                LoanApprover(borrower).settleApproveRequest(_requestData, _loanData, true, uint256(_id)) == expected,\n                \"Borrower contract rejected the loan\"\n            );\n\n            emit BorrowerByCallback(_id);\n        } else {\n            require(\n                borrower == ecrecovery(keccak256(abi.encodePacked(\"\\x19Ethereum Signed Message:\\n32\", _id)), _borrowerSig),\n                \"Invalid borrower signature\"\n            );\n\n            emit BorrowerBySignature(_id);\n        }\n\n        if (borrower != creator) {\n            if (creator.isContract()) {\n                require(\n                    LoanApprover(creator).settleApproveRequest(_requestData, _loanData, false, uint256(_id)) == expected,\n                    \"Creator contract rejected the loan\"\n                );\n\n                emit CreatorByCallback(_id);\n            } else {\n                require(\n                    creator == ecrecovery(keccak256(abi.encodePacked(\"\\x19Ethereum Signed Message:\\n32\", _id)), _creatorSig),\n                    \"Invalid creator signature\"\n                );\n\n                emit CreatorBySignature(_id);\n            }\n        }\n    }\n\n    function _currencyToToken(\n        bytes memory _requestData,\n        bytes memory _oracleData\n    ) internal returns (uint256) {\n        return _currencyToToken(\n            address(uint256(read(_requestData, O_ORACLE, L_ORACLE))),\n            uint256(read(_requestData, O_AMOUNT, L_AMOUNT)),\n            _oracleData\n        );\n    }\n\n    function _createDebt(\n        bytes memory _requestData,\n        bytes memory _loanData,\n        uint256 _innerSalt\n    ) internal returns (bytes32) {\n        return debtEngine.create2(\n            Model(address(uint256(read(_requestData, O_MODEL, L_MODEL)))),\n            msg.sender,\n            address(uint256(read(_requestData, O_ORACLE, L_ORACLE))),\n            _innerSalt,\n            _loanData\n        );\n    }\n\n    function _buildSettleId(\n        bytes memory _requestData,\n        bytes memory _loanData\n    ) internal view returns (bytes32 id, uint256 innerSalt) {\n        (\n            uint128 amount,\n            address model,\n            address oracle,\n            address borrower,\n            uint256 salt,\n            uint64 expiration,\n            address creator\n        ) = _decodeSettle(_requestData);\n\n        innerSalt = _buildInternalSalt(\n            amount,\n            borrower,\n            creator,\n            salt,\n            expiration\n        );\n\n        id = debtEngine.buildId2(\n            address(this),\n            model,\n            oracle,\n            innerSalt,\n            _loanData\n        );\n    }\n\n    function _buildInternalSalt(\n        uint128 _amount,\n        address _borrower,\n        address _creator,\n        uint256 _salt,\n        uint64 _expiration\n    ) internal pure returns (uint256) {\n        return uint256(\n            keccak256(\n                abi.encodePacked(\n                    _amount,\n                    _borrower,\n                    _creator,\n                    _salt,\n                    _expiration\n                )\n            )\n        );\n    }\n\n    function _decodeSettle(\n        bytes memory _data\n    ) internal pure returns (\n        uint128 amount,\n        address model,\n        address oracle,\n        address borrower,\n        uint256 salt,\n        uint64 expiration,\n        address creator\n    ) {\n        (\n            bytes32 _amount,\n            bytes32 _model,\n            bytes32 _oracle,\n            bytes32 _borrower,\n            bytes32 _salt,\n            bytes32 _expiration\n        ) = decode(_data, L_AMOUNT, L_MODEL, L_ORACLE, L_BORROWER, L_SALT, L_EXPIRATION);\n\n        amount = uint128(uint256(_amount));\n        model = address(uint256(_model));\n        oracle = address(uint256(_oracle));\n        borrower = address(uint256(_borrower));\n        salt = uint256(_salt);\n        expiration = uint64(uint256(_expiration));\n        creator = address(uint256(read(_data, O_CREATOR, L_CREATOR)));\n    }\n\n    function ecrecovery(bytes32 _hash, bytes memory _sig) internal pure returns (address) {\n        bytes32 r;\n        bytes32 s;\n        uint8 v;\n\n        assembly {\n            r := mload(add(_sig, 32))\n            s := mload(add(_sig, 64))\n            v := and(mload(add(_sig, 65)), 255)\n        }\n\n        if (v < 27) {\n            v += 27;\n        }\n\n        return ecrecover(_hash, v, r, s);\n    }\n\n    function _currencyToToken(\n        address _oracle,\n        uint256 _amount,\n        bytes memory _oracleData\n    ) internal returns (uint256) {\n        if (_oracle == address(0)) return _amount;\n        (uint256 tokens, uint256 equivalent) = RateOracle(_oracle).readSample(_oracleData);\n\n        emit ReadedOracle(_oracle, tokens, equivalent);\n\n        return tokens.mult(_amount) / equivalent;\n    }\n\n    function _safeCall(\n        address _contract,\n        bytes memory _data\n    ) internal returns (uint256 success, bytes32 result) {\n        assembly {\n            let x := mload(0x40)\n            success := call(\n                            gas,                 // Send almost all gas\n                            _contract,            // To addr\n                            0,                    // Send ETH\n                            add(0x20, _data),     // Input is data past the first 32 bytes\n                            mload(_data),         // Input size is the lenght of data\n                            x,                    // Store the ouput on x\n                            0x20                  // Output is a single bytes32, has 32 bytes\n                        )\n\n            result := mload(x)\n        }\n    }\n}\n",
  "sourcePath": "/Users/jpgonzalezra/Documents/Code/ripio/rcn-network/contracts/core/diaspore/LoanManager.sol",
  "compiler": {
    "name": "solc",
    "version": "0.5.7+commit.6da8b019.Emscripten.clang"
  },
  "schemaVersion": "3.0.1",
  "updatedAt": "2019-05-15T18:54:11.041Z",
  "devdoc": {
    "methods": {}
  },
  "userdoc": {
    "methods": {}
  }
}