{
  "contractName": "OracleAdapter",
  "abi": [
    {
      "constant": true,
      "inputs": [
        {
          "name": "interfaceId",
          "type": "bytes4"
        }
      ],
      "name": "supportsInterface",
      "outputs": [
        {
          "name": "",
          "type": "bool"
        }
      ],
      "payable": false,
      "stateMutability": "view",
      "type": "function"
    },
    {
      "constant": true,
      "inputs": [],
      "name": "legacyOracle",
      "outputs": [
        {
          "name": "",
          "type": "address"
        }
      ],
      "payable": false,
      "stateMutability": "view",
      "type": "function"
    },
    {
      "constant": true,
      "inputs": [],
      "name": "VERSION",
      "outputs": [
        {
          "name": "",
          "type": "uint256"
        }
      ],
      "payable": false,
      "stateMutability": "view",
      "type": "function"
    },
    {
      "inputs": [
        {
          "name": "_legacyOracle",
          "type": "address"
        },
        {
          "name": "_symbol",
          "type": "string"
        },
        {
          "name": "_name",
          "type": "string"
        },
        {
          "name": "_maintainer",
          "type": "string"
        },
        {
          "name": "_decimals",
          "type": "uint256"
        },
        {
          "name": "_currency",
          "type": "bytes32"
        },
        {
          "name": "_token",
          "type": "address"
        }
      ],
      "payable": false,
      "stateMutability": "nonpayable",
      "type": "constructor"
    },
    {
      "constant": true,
      "inputs": [],
      "name": "symbol",
      "outputs": [
        {
          "name": "",
          "type": "string"
        }
      ],
      "payable": false,
      "stateMutability": "view",
      "type": "function"
    },
    {
      "constant": true,
      "inputs": [],
      "name": "name",
      "outputs": [
        {
          "name": "",
          "type": "string"
        }
      ],
      "payable": false,
      "stateMutability": "view",
      "type": "function"
    },
    {
      "constant": true,
      "inputs": [],
      "name": "decimals",
      "outputs": [
        {
          "name": "",
          "type": "uint256"
        }
      ],
      "payable": false,
      "stateMutability": "view",
      "type": "function"
    },
    {
      "constant": true,
      "inputs": [],
      "name": "token",
      "outputs": [
        {
          "name": "",
          "type": "address"
        }
      ],
      "payable": false,
      "stateMutability": "view",
      "type": "function"
    },
    {
      "constant": true,
      "inputs": [],
      "name": "currency",
      "outputs": [
        {
          "name": "",
          "type": "bytes32"
        }
      ],
      "payable": false,
      "stateMutability": "view",
      "type": "function"
    },
    {
      "constant": true,
      "inputs": [],
      "name": "maintainer",
      "outputs": [
        {
          "name": "",
          "type": "string"
        }
      ],
      "payable": false,
      "stateMutability": "view",
      "type": "function"
    },
    {
      "constant": true,
      "inputs": [],
      "name": "url",
      "outputs": [
        {
          "name": "",
          "type": "string"
        }
      ],
      "payable": false,
      "stateMutability": "view",
      "type": "function"
    },
    {
      "constant": false,
      "inputs": [
        {
          "name": "_data",
          "type": "bytes"
        }
      ],
      "name": "readSample",
      "outputs": [
        {
          "name": "_tokens",
          "type": "uint256"
        },
        {
          "name": "_equivalent",
          "type": "uint256"
        }
      ],
      "payable": false,
      "stateMutability": "nonpayable",
      "type": "function"
    }
  ],
  "bytecode": "0x608060405234801561001057600080fd5b50604051610957380380610957833981018060405260e081101561003357600080fd5b81516020830180519193928301929164010000000081111561005457600080fd5b8201602081018481111561006757600080fd5b815164010000000081118282018710171561008157600080fd5b5050929190602001805164010000000081111561009d57600080fd5b820160208101848111156100b057600080fd5b81516401000000008111828201871017156100ca57600080fd5b505092919060200180516401000000008111156100e657600080fd5b820160208101848111156100f957600080fd5b815164010000000081118282018710171561011357600080fd5b50506020808301516040840151606090940151929550935061015a907f01ffc9a70000000000000000000000000000000000000000000000000000000090610212811b901c565b600180546001600160a01b0319166001600160a01b03891617905585516101889060029060208901906102e0565b50845161019c9060039060208801906102e0565b5083516101b09060049060208701906102e0565b5060058390556006829055600780546001600160a01b0319166001600160a01b0383161790556102067fa265d8e000000000000000000000000000000000000000000000000000000000610212602090811b901c565b5050505050505061037b565b7fffffffff0000000000000000000000000000000000000000000000000000000080821614156102a357604080517f08c379a000000000000000000000000000000000000000000000000000000000815260206004820152601960248201527f43616e2774207265676973746572203078666666666666666600000000000000604482015290519081900360640190fd5b7fffffffff00000000000000000000000000000000000000000000000000000000166000908152602081905260409020805460ff19166001179055565b828054600181600116156101000203166002900490600052602060002090601f016020900481019282601f1061032157805160ff191683800117855561034e565b8280016001018555821561034e579182015b8281111561034e578251825591602001919060010190610333565b5061035a92915061035e565b5090565b61037891905b8082111561035a5760008155600101610364565b90565b6105cd8061038a6000396000f3fe608060405234801561001057600080fd5b50600436106100a95760003560e01c80639850d32b116100715780639850d32b14610190578063996107aa14610198578063b077c09b146101bc578063e5a6b10f14610245578063fc0c546a1461024d578063ffa1ad7414610255576100a9565b806301ffc9a7146100ae57806306fdde03146100e9578063313ce567146101665780635600f04f1461018057806395d89b4114610188575b600080fd5b6100d5600480360360208110156100c457600080fd5b50356001600160e01b03191661025d565b604080519115158252519081900360200190f35b6100f161027c565b6040805160208082528351818301528351919283929083019185019080838360005b8381101561012b578181015183820152602001610113565b50505050905090810190601f1680156101585780820380516001836020036101000a031916815260200191505b509250505060405180910390f35b61016e610312565b60408051918252519081900360200190f35b6100f1610318565b6100f16103ed565b6100f161044b565b6101a06104ac565b604080516001600160a01b039092168252519081900360200190f35b61022c600480360360208110156101d257600080fd5b8101906020810181356401000000008111156101ed57600080fd5b8201836020820111156101ff57600080fd5b8035906020019184600183028401116401000000008311171561022157600080fd5b5090925090506104bb565b6040805192835260208301919091528051918290030190f35b61016e610587565b6101a061058d565b61016e61059c565b6001600160e01b03191660009081526020819052604090205460ff1690565b60038054604080516020601f60026000196101006001881615020190951694909404938401819004810282018101909252828152606093909290918301828280156103085780601f106102dd57610100808354040283529160200191610308565b820191906000526020600020905b8154815290600101906020018083116102eb57829003601f168201915b5050505050905090565b60055490565b60015460408051600160e01b635600f04f02815290516060926001600160a01b031691635600f04f916004808301926000929190829003018186803b15801561036057600080fd5b505afa158015610374573d6000803e3d6000fd5b505050506040513d6000823e601f3d908101601f19168201604052602081101561039d57600080fd5b8101908080516401000000008111156103b557600080fd5b820160208101848111156103c857600080fd5b81516401000000008111828201871017156103e257600080fd5b509094505050505090565b60028054604080516020601f60001961010060018716150201909416859004938401819004810282018101909252828152606093909290918301828280156103085780601f106102dd57610100808354040283529160200191610308565b60048054604080516020601f60026000196101006001881615020190951694909404938401819004810282018101909252828152606093909290918301828280156103085780601f106102dd57610100808354040283529160200191610308565b6001546001600160a01b031681565b60015460065460408051600160e11b631d71357d02815260048101838152602482019283526044820186905260009485946001600160a01b0390911693633ae26afa9391928992899290606401848480828437600081840152601f19601f8201169050808301925050509450505050506040805180830381600087803b15801561054457600080fd5b505af1158015610558573d6000803e3d6000fd5b505050506040513d604081101561056e57600080fd5b5080516020909101519095600a9190910a945092505050565b60065490565b6007546001600160a01b031690565b60058156fea165627a7a723058205fdbc8ee9078ae2e1a3a7d60788327e10981b0accef432aebda6fe3465529ba80029",
  "source": "pragma solidity ^0.5.7;\n\nimport \"./../interfaces/RateOracle.sol\";\nimport \"../../../commons/ERC165.sol\";\nimport \"../../basalt/interfaces/Oracle.sol\";\n\n\ncontract OracleAdapter is RateOracle, ERC165 {\n    Oracle public legacyOracle;\n\n    string private isymbol;\n    string private iname;\n    string private imaintainer;\n\n    uint256 private idecimals;\n    bytes32 private icurrency;\n\n    address private itoken;\n\n    constructor(\n        Oracle _legacyOracle,\n        string memory _symbol,\n        string memory _name,\n        string memory _maintainer,\n        uint256 _decimals,\n        bytes32 _currency,\n        address _token\n    ) public {\n        legacyOracle = _legacyOracle;\n        isymbol = _symbol;\n        iname = _name;\n        imaintainer = _maintainer;\n        idecimals = _decimals;\n        icurrency = _currency;\n        itoken = _token;\n\n        _registerInterface(RATE_ORACLE_INTERFACE);\n    }\n\n    function symbol() external view returns (string memory) { return isymbol; }\n\n    function name() external view returns (string memory) { return iname; }\n\n    function decimals() external view returns (uint256) { return idecimals; }\n\n    function token() external view returns (address) { return itoken; }\n\n    function currency() external view returns (bytes32) { return icurrency; }\n\n    function maintainer() external view returns (string memory) { return imaintainer; }\n\n    function url() external view returns (string memory) {\n        return legacyOracle.url();\n    }\n\n    function readSample(bytes calldata _data) external returns (uint256 _tokens, uint256 _equivalent) {\n        (_tokens, _equivalent) = legacyOracle.getRate(icurrency, _data);\n        _equivalent = 10 ** _equivalent;\n    }\n}\n",
  "sourcePath": "/Users/jpgonzalezra/Documents/Code/ripio/rcn-network/contracts/core/diaspore/utils/OracleAdapter.sol",
  "compiler": {
    "name": "solc",
    "version": "0.5.7+commit.6da8b019.Emscripten.clang"
  },
  "schemaVersion": "3.0.1",
  "updatedAt": "2019-05-15T18:47:52.254Z",
  "devdoc": {
    "methods": {
      "supportsInterface(bytes4)": {
        "details": "implement supportsInterface(bytes4) using a lookup table"
      }
    }
  },
  "userdoc": {
    "methods": {}
  }
}